{"contracts/TokenStakingContract.sol":{"TokenStakingContract":{"abi":[{"inputs":[{"internalType":"string","name":"_name","type":"string"},{"internalType":"string","name":"_symbol","type":"string"}],"stateMutability":"nonpayable","type":"constructor"},{"anonymous":false,"inputs":[{"indexed":true,"internalType":"address","name":"owner","type":"address"},{"indexed":true,"internalType":"address","name":"spender","type":"address"},{"indexed":false,"internalType":"uint256","name":"value","type":"uint256"}],"name":"Approval","type":"event"},{"anonymous":false,"inputs":[{"indexed":false,"internalType":"uint256","name":"_amount","type":"uint256"},{"indexed":false,"internalType":"address","name":"_user","type":"address"}],"name":"ClaimRewards","type":"event"},{"anonymous":false,"inputs":[{"indexed":true,"internalType":"bytes32","name":"role","type":"bytes32"},{"indexed":true,"internalType":"bytes32","name":"previousAdminRole","type":"bytes32"},{"indexed":true,"internalType":"bytes32","name":"newAdminRole","type":"bytes32"}],"name":"RoleAdminChanged","type":"event"},{"anonymous":false,"inputs":[{"indexed":true,"internalType":"bytes32","name":"role","type":"bytes32"},{"indexed":true,"internalType":"address","name":"account","type":"address"},{"indexed":true,"internalType":"address","name":"sender","type":"address"}],"name":"RoleGranted","type":"event"},{"anonymous":false,"inputs":[{"indexed":true,"internalType":"bytes32","name":"role","type":"bytes32"},{"indexed":true,"internalType":"address","name":"account","type":"address"},{"indexed":true,"internalType":"address","name":"sender","type":"address"}],"name":"RoleRevoked","type":"event"},{"anonymous":false,"inputs":[{"indexed":false,"internalType":"uint256","name":"_amount","type":"uint256"},{"indexed":false,"internalType":"address","name":"_user","type":"address"}],"name":"StakeMatic","type":"event"},{"anonymous":false,"inputs":[{"indexed":true,"internalType":"address","name":"from","type":"address"},{"indexed":true,"internalType":"address","name":"to","type":"address"},{"indexed":false,"internalType":"uint256","name":"value","type":"uint256"}],"name":"Transfer","type":"event"},{"anonymous":false,"inputs":[{"indexed":false,"internalType":"uint256","name":"_amount","type":"uint256"},{"indexed":false,"internalType":"address","name":"_user","type":"address"}],"name":"UnstakeMatic","type":"event"},{"inputs":[],"name":"BURNER_ROLE","outputs":[{"internalType":"bytes32","name":"","type":"bytes32"}],"stateMutability":"view","type":"function"},{"inputs":[],"name":"CLAIMER_ROLE","outputs":[{"internalType":"bytes32","name":"","type":"bytes32"}],"stateMutability":"view","type":"function"},{"inputs":[],"name":"DEFAULT_ADMIN_ROLE","outputs":[{"internalType":"bytes32","name":"","type":"bytes32"}],"stateMutability":"view","type":"function"},{"inputs":[],"name":"MATIC_STAKER_ROLE","outputs":[{"internalType":"bytes32","name":"","type":"bytes32"}],"stateMutability":"view","type":"function"},{"inputs":[{"internalType":"address","name":"owner","type":"address"},{"internalType":"address","name":"spender","type":"address"}],"name":"allowance","outputs":[{"internalType":"uint256","name":"","type":"uint256"}],"stateMutability":"view","type":"function"},{"inputs":[{"internalType":"address","name":"spender","type":"address"},{"internalType":"uint256","name":"amount","type":"uint256"}],"name":"approve","outputs":[{"internalType":"bool","name":"","type":"bool"}],"stateMutability":"nonpayable","type":"function"},{"inputs":[{"internalType":"address","name":"account","type":"address"}],"name":"balanceOf","outputs":[{"internalType":"uint256","name":"","type":"uint256"}],"stateMutability":"view","type":"function"},{"inputs":[],"name":"claimRewards","outputs":[],"stateMutability":"nonpayable","type":"function"},{"inputs":[],"name":"daylyBatch","outputs":[{"internalType":"uint256","name":"","type":"uint256"}],"stateMutability":"view","type":"function"},{"inputs":[],"name":"decimals","outputs":[{"internalType":"uint8","name":"","type":"uint8"}],"stateMutability":"view","type":"function"},{"inputs":[{"internalType":"address","name":"spender","type":"address"},{"internalType":"uint256","name":"subtractedValue","type":"uint256"}],"name":"decreaseAllowance","outputs":[{"internalType":"bool","name":"","type":"bool"}],"stateMutability":"nonpayable","type":"function"},{"inputs":[{"internalType":"address","name":"","type":"address"}],"name":"deletedUserRewards","outputs":[{"internalType":"uint256","name":"","type":"uint256"}],"stateMutability":"view","type":"function"},{"inputs":[{"internalType":"bytes32","name":"role","type":"bytes32"}],"name":"getRoleAdmin","outputs":[{"internalType":"bytes32","name":"","type":"bytes32"}],"stateMutability":"view","type":"function"},{"inputs":[{"internalType":"bytes32","name":"role","type":"bytes32"},{"internalType":"address","name":"account","type":"address"}],"name":"grantRole","outputs":[],"stateMutability":"nonpayable","type":"function"},{"inputs":[{"internalType":"bytes32","name":"role","type":"bytes32"},{"internalType":"address","name":"account","type":"address"}],"name":"hasRole","outputs":[{"internalType":"bool","name":"","type":"bool"}],"stateMutability":"view","type":"function"},{"inputs":[{"internalType":"address","name":"spender","type":"address"},{"internalType":"uint256","name":"addedValue","type":"uint256"}],"name":"increaseAllowance","outputs":[{"internalType":"bool","name":"","type":"bool"}],"stateMutability":"nonpayable","type":"function"},{"inputs":[],"name":"lastUpdate","outputs":[{"internalType":"uint256","name":"","type":"uint256"}],"stateMutability":"view","type":"function"},{"inputs":[],"name":"maxStakeAmount","outputs":[{"internalType":"uint256","name":"","type":"uint256"}],"stateMutability":"view","type":"function"},{"inputs":[],"name":"name","outputs":[{"internalType":"string","name":"","type":"string"}],"stateMutability":"view","type":"function"},{"inputs":[],"name":"numberOfStakers","outputs":[{"internalType":"uint256","name":"","type":"uint256"}],"stateMutability":"view","type":"function"},{"inputs":[{"internalType":"bytes32","name":"role","type":"bytes32"},{"internalType":"address","name":"account","type":"address"}],"name":"renounceRole","outputs":[],"stateMutability":"nonpayable","type":"function"},{"inputs":[{"internalType":"bytes32","name":"role","type":"bytes32"},{"internalType":"address","name":"account","type":"address"}],"name":"revokeRole","outputs":[],"stateMutability":"nonpayable","type":"function"},{"inputs":[],"name":"secondsInADay","outputs":[{"internalType":"uint256","name":"","type":"uint256"}],"stateMutability":"view","type":"function"},{"inputs":[],"name":"stakeMatic","outputs":[],"stateMutability":"payable","type":"function"},{"inputs":[{"internalType":"bytes4","name":"interfaceId","type":"bytes4"}],"name":"supportsInterface","outputs":[{"internalType":"bool","name":"","type":"bool"}],"stateMutability":"view","type":"function"},{"inputs":[],"name":"symbol","outputs":[{"internalType":"string","name":"","type":"string"}],"stateMutability":"view","type":"function"},{"inputs":[],"name":"totalAmountStaked","outputs":[{"internalType":"uint256","name":"","type":"uint256"}],"stateMutability":"view","type":"function"},{"inputs":[],"name":"totalSupply","outputs":[{"internalType":"uint256","name":"","type":"uint256"}],"stateMutability":"view","type":"function"},{"inputs":[],"name":"totalTokenSupply","outputs":[{"internalType":"uint256","name":"","type":"uint256"}],"stateMutability":"view","type":"function"},{"inputs":[{"internalType":"address","name":"to","type":"address"},{"internalType":"uint256","name":"amount","type":"uint256"}],"name":"transfer","outputs":[{"internalType":"bool","name":"","type":"bool"}],"stateMutability":"nonpayable","type":"function"},{"inputs":[{"internalType":"address","name":"from","type":"address"},{"internalType":"address","name":"to","type":"address"},{"internalType":"uint256","name":"amount","type":"uint256"}],"name":"transferFrom","outputs":[{"internalType":"bool","name":"","type":"bool"}],"stateMutability":"nonpayable","type":"function"},{"inputs":[{"internalType":"uint256","name":"_amount","type":"uint256"}],"name":"unstakeMatic","outputs":[],"stateMutability":"nonpayable","type":"function"},{"inputs":[{"internalType":"uint256","name":"","type":"uint256"}],"name":"userIndex","outputs":[{"internalType":"address","name":"","type":"address"}],"stateMutability":"view","type":"function"},{"inputs":[{"internalType":"address","name":"","type":"address"}],"name":"userInfo","outputs":[{"internalType":"uint256","name":"amountStaked","type":"uint256"},{"internalType":"uint256","name":"lastStakedMatic","type":"uint256"},{"internalType":"uint256","name":"rewards","type":"uint256"},{"internalType":"uint256","name":"lastClaimedRewards","type":"uint256"}],"stateMutability":"view","type":"function"},{"inputs":[],"name":"viewRewards","outputs":[{"internalType":"uint256","name":"","type":"uint256"}],"stateMutability":"view","type":"function"},{"stateMutability":"payable","type":"receive"}],"evm":{"bytecode":{"linkReferences":{},"object":"60806040523480156200001157600080fd5b5060405162004b8438038062004b84833981810160405281019062000037919062000532565b818181600390816200004a919062000802565b5080600490816200005c919062000802565b505050620000746000801b33620000ad60201b60201c565b620000896000801b30620000ad60201b60201c565b620000a53069d86abb23bbeec2c00000620000c360201b60201c565b505062000a04565b620000bf82826200023060201b60201c565b5050565b600073ffffffffffffffffffffffffffffffffffffffff168273ffffffffffffffffffffffffffffffffffffffff160362000135576040517f08c379a00000000000000000000000000000000000000000000000000000000081526004016200012c906200094a565b60405180910390fd5b62000149600083836200032260201b60201c565b80600260008282546200015d91906200099b565b92505081905550806000808473ffffffffffffffffffffffffffffffffffffffff1673ffffffffffffffffffffffffffffffffffffffff168152602001908152602001600020600082825401925050819055508173ffffffffffffffffffffffffffffffffffffffff16600073ffffffffffffffffffffffffffffffffffffffff167fddf252ad1be2c89b69c2b068fc378daa952ba7f163c4a11628f55a4df523b3ef83604051620002109190620009e7565b60405180910390a36200022c600083836200032760201b60201c565b5050565b6200024282826200032c60201b60201c565b6200031e5760016005600084815260200190815260200160002060000160008373ffffffffffffffffffffffffffffffffffffffff1673ffffffffffffffffffffffffffffffffffffffff16815260200190815260200160002060006101000a81548160ff021916908315150217905550620002c36200039760201b60201c565b73ffffffffffffffffffffffffffffffffffffffff168173ffffffffffffffffffffffffffffffffffffffff16837f2f8788117e7eff1d82e926ec794901d17c78024a50270940304540a733656f0d60405160405180910390a45b5050565b505050565b505050565b60006005600084815260200190815260200160002060000160008373ffffffffffffffffffffffffffffffffffffffff1673ffffffffffffffffffffffffffffffffffffffff16815260200190815260200160002060009054906101000a900460ff16905092915050565b600033905090565b6000604051905090565b600080fd5b600080fd5b600080fd5b600080fd5b6000601f19601f8301169050919050565b7f4e487b7100000000000000000000000000000000000000000000000000000000600052604160045260246000fd5b6200040882620003bd565b810181811067ffffffffffffffff821117156200042a5762000429620003ce565b5b80604052505050565b60006200043f6200039f565b90506200044d8282620003fd565b919050565b600067ffffffffffffffff82111562000470576200046f620003ce565b5b6200047b82620003bd565b9050602081019050919050565b60005b83811015620004a85780820151818401526020810190506200048b565b60008484015250505050565b6000620004cb620004c58462000452565b62000433565b905082815260208101848484011115620004ea57620004e9620003b8565b5b620004f784828562000488565b509392505050565b600082601f830112620005175762000516620003b3565b5b815162000529848260208601620004b4565b91505092915050565b600080604083850312156200054c576200054b620003a9565b5b600083015167ffffffffffffffff8111156200056d576200056c620003ae565b5b6200057b85828601620004ff565b925050602083015167ffffffffffffffff8111156200059f576200059e620003ae565b5b620005ad85828601620004ff565b9150509250929050565b600081519050919050565b7f4e487b7100000000000000000000000000000000000000000000000000000000600052602260045260246000fd5b600060028204905060018216806200060a57607f821691505b60208210810362000620576200061f620005c2565b5b50919050565b60008190508160005260206000209050919050565b60006020601f8301049050919050565b600082821b905092915050565b6000600883026200068a7fffffffffffffffffffffffffffffffffffffffffffffffffffffffffffffffff826200064b565b6200069686836200064b565b95508019841693508086168417925050509392505050565b6000819050919050565b6000819050919050565b6000620006e3620006dd620006d784620006ae565b620006b8565b620006ae565b9050919050565b6000819050919050565b620006ff83620006c2565b620007176200070e82620006ea565b84845462000658565b825550505050565b600090565b6200072e6200071f565b6200073b818484620006f4565b505050565b5b8181101562000763576200075760008262000724565b60018101905062000741565b5050565b601f821115620007b2576200077c8162000626565b62000787846200063b565b8101602085101562000797578190505b620007af620007a6856200063b565b83018262000740565b50505b505050565b600082821c905092915050565b6000620007d760001984600802620007b7565b1980831691505092915050565b6000620007f28383620007c4565b9150826002028217905092915050565b6200080d82620005b7565b67ffffffffffffffff811115620008295762000828620003ce565b5b620008358254620005f1565b6200084282828562000767565b600060209050601f8311600181146200087a576000841562000865578287015190505b620008718582620007e4565b865550620008e1565b601f1984166200088a8662000626565b60005b82811015620008b4578489015182556001820191506020850194506020810190506200088d565b86831015620008d45784890151620008d0601f891682620007c4565b8355505b6001600288020188555050505b505050505050565b600082825260208201905092915050565b7f45524332303a206d696e7420746f20746865207a65726f206164647265737300600082015250565b600062000932601f83620008e9565b91506200093f82620008fa565b602082019050919050565b60006020820190508181036000830152620009658162000923565b9050919050565b7f4e487b7100000000000000000000000000000000000000000000000000000000600052601160045260246000fd5b6000620009a882620006ae565b9150620009b583620006ae565b9250828201905080821115620009d057620009cf6200096c565b5b92915050565b620009e181620006ae565b82525050565b6000602082019050620009fe6000830184620009d6565b92915050565b6141708062000a146000396000f3fe6080604052600436106102085760003560e01c80635d80ca3211610118578063a56cedb6116100a0578063c37dfd6e1161006f578063c37dfd6e146107ac578063d547741f146107e9578063dd62ed3e14610812578063fc5f18d31461084f578063fe961f611461087a5761020f565b8063a56cedb614610711578063a9059cbb1461073a578063c01d4dfb14610777578063c0463711146107815761020f565b806376dc7440116100e757806376dc74401461061657806391d148541461064157806395d89b411461067e578063a217fddf146106a9578063a457c2d7146106d45761020f565b80635d80ca32146105585780635eabf577146105835780636a019389146105ae57806370a08231146105d95761020f565b8063282c51f31161019b578063372500ab1161016a578063372500ab1461047157806339509351146104885780633dfa83b3146104c55780634df9aab1146104f057806359c3191f1461052d5761020f565b8063282c51f3146103c95780632f2ff15d146103f4578063313ce5671461041d57806336568abe146104485761020f565b80631959a002116101d75780631959a002146102e45780631ca8b6cb1461032457806323b872dd1461034f578063248a9ca31461038c5761020f565b806301ffc9a71461021457806306fdde0314610251578063095ea7b31461027c57806318160ddd146102b95761020f565b3661020f57005b600080fd5b34801561022057600080fd5b5061023b60048036038101906102369190612e91565b6108a5565b6040516102489190612ed9565b60405180910390f35b34801561025d57600080fd5b5061026661091f565b6040516102739190612f84565b60405180910390f35b34801561028857600080fd5b506102a3600480360381019061029e919061303a565b6109b1565b6040516102b09190612ed9565b60405180910390f35b3480156102c557600080fd5b506102ce6109d4565b6040516102db9190613089565b60405180910390f35b3480156102f057600080fd5b5061030b600480360381019061030691906130a4565b6109de565b60405161031b94939291906130d1565b60405180910390f35b34801561033057600080fd5b50610339610a0e565b6040516103469190613089565b60405180910390f35b34801561035b57600080fd5b5061037660048036038101906103719190613116565b610a1c565b6040516103839190612ed9565b60405180910390f35b34801561039857600080fd5b506103b360048036038101906103ae919061319f565b610a4b565b6040516103c091906131db565b60405180910390f35b3480156103d557600080fd5b506103de610a6b565b6040516103eb91906131db565b60405180910390f35b34801561040057600080fd5b5061041b600480360381019061041691906131f6565b610a8f565b005b34801561042957600080fd5b50610432610ab0565b60405161043f9190613252565b60405180910390f35b34801561045457600080fd5b5061046f600480360381019061046a91906131f6565b610ab9565b005b34801561047d57600080fd5b50610486610b3c565b005b34801561049457600080fd5b506104af60048036038101906104aa919061303a565b611028565b6040516104bc9190612ed9565b60405180910390f35b3480156104d157600080fd5b506104da61105f565b6040516104e79190613089565b60405180910390f35b3480156104fc57600080fd5b50610517600480360381019061051291906130a4565b611156565b6040516105249190613089565b60405180910390f35b34801561053957600080fd5b5061054261116e565b60405161054f91906131db565b60405180910390f35b34801561056457600080fd5b5061056d611192565b60405161057a9190613089565b60405180910390f35b34801561058f57600080fd5b5061059861119f565b6040516105a59190613089565b60405180910390f35b3480156105ba57600080fd5b506105c36111a5565b6040516105d09190613089565b60405180910390f35b3480156105e557600080fd5b5061060060048036038101906105fb91906130a4565b6111ac565b60405161060d9190613089565b60405180910390f35b34801561062257600080fd5b5061062b6111f4565b6040516106389190613089565b60405180910390f35b34801561064d57600080fd5b50610668600480360381019061066391906131f6565b611201565b6040516106759190612ed9565b60405180910390f35b34801561068a57600080fd5b5061069361126c565b6040516106a09190612f84565b60405180910390f35b3480156106b557600080fd5b506106be6112fe565b6040516106cb91906131db565b60405180910390f35b3480156106e057600080fd5b506106fb60048036038101906106f6919061303a565b611305565b6040516107089190612ed9565b60405180910390f35b34801561071d57600080fd5b506107386004803603810190610733919061326d565b61137c565b005b34801561074657600080fd5b50610761600480360381019061075c919061303a565b6116c7565b60405161076e9190612ed9565b60405180910390f35b61077f6116ea565b005b34801561078d57600080fd5b50610796611aad565b6040516107a39190613089565b60405180910390f35b3480156107b857600080fd5b506107d360048036038101906107ce919061326d565b611ab3565b6040516107e091906132a9565b60405180910390f35b3480156107f557600080fd5b50610810600480360381019061080b91906131f6565b611af2565b005b34801561081e57600080fd5b50610839600480360381019061083491906132c4565b611b13565b6040516108469190613089565b60405180910390f35b34801561085b57600080fd5b50610864611b9a565b60405161087191906131db565b60405180910390f35b34801561088657600080fd5b5061088f611bbe565b60405161089c9190613089565b60405180910390f35b60007f7965db0b000000000000000000000000000000000000000000000000000000007bffffffffffffffffffffffffffffffffffffffffffffffffffffffff1916827bffffffffffffffffffffffffffffffffffffffffffffffffffffffff19161480610918575061091782611bc4565b5b9050919050565b60606003805461092e90613333565b80601f016020809104026020016040519081016040528092919081815260200182805461095a90613333565b80156109a75780601f1061097c576101008083540402835291602001916109a7565b820191906000526020600020905b81548152906001019060200180831161098a57829003601f168201915b5050505050905090565b6000806109bc611c2e565b90506109c9818585611c36565b600191505092915050565b6000600254905090565b600a6020528060005260406000206000915090508060000154908060010154908060020154908060030154905084565b69d86abb23bbeec2c0000081565b600080610a27611c2e565b9050610a34858285611dff565b610a3f858585611e8b565b60019150509392505050565b600060056000838152602001908152602001600020600101549050919050565b7f3c11d16cbaffd01df69ce1c404f6340ee057498f5f00246190ea54220576a84881565b610a9882610a4b565b610aa181612101565b610aab8383612115565b505050565b60006012905090565b610ac1611c2e565b73ffffffffffffffffffffffffffffffffffffffff168173ffffffffffffffffffffffffffffffffffffffff1614610b2e576040517f08c379a0000000000000000000000000000000000000000000000000000000008152600401610b25906133d6565b60405180910390fd5b610b3882826121f6565b5050565b610b667f11a8cb5a02bd6c42679835e867ef2118ba78f088f8300511420c6603c21d9c7833611201565b80610b975750610b967f4aa71de0da4208dc9ee441c63978e580c4f1b98782158b74cb390e4e6ce7cdbb33611201565b5b610bd6576040517f08c379a0000000000000000000000000000000000000000000000000000000008152600401610bcd90613442565b60405180910390fd5b6000610c027f11a8cb5a02bd6c42679835e867ef2118ba78f088f8300511420c6603c21d9c7833611201565b15610d1e573073ffffffffffffffffffffffffffffffffffffffff1663d547741f7f11a8cb5a02bd6c42679835e867ef2118ba78f088f8300511420c6603c21d9c78336040518363ffffffff1660e01b8152600401610c62929190613462565b600060405180830381600087803b158015610c7c57600080fd5b505af1158015610c90573d6000803e3d6000fd5b50505050600960003373ffffffffffffffffffffffffffffffffffffffff1673ffffffffffffffffffffffffffffffffffffffff168152602001908152602001600020549050600960003373ffffffffffffffffffffffffffffffffffffffff1673ffffffffffffffffffffffffffffffffffffffff16815260200190815260200160002060009055610f26565b600854600a60003373ffffffffffffffffffffffffffffffffffffffff1673ffffffffffffffffffffffffffffffffffffffff168152602001908152602001600020600301541115610e4157600062015180600a60003373ffffffffffffffffffffffffffffffffffffffff1673ffffffffffffffffffffffffffffffffffffffff1681526020019081526020016000206003015442610dbe91906134ba565b610dc8919061351d565b9050600754816897c9ce4cf6d5c00000600a60003373ffffffffffffffffffffffffffffffffffffffff1673ffffffffffffffffffffffffffffffffffffffff16815260200190815260200160002060000154610e25919061354e565b610e2f919061354e565b610e39919061351d565b915050610e9a565b610e4a336122d8565b600a60003373ffffffffffffffffffffffffffffffffffffffff1673ffffffffffffffffffffffffffffffffffffffff16815260200190815260200160002060020154610e979190613590565b90505b6000600a60003373ffffffffffffffffffffffffffffffffffffffff1673ffffffffffffffffffffffffffffffffffffffff1681526020019081526020016000206002018190555060008111610f25576040517f08c379a0000000000000000000000000000000000000000000000000000000008152600401610f1c90613610565b60405180910390fd5b5b42600a60003373ffffffffffffffffffffffffffffffffffffffff1673ffffffffffffffffffffffffffffffffffffffff168152602001908152602001600020600301819055503073ffffffffffffffffffffffffffffffffffffffff1663a9059cbb33836040518363ffffffff1660e01b8152600401610fa8929190613630565b6020604051808303816000875af1158015610fc7573d6000803e3d6000fd5b505050506040513d601f19601f82011682018060405250810190610feb9190613685565b507fba56c3ab1f752776eef60db959a4e6b643e89595315edbbd945e104623fa03ba813360405161101d9291906136b2565b60405180910390a150565b600080611033611c2e565b90506110548185856110458589611b13565b61104f9190613590565b611c36565b600191505092915050565b600061108b7f11a8cb5a02bd6c42679835e867ef2118ba78f088f8300511420c6603c21d9c7833611201565b806110bc57506110bb7f4aa71de0da4208dc9ee441c63978e580c4f1b98782158b74cb390e4e6ce7cdbb33611201565b5b6110fb576040517f08c379a00000000000000000000000000000000000000000000000000000000081526004016110f290613727565b60405180910390fd5b611104336122d8565b600a60003373ffffffffffffffffffffffffffffffffffffffff1673ffffffffffffffffffffffffffffffffffffffff168152602001908152602001600020600201546111519190613590565b905090565b60096020528060005260406000206000915090505481565b7f4aa71de0da4208dc9ee441c63978e580c4f1b98782158b74cb390e4e6ce7cdbb81565b683635c9adc5dea0000081565b60065481565b6201518081565b60008060008373ffffffffffffffffffffffffffffffffffffffff1673ffffffffffffffffffffffffffffffffffffffff168152602001908152602001600020549050919050565b6897c9ce4cf6d5c0000081565b60006005600084815260200190815260200160002060000160008373ffffffffffffffffffffffffffffffffffffffff1673ffffffffffffffffffffffffffffffffffffffff16815260200190815260200160002060009054906101000a900460ff16905092915050565b60606004805461127b90613333565b80601f01602080910402602001604051908101604052809291908181526020018280546112a790613333565b80156112f45780601f106112c9576101008083540402835291602001916112f4565b820191906000526020600020905b8154815290600101906020018083116112d757829003601f168201915b5050505050905090565b6000801b81565b600080611310611c2e565b9050600061131e8286611b13565b905083811015611363576040517f08c379a000000000000000000000000000000000000000000000000000000000815260040161135a906137b9565b60405180910390fd5b6113708286868403611c36565b60019250505092915050565b7f4aa71de0da4208dc9ee441c63978e580c4f1b98782158b74cb390e4e6ce7cdbb6113a681612101565b6000600a60003373ffffffffffffffffffffffffffffffffffffffff1673ffffffffffffffffffffffffffffffffffffffff16815260200190815260200160002060405180608001604052908160008201548152602001600182015481526020016002820154815260200160038201548152505090508281600001511015611463576040517f08c379a000000000000000000000000000000000000000000000000000000000815260040161145a90613825565b60405180910390fd5b600083116114a6576040517f08c379a000000000000000000000000000000000000000000000000000000000815260040161149d90613891565b60405180910390fd5b620151808160200151426114ba91906134ba565b116114fa576040517f08c379a00000000000000000000000000000000000000000000000000000000081526004016114f190613923565b60405180910390fd5b620151806008544261150c91906134ba565b1061151a57611519612376565b5b826007600082825461152c91906134ba565b9250508190555042816020018181525050828160000181815161154f91906134ba565b9150818152505060008160000151036115705761156b33612624565b6115dc565b80600a60003373ffffffffffffffffffffffffffffffffffffffff1673ffffffffffffffffffffffffffffffffffffffff168152602001908152602001600020600082015181600001556020820151816001015560408201518160020155606082015181600301559050505b60003373ffffffffffffffffffffffffffffffffffffffff168460405161160290613974565b60006040518083038185875af1925050503d806000811461163f576040519150601f19603f3d011682016040523d82523d6000602084013e611644565b606091505b5050905080611688576040517f08c379a000000000000000000000000000000000000000000000000000000000815260040161167f906139d5565b60405180910390fd5b7f0bc2b1abf173ed55b6a5f40d2d11bfb3fae4ea9344424e6283a0a51df4df061384336040516116b99291906136b2565b60405180910390a150505050565b6000806116d2611c2e565b90506116df818585611e8b565b600191505092915050565b6000341161172d576040517f08c379a000000000000000000000000000000000000000000000000000000000815260040161172490613a67565b60405180910390fd5b6000600a60003373ffffffffffffffffffffffffffffffffffffffff1673ffffffffffffffffffffffffffffffffffffffff1681526020019081526020016000206040518060800160405290816000820154815260200160018201548152602001600282015481526020016003820154815250509050620151808160200151426117b791906134ba565b10156117f8576040517f08c379a00000000000000000000000000000000000000000000000000000000081526004016117ef90613af9565b60405180910390fd5b683635c9adc5dea00000346007546118109190613590565b1115611851576040517f08c379a000000000000000000000000000000000000000000000000000000000815260040161184890613b8b565b60405180910390fd5b61187b7f4aa71de0da4208dc9ee441c63978e580c4f1b98782158b74cb390e4e6ce7cdbb33611201565b611988573073ffffffffffffffffffffffffffffffffffffffff16632f2ff15d7f4aa71de0da4208dc9ee441c63978e580c4f1b98782158b74cb390e4e6ce7cdbb336040518363ffffffff1660e01b81526004016118da929190613462565b600060405180830381600087803b1580156118f457600080fd5b505af1158015611908573d6000803e3d6000fd5b505050506006600081548092919061191f90613bab565b9190505550600b339080600181540180825580915050600190039060005260206000200160009091909190916101000a81548173ffffffffffffffffffffffffffffffffffffffff021916908373ffffffffffffffffffffffffffffffffffffffff1602179055505b348160000181815161199a9190613590565b9150818152505062015180600854426119b391906134ba565b101580156119c45750600060075414155b156119d2576119d1612376565b5b34600760008282546119e49190613590565b9250508190555042816020018181525050428160600181815250504260088190555080600a60003373ffffffffffffffffffffffffffffffffffffffff1673ffffffffffffffffffffffffffffffffffffffff168152602001908152602001600020600082015181600001556020820151816001015560408201518160020155606082015181600301559050507fc326174cee472d31899b67138306f42d962c29e4877d73a5ce0e6df8420ff1f03433604051611aa29291906136b2565b60405180910390a150565b60085481565b600b8181548110611ac357600080fd5b906000526020600020016000915054906101000a900473ffffffffffffffffffffffffffffffffffffffff1681565b611afb82610a4b565b611b0481612101565b611b0e83836121f6565b505050565b6000600160008473ffffffffffffffffffffffffffffffffffffffff1673ffffffffffffffffffffffffffffffffffffffff16815260200190815260200160002060008373ffffffffffffffffffffffffffffffffffffffff1673ffffffffffffffffffffffffffffffffffffffff16815260200190815260200160002054905092915050565b7f11a8cb5a02bd6c42679835e867ef2118ba78f088f8300511420c6603c21d9c7881565b60075481565b60007f01ffc9a7000000000000000000000000000000000000000000000000000000007bffffffffffffffffffffffffffffffffffffffffffffffffffffffff1916827bffffffffffffffffffffffffffffffffffffffffffffffffffffffff1916149050919050565b600033905090565b600073ffffffffffffffffffffffffffffffffffffffff168373ffffffffffffffffffffffffffffffffffffffff1603611ca5576040517f08c379a0000000000000000000000000000000000000000000000000000000008152600401611c9c90613c65565b60405180910390fd5b600073ffffffffffffffffffffffffffffffffffffffff168273ffffffffffffffffffffffffffffffffffffffff1603611d14576040517f08c379a0000000000000000000000000000000000000000000000000000000008152600401611d0b90613cf7565b60405180910390fd5b80600160008573ffffffffffffffffffffffffffffffffffffffff1673ffffffffffffffffffffffffffffffffffffffff16815260200190815260200160002060008473ffffffffffffffffffffffffffffffffffffffff1673ffffffffffffffffffffffffffffffffffffffff168152602001908152602001600020819055508173ffffffffffffffffffffffffffffffffffffffff168373ffffffffffffffffffffffffffffffffffffffff167f8c5be1e5ebec7d5bd14f71427d1e84f3dd0314c0f7b2291e5b200ac8c7c3b92583604051611df29190613089565b60405180910390a3505050565b6000611e0b8484611b13565b90507fffffffffffffffffffffffffffffffffffffffffffffffffffffffffffffffff8114611e855781811015611e77576040517f08c379a0000000000000000000000000000000000000000000000000000000008152600401611e6e90613d63565b60405180910390fd5b611e848484848403611c36565b5b50505050565b600073ffffffffffffffffffffffffffffffffffffffff168373ffffffffffffffffffffffffffffffffffffffff1603611efa576040517f08c379a0000000000000000000000000000000000000000000000000000000008152600401611ef190613df5565b60405180910390fd5b600073ffffffffffffffffffffffffffffffffffffffff168273ffffffffffffffffffffffffffffffffffffffff1603611f69576040517f08c379a0000000000000000000000000000000000000000000000000000000008152600401611f6090613e87565b60405180910390fd5b611f74838383612b3c565b60008060008573ffffffffffffffffffffffffffffffffffffffff1673ffffffffffffffffffffffffffffffffffffffff16815260200190815260200160002054905081811015611ffa576040517f08c379a0000000000000000000000000000000000000000000000000000000008152600401611ff190613f19565b60405180910390fd5b8181036000808673ffffffffffffffffffffffffffffffffffffffff1673ffffffffffffffffffffffffffffffffffffffff16815260200190815260200160002081905550816000808573ffffffffffffffffffffffffffffffffffffffff1673ffffffffffffffffffffffffffffffffffffffff168152602001908152602001600020600082825401925050819055508273ffffffffffffffffffffffffffffffffffffffff168473ffffffffffffffffffffffffffffffffffffffff167fddf252ad1be2c89b69c2b068fc378daa952ba7f163c4a11628f55a4df523b3ef846040516120e89190613089565b60405180910390a36120fb848484612b41565b50505050565b6121128161210d611c2e565b612b46565b50565b61211f8282611201565b6121f25760016005600084815260200190815260200160002060000160008373ffffffffffffffffffffffffffffffffffffffff1673ffffffffffffffffffffffffffffffffffffffff16815260200190815260200160002060006101000a81548160ff021916908315150217905550612197611c2e565b73ffffffffffffffffffffffffffffffffffffffff168173ffffffffffffffffffffffffffffffffffffffff16837f2f8788117e7eff1d82e926ec794901d17c78024a50270940304540a733656f0d60405160405180910390a45b5050565b6122008282611201565b156122d45760006005600084815260200190815260200160002060000160008373ffffffffffffffffffffffffffffffffffffffff1673ffffffffffffffffffffffffffffffffffffffff16815260200190815260200160002060006101000a81548160ff021916908315150217905550612279611c2e565b73ffffffffffffffffffffffffffffffffffffffff168173ffffffffffffffffffffffffffffffffffffffff16837ff6391f5c32d9c69d2a47ea670b442974b53935d1edc7fd64eb21e047a839171b60405160405180910390a45b5050565b600080600062015180600854426122ef91906134ba565b6122f9919061351d565b9050600754816897c9ce4cf6d5c00000600a60008873ffffffffffffffffffffffffffffffffffffffff1673ffffffffffffffffffffffffffffffffffffffff16815260200190815260200160002060000154612356919061354e565b612360919061354e565b61236a919061351d565b91508192505050919050565b6000620151806008544261238a91906134ba565b612394919061351d565b905060005b60065481101561262057600854600a6000600b84815481106123be576123bd613f39565b5b9060005260206000200160009054906101000a900473ffffffffffffffffffffffffffffffffffffffff1673ffffffffffffffffffffffffffffffffffffffff1673ffffffffffffffffffffffffffffffffffffffff1681526020019081526020016000206003015411156124ca5762015180600a6000600b848154811061244957612448613f39565b5b9060005260206000200160009054906101000a900473ffffffffffffffffffffffffffffffffffffffff1673ffffffffffffffffffffffffffffffffffffffff1673ffffffffffffffffffffffffffffffffffffffff16815260200190815260200160002060030154426124bd91906134ba565b6124c7919061351d565b91505b600754826897c9ce4cf6d5c00000600a6000600b86815481106124f0576124ef613f39565b5b9060005260206000200160009054906101000a900473ffffffffffffffffffffffffffffffffffffffff1673ffffffffffffffffffffffffffffffffffffffff1673ffffffffffffffffffffffffffffffffffffffff16815260200190815260200160002060000154612563919061354e565b61256d919061354e565b612577919061351d565b600a6000600b848154811061258f5761258e613f39565b5b9060005260206000200160009054906101000a900473ffffffffffffffffffffffffffffffffffffffff1673ffffffffffffffffffffffffffffffffffffffff1673ffffffffffffffffffffffffffffffffffffffff16815260200190815260200160002060020160008282546126069190613590565b92505081905550808061261890613bab565b915050612399565b5050565b6000805b6006548110156126be578273ffffffffffffffffffffffffffffffffffffffff16600b828154811061265d5761265c613f39565b5b9060005260206000200160009054906101000a900473ffffffffffffffffffffffffffffffffffffffff1673ffffffffffffffffffffffffffffffffffffffff16036126ab578091506126be565b80806126b690613bab565b915050612628565b503073ffffffffffffffffffffffffffffffffffffffff1663d547741f7f4aa71de0da4208dc9ee441c63978e580c4f1b98782158b74cb390e4e6ce7cdbb600b84815481106127105761270f613f39565b5b9060005260206000200160009054906101000a900473ffffffffffffffffffffffffffffffffffffffff166040518363ffffffff1660e01b8152600401612758929190613462565b600060405180830381600087803b15801561277257600080fd5b505af1158015612786573d6000803e3d6000fd5b505050506000600a6000600b84815481106127a4576127a3613f39565b5b9060005260206000200160009054906101000a900473ffffffffffffffffffffffffffffffffffffffff1673ffffffffffffffffffffffffffffffffffffffff1673ffffffffffffffffffffffffffffffffffffffff1681526020019081526020016000206002015490506000811115612928578060096000600b858154811061283157612830613f39565b5b9060005260206000200160009054906101000a900473ffffffffffffffffffffffffffffffffffffffff1673ffffffffffffffffffffffffffffffffffffffff1673ffffffffffffffffffffffffffffffffffffffff168152602001908152602001600020819055503073ffffffffffffffffffffffffffffffffffffffff16632f2ff15d7f11a8cb5a02bd6c42679835e867ef2118ba78f088f8300511420c6603c21d9c78856040518363ffffffff1660e01b81526004016128f5929190613462565b600060405180830381600087803b15801561290f57600080fd5b505af1158015612923573d6000803e3d6000fd5b505050505b600160065461293791906134ba565b8214612a7157600a6000600b600160065461295291906134ba565b8154811061296357612962613f39565b5b9060005260206000200160009054906101000a900473ffffffffffffffffffffffffffffffffffffffff1673ffffffffffffffffffffffffffffffffffffffff1673ffffffffffffffffffffffffffffffffffffffff168152602001908152602001600020600a6000600b85815481106129e0576129df613f39565b5b9060005260206000200160009054906101000a900473ffffffffffffffffffffffffffffffffffffffff1673ffffffffffffffffffffffffffffffffffffffff1673ffffffffffffffffffffffffffffffffffffffff168152602001908152602001600020600082015481600001556001820154816001015560028201548160020155600382015481600301559050505b600a6000600b6001600654612a8691906134ba565b81548110612a9757612a96613f39565b5b9060005260206000200160009054906101000a900473ffffffffffffffffffffffffffffffffffffffff1673ffffffffffffffffffffffffffffffffffffffff1673ffffffffffffffffffffffffffffffffffffffff168152602001908152602001600020600080820160009055600182016000905560028201600090556003820160009055505060066000815480929190612b3290613f68565b9190505550505050565b505050565b505050565b612b508282611201565b612bc757612b5d81612bcb565b612b6b8360001c6020612bf8565b604051602001612b7c929190614065565b6040516020818303038152906040526040517f08c379a0000000000000000000000000000000000000000000000000000000008152600401612bbe9190612f84565b60405180910390fd5b5050565b6060612bf18273ffffffffffffffffffffffffffffffffffffffff16601460ff16612bf8565b9050919050565b606060006002836002612c0b919061354e565b612c159190613590565b67ffffffffffffffff811115612c2e57612c2d61409f565b5b6040519080825280601f01601f191660200182016040528015612c605781602001600182028036833780820191505090505b5090507f300000000000000000000000000000000000000000000000000000000000000081600081518110612c9857612c97613f39565b5b60200101907effffffffffffffffffffffffffffffffffffffffffffffffffffffffffffff1916908160001a9053507f780000000000000000000000000000000000000000000000000000000000000081600181518110612cfc57612cfb613f39565b5b60200101907effffffffffffffffffffffffffffffffffffffffffffffffffffffffffffff1916908160001a90535060006001846002612d3c919061354e565b612d469190613590565b90505b6001811115612de6577f3031323334353637383961626364656600000000000000000000000000000000600f861660108110612d8857612d87613f39565b5b1a60f81b828281518110612d9f57612d9e613f39565b5b60200101907effffffffffffffffffffffffffffffffffffffffffffffffffffffffffffff1916908160001a905350600485901c945080612ddf90613f68565b9050612d49565b5060008414612e2a576040517f08c379a0000000000000000000000000000000000000000000000000000000008152600401612e219061411a565b60405180910390fd5b8091505092915050565b600080fd5b60007fffffffff0000000000000000000000000000000000000000000000000000000082169050919050565b612e6e81612e39565b8114612e7957600080fd5b50565b600081359050612e8b81612e65565b92915050565b600060208284031215612ea757612ea6612e34565b5b6000612eb584828501612e7c565b91505092915050565b60008115159050919050565b612ed381612ebe565b82525050565b6000602082019050612eee6000830184612eca565b92915050565b600081519050919050565b600082825260208201905092915050565b60005b83811015612f2e578082015181840152602081019050612f13565b60008484015250505050565b6000601f19601f8301169050919050565b6000612f5682612ef4565b612f608185612eff565b9350612f70818560208601612f10565b612f7981612f3a565b840191505092915050565b60006020820190508181036000830152612f9e8184612f4b565b905092915050565b600073ffffffffffffffffffffffffffffffffffffffff82169050919050565b6000612fd182612fa6565b9050919050565b612fe181612fc6565b8114612fec57600080fd5b50565b600081359050612ffe81612fd8565b92915050565b6000819050919050565b61301781613004565b811461302257600080fd5b50565b6000813590506130348161300e565b92915050565b6000806040838503121561305157613050612e34565b5b600061305f85828601612fef565b925050602061307085828601613025565b9150509250929050565b61308381613004565b82525050565b600060208201905061309e600083018461307a565b92915050565b6000602082840312156130ba576130b9612e34565b5b60006130c884828501612fef565b91505092915050565b60006080820190506130e6600083018761307a565b6130f3602083018661307a565b613100604083018561307a565b61310d606083018461307a565b95945050505050565b60008060006060848603121561312f5761312e612e34565b5b600061313d86828701612fef565b935050602061314e86828701612fef565b925050604061315f86828701613025565b9150509250925092565b6000819050919050565b61317c81613169565b811461318757600080fd5b50565b60008135905061319981613173565b92915050565b6000602082840312156131b5576131b4612e34565b5b60006131c38482850161318a565b91505092915050565b6131d581613169565b82525050565b60006020820190506131f060008301846131cc565b92915050565b6000806040838503121561320d5761320c612e34565b5b600061321b8582860161318a565b925050602061322c85828601612fef565b9150509250929050565b600060ff82169050919050565b61324c81613236565b82525050565b60006020820190506132676000830184613243565b92915050565b60006020828403121561328357613282612e34565b5b600061329184828501613025565b91505092915050565b6132a381612fc6565b82525050565b60006020820190506132be600083018461329a565b92915050565b600080604083850312156132db576132da612e34565b5b60006132e985828601612fef565b92505060206132fa85828601612fef565b9150509250929050565b7f4e487b7100000000000000000000000000000000000000000000000000000000600052602260045260246000fd5b6000600282049050600182168061334b57607f821691505b60208210810361335e5761335d613304565b5b50919050565b7f416363657373436f6e74726f6c3a2063616e206f6e6c792072656e6f756e636560008201527f20726f6c657320666f722073656c660000000000000000000000000000000000602082015250565b60006133c0602f83612eff565b91506133cb82613364565b604082019050919050565b600060208201905081810360008301526133ef816133b3565b9050919050565b7f4e6f7420656c696769626c6520746f20636c61696d2072657761726473210000600082015250565b600061342c601e83612eff565b9150613437826133f6565b602082019050919050565b6000602082019050818103600083015261345b8161341f565b9050919050565b600060408201905061347760008301856131cc565b613484602083018461329a565b9392505050565b7f4e487b7100000000000000000000000000000000000000000000000000000000600052601160045260246000fd5b60006134c582613004565b91506134d083613004565b92508282039050818111156134e8576134e761348b565b5b92915050565b7f4e487b7100000000000000000000000000000000000000000000000000000000600052601260045260246000fd5b600061352882613004565b915061353383613004565b925082613543576135426134ee565b5b828204905092915050565b600061355982613004565b915061356483613004565b925082820261357281613004565b915082820484148315176135895761358861348b565b5b5092915050565b600061359b82613004565b91506135a683613004565b92508282019050808211156135be576135bd61348b565b5b92915050565b7f4e6f207265776172647320746f20636c61696d21000000000000000000000000600082015250565b60006135fa601483612eff565b9150613605826135c4565b602082019050919050565b60006020820190508181036000830152613629816135ed565b9050919050565b6000604082019050613645600083018561329a565b613652602083018461307a565b9392505050565b61366281612ebe565b811461366d57600080fd5b50565b60008151905061367f81613659565b92915050565b60006020828403121561369b5761369a612e34565b5b60006136a984828501613670565b91505092915050565b60006040820190506136c7600083018561307a565b6136d4602083018461329a565b9392505050565b7f4e6f7420656c696769626c6520746f2076696577207265776172647321000000600082015250565b6000613711601d83612eff565b915061371c826136db565b602082019050919050565b6000602082019050818103600083015261374081613704565b9050919050565b7f45524332303a2064656372656173656420616c6c6f77616e63652062656c6f7760008201527f207a65726f000000000000000000000000000000000000000000000000000000602082015250565b60006137a3602583612eff565b91506137ae82613747565b604082019050919050565b600060208201905081810360008301526137d281613796565b9050919050565b7f496e737566696369656e742062616c616e636521000000000000000000000000600082015250565b600061380f601483612eff565b915061381a826137d9565b602082019050919050565b6000602082019050818103600083015261383e81613802565b9050919050565b7f4e6f7468696e6720746f20756e7374616b652100000000000000000000000000600082015250565b600061387b601383612eff565b915061388682613845565b602082019050919050565b600060208201905081810360008301526138aa8161386e565b9050919050565b7f596f75206861766520746f2077616974203120646179206265666f726520796f60008201527f752063616e20756e7374616b6521000000000000000000000000000000000000602082015250565b600061390d602e83612eff565b9150613918826138b1565b604082019050919050565b6000602082019050818103600083015261393c81613900565b9050919050565b600081905092915050565b50565b600061395e600083613943565b91506139698261394e565b600082019050919050565b600061397f82613951565b9150819050919050565b7f5061796d656e74206661696c6564210000000000000000000000000000000000600082015250565b60006139bf600f83612eff565b91506139ca82613989565b602082019050919050565b600060208201905081810360008301526139ee816139b2565b9050919050565b7f5468652076616c7565206d757374206265206120706f736974697665206e756d60008201527f6265722100000000000000000000000000000000000000000000000000000000602082015250565b6000613a51602483612eff565b9150613a5c826139f5565b604082019050919050565b60006020820190508181036000830152613a8081613a44565b9050919050565b7f596f75206861766520746f2077616974203120646179206265666f726520796f60008201527f752063616e207374616b65210000000000000000000000000000000000000000602082015250565b6000613ae3602c83612eff565b9150613aee82613a87565b604082019050919050565b60006020820190508181036000830152613b1281613ad6565b9050919050565b7f546865206d6178696d756d207374616b656420616d6f756e742068617320626560008201527f656e206578656564656421000000000000000000000000000000000000000000602082015250565b6000613b75602b83612eff565b9150613b8082613b19565b604082019050919050565b60006020820190508181036000830152613ba481613b68565b9050919050565b6000613bb682613004565b91507fffffffffffffffffffffffffffffffffffffffffffffffffffffffffffffffff8203613be857613be761348b565b5b600182019050919050565b7f45524332303a20617070726f76652066726f6d20746865207a65726f2061646460008201527f7265737300000000000000000000000000000000000000000000000000000000602082015250565b6000613c4f602483612eff565b9150613c5a82613bf3565b604082019050919050565b60006020820190508181036000830152613c7e81613c42565b9050919050565b7f45524332303a20617070726f766520746f20746865207a65726f20616464726560008201527f7373000000000000000000000000000000000000000000000000000000000000602082015250565b6000613ce1602283612eff565b9150613cec82613c85565b604082019050919050565b60006020820190508181036000830152613d1081613cd4565b9050919050565b7f45524332303a20696e73756666696369656e7420616c6c6f77616e6365000000600082015250565b6000613d4d601d83612eff565b9150613d5882613d17565b602082019050919050565b60006020820190508181036000830152613d7c81613d40565b9050919050565b7f45524332303a207472616e736665722066726f6d20746865207a65726f20616460008201527f6472657373000000000000000000000000000000000000000000000000000000602082015250565b6000613ddf602583612eff565b9150613dea82613d83565b604082019050919050565b60006020820190508181036000830152613e0e81613dd2565b9050919050565b7f45524332303a207472616e7366657220746f20746865207a65726f206164647260008201527f6573730000000000000000000000000000000000000000000000000000000000602082015250565b6000613e71602383612eff565b9150613e7c82613e15565b604082019050919050565b60006020820190508181036000830152613ea081613e64565b9050919050565b7f45524332303a207472616e7366657220616d6f756e742065786365656473206260008201527f616c616e63650000000000000000000000000000000000000000000000000000602082015250565b6000613f03602683612eff565b9150613f0e82613ea7565b604082019050919050565b60006020820190508181036000830152613f3281613ef6565b9050919050565b7f4e487b7100000000000000000000000000000000000000000000000000000000600052603260045260246000fd5b6000613f7382613004565b915060008203613f8657613f8561348b565b5b600182039050919050565b600081905092915050565b7f416363657373436f6e74726f6c3a206163636f756e7420000000000000000000600082015250565b6000613fd2601783613f91565b9150613fdd82613f9c565b601782019050919050565b6000613ff382612ef4565b613ffd8185613f91565b935061400d818560208601612f10565b80840191505092915050565b7f206973206d697373696e6720726f6c6520000000000000000000000000000000600082015250565b600061404f601183613f91565b915061405a82614019565b601182019050919050565b600061407082613fc5565b915061407c8285613fe8565b915061408782614042565b91506140938284613fe8565b91508190509392505050565b7f4e487b7100000000000000000000000000000000000000000000000000000000600052604160045260246000fd5b7f537472696e67733a20686578206c656e67746820696e73756666696369656e74600082015250565b6000614104602083612eff565b915061410f826140ce565b602082019050919050565b60006020820190508181036000830152614133816140f7565b905091905056fea26469706673582212200cc7bf21d53cf9e1259570ba3b154c78a8a4fe72b6a1cd05f6b556962f50ece264736f6c63430008120033","opcodes":"PUSH1 0x80 PUSH1 0x40 MSTORE CALLVALUE DUP1 ISZERO PUSH3 0x11 JUMPI PUSH1 0x0 DUP1 REVERT JUMPDEST POP PUSH1 0x40 MLOAD PUSH3 0x4B84 CODESIZE SUB DUP1 PUSH3 0x4B84 DUP4 CODECOPY DUP2 DUP2 ADD PUSH1 0x40 MSTORE DUP2 ADD SWAP1 PUSH3 0x37 SWAP2 SWAP1 PUSH3 0x532 JUMP JUMPDEST DUP2 DUP2 DUP2 PUSH1 0x3 SWAP1 DUP2 PUSH3 0x4A SWAP2 SWAP1 PUSH3 0x802 JUMP JUMPDEST POP DUP1 PUSH1 0x4 SWAP1 DUP2 PUSH3 0x5C SWAP2 SWAP1 PUSH3 0x802 JUMP JUMPDEST POP POP POP PUSH3 0x74 PUSH1 0x0 DUP1 SHL CALLER PUSH3 0xAD PUSH1 0x20 SHL PUSH1 0x20 SHR JUMP JUMPDEST PUSH3 0x89 PUSH1 0x0 DUP1 SHL ADDRESS PUSH3 0xAD PUSH1 0x20 SHL PUSH1 0x20 SHR JUMP JUMPDEST PUSH3 0xA5 ADDRESS PUSH10 0xD86ABB23BBEEC2C00000 PUSH3 0xC3 PUSH1 0x20 SHL PUSH1 0x20 SHR JUMP JUMPDEST POP POP PUSH3 0xA04 JUMP JUMPDEST PUSH3 0xBF DUP3 DUP3 PUSH3 0x230 PUSH1 0x20 SHL PUSH1 0x20 SHR JUMP JUMPDEST POP POP JUMP JUMPDEST PUSH1 0x0 PUSH20 0xFFFFFFFFFFFFFFFFFFFFFFFFFFFFFFFFFFFFFFFF AND DUP3 PUSH20 0xFFFFFFFFFFFFFFFFFFFFFFFFFFFFFFFFFFFFFFFF AND SUB PUSH3 0x135 JUMPI PUSH1 0x40 MLOAD PUSH32 0x8C379A000000000000000000000000000000000000000000000000000000000 DUP2 MSTORE PUSH1 0x4 ADD PUSH3 0x12C SWAP1 PUSH3 0x94A JUMP JUMPDEST PUSH1 0x40 MLOAD DUP1 SWAP2 SUB SWAP1 REVERT JUMPDEST PUSH3 0x149 PUSH1 0x0 DUP4 DUP4 PUSH3 0x322 PUSH1 0x20 SHL PUSH1 0x20 SHR JUMP JUMPDEST DUP1 PUSH1 0x2 PUSH1 0x0 DUP3 DUP3 SLOAD PUSH3 0x15D SWAP2 SWAP1 PUSH3 0x99B JUMP JUMPDEST SWAP3 POP POP DUP2 SWAP1 SSTORE POP DUP1 PUSH1 0x0 DUP1 DUP5 PUSH20 0xFFFFFFFFFFFFFFFFFFFFFFFFFFFFFFFFFFFFFFFF AND PUSH20 0xFFFFFFFFFFFFFFFFFFFFFFFFFFFFFFFFFFFFFFFF AND DUP2 MSTORE PUSH1 0x20 ADD SWAP1 DUP2 MSTORE PUSH1 0x20 ADD PUSH1 0x0 KECCAK256 PUSH1 0x0 DUP3 DUP3 SLOAD ADD SWAP3 POP POP DUP2 SWAP1 SSTORE POP DUP2 PUSH20 0xFFFFFFFFFFFFFFFFFFFFFFFFFFFFFFFFFFFFFFFF AND PUSH1 0x0 PUSH20 0xFFFFFFFFFFFFFFFFFFFFFFFFFFFFFFFFFFFFFFFF AND PUSH32 0xDDF252AD1BE2C89B69C2B068FC378DAA952BA7F163C4A11628F55A4DF523B3EF DUP4 PUSH1 0x40 MLOAD PUSH3 0x210 SWAP2 SWAP1 PUSH3 0x9E7 JUMP JUMPDEST PUSH1 0x40 MLOAD DUP1 SWAP2 SUB SWAP1 LOG3 PUSH3 0x22C PUSH1 0x0 DUP4 DUP4 PUSH3 0x327 PUSH1 0x20 SHL PUSH1 0x20 SHR JUMP JUMPDEST POP POP JUMP JUMPDEST PUSH3 0x242 DUP3 DUP3 PUSH3 0x32C PUSH1 0x20 SHL PUSH1 0x20 SHR JUMP JUMPDEST PUSH3 0x31E JUMPI PUSH1 0x1 PUSH1 0x5 PUSH1 0x0 DUP5 DUP2 MSTORE PUSH1 0x20 ADD SWAP1 DUP2 MSTORE PUSH1 0x20 ADD PUSH1 0x0 KECCAK256 PUSH1 0x0 ADD PUSH1 0x0 DUP4 PUSH20 0xFFFFFFFFFFFFFFFFFFFFFFFFFFFFFFFFFFFFFFFF AND PUSH20 0xFFFFFFFFFFFFFFFFFFFFFFFFFFFFFFFFFFFFFFFF AND DUP2 MSTORE PUSH1 0x20 ADD SWAP1 DUP2 MSTORE PUSH1 0x20 ADD PUSH1 0x0 KECCAK256 PUSH1 0x0 PUSH2 0x100 EXP DUP2 SLOAD DUP2 PUSH1 0xFF MUL NOT AND SWAP1 DUP4 ISZERO ISZERO MUL OR SWAP1 SSTORE POP PUSH3 0x2C3 PUSH3 0x397 PUSH1 0x20 SHL PUSH1 0x20 SHR JUMP JUMPDEST PUSH20 0xFFFFFFFFFFFFFFFFFFFFFFFFFFFFFFFFFFFFFFFF AND DUP2 PUSH20 0xFFFFFFFFFFFFFFFFFFFFFFFFFFFFFFFFFFFFFFFF AND DUP4 PUSH32 0x2F8788117E7EFF1D82E926EC794901D17C78024A50270940304540A733656F0D PUSH1 0x40 MLOAD PUSH1 0x40 MLOAD DUP1 SWAP2 SUB SWAP1 LOG4 JUMPDEST POP POP JUMP JUMPDEST POP POP POP JUMP JUMPDEST POP POP POP JUMP JUMPDEST PUSH1 0x0 PUSH1 0x5 PUSH1 0x0 DUP5 DUP2 MSTORE PUSH1 0x20 ADD SWAP1 DUP2 MSTORE PUSH1 0x20 ADD PUSH1 0x0 KECCAK256 PUSH1 0x0 ADD PUSH1 0x0 DUP4 PUSH20 0xFFFFFFFFFFFFFFFFFFFFFFFFFFFFFFFFFFFFFFFF AND PUSH20 0xFFFFFFFFFFFFFFFFFFFFFFFFFFFFFFFFFFFFFFFF AND DUP2 MSTORE PUSH1 0x20 ADD SWAP1 DUP2 MSTORE PUSH1 0x20 ADD PUSH1 0x0 KECCAK256 PUSH1 0x0 SWAP1 SLOAD SWAP1 PUSH2 0x100 EXP SWAP1 DIV PUSH1 0xFF AND SWAP1 POP SWAP3 SWAP2 POP POP JUMP JUMPDEST PUSH1 0x0 CALLER SWAP1 POP SWAP1 JUMP JUMPDEST PUSH1 0x0 PUSH1 0x40 MLOAD SWAP1 POP SWAP1 JUMP JUMPDEST PUSH1 0x0 DUP1 REVERT JUMPDEST PUSH1 0x0 DUP1 REVERT JUMPDEST PUSH1 0x0 DUP1 REVERT JUMPDEST PUSH1 0x0 DUP1 REVERT JUMPDEST PUSH1 0x0 PUSH1 0x1F NOT PUSH1 0x1F DUP4 ADD AND SWAP1 POP SWAP2 SWAP1 POP JUMP JUMPDEST PUSH32 0x4E487B7100000000000000000000000000000000000000000000000000000000 PUSH1 0x0 MSTORE PUSH1 0x41 PUSH1 0x4 MSTORE PUSH1 0x24 PUSH1 0x0 REVERT JUMPDEST PUSH3 0x408 DUP3 PUSH3 0x3BD JUMP JUMPDEST DUP2 ADD DUP2 DUP2 LT PUSH8 0xFFFFFFFFFFFFFFFF DUP3 GT OR ISZERO PUSH3 0x42A JUMPI PUSH3 0x429 PUSH3 0x3CE JUMP JUMPDEST JUMPDEST DUP1 PUSH1 0x40 MSTORE POP POP POP JUMP JUMPDEST PUSH1 0x0 PUSH3 0x43F PUSH3 0x39F JUMP JUMPDEST SWAP1 POP PUSH3 0x44D DUP3 DUP3 PUSH3 0x3FD JUMP JUMPDEST SWAP2 SWAP1 POP JUMP JUMPDEST PUSH1 0x0 PUSH8 0xFFFFFFFFFFFFFFFF DUP3 GT ISZERO PUSH3 0x470 JUMPI PUSH3 0x46F PUSH3 0x3CE JUMP JUMPDEST JUMPDEST PUSH3 0x47B DUP3 PUSH3 0x3BD JUMP JUMPDEST SWAP1 POP PUSH1 0x20 DUP2 ADD SWAP1 POP SWAP2 SWAP1 POP JUMP JUMPDEST PUSH1 0x0 JUMPDEST DUP4 DUP2 LT ISZERO PUSH3 0x4A8 JUMPI DUP1 DUP3 ADD MLOAD DUP2 DUP5 ADD MSTORE PUSH1 0x20 DUP2 ADD SWAP1 POP PUSH3 0x48B JUMP JUMPDEST PUSH1 0x0 DUP5 DUP5 ADD MSTORE POP POP POP POP JUMP JUMPDEST PUSH1 0x0 PUSH3 0x4CB PUSH3 0x4C5 DUP5 PUSH3 0x452 JUMP JUMPDEST PUSH3 0x433 JUMP JUMPDEST SWAP1 POP DUP3 DUP2 MSTORE PUSH1 0x20 DUP2 ADD DUP5 DUP5 DUP5 ADD GT ISZERO PUSH3 0x4EA JUMPI PUSH3 0x4E9 PUSH3 0x3B8 JUMP JUMPDEST JUMPDEST PUSH3 0x4F7 DUP5 DUP3 DUP6 PUSH3 0x488 JUMP JUMPDEST POP SWAP4 SWAP3 POP POP POP JUMP JUMPDEST PUSH1 0x0 DUP3 PUSH1 0x1F DUP4 ADD SLT PUSH3 0x517 JUMPI PUSH3 0x516 PUSH3 0x3B3 JUMP JUMPDEST JUMPDEST DUP2 MLOAD PUSH3 0x529 DUP5 DUP3 PUSH1 0x20 DUP7 ADD PUSH3 0x4B4 JUMP JUMPDEST SWAP2 POP POP SWAP3 SWAP2 POP POP JUMP JUMPDEST PUSH1 0x0 DUP1 PUSH1 0x40 DUP4 DUP6 SUB SLT ISZERO PUSH3 0x54C JUMPI PUSH3 0x54B PUSH3 0x3A9 JUMP JUMPDEST JUMPDEST PUSH1 0x0 DUP4 ADD MLOAD PUSH8 0xFFFFFFFFFFFFFFFF DUP2 GT ISZERO PUSH3 0x56D JUMPI PUSH3 0x56C PUSH3 0x3AE JUMP JUMPDEST JUMPDEST PUSH3 0x57B DUP6 DUP3 DUP7 ADD PUSH3 0x4FF JUMP JUMPDEST SWAP3 POP POP PUSH1 0x20 DUP4 ADD MLOAD PUSH8 0xFFFFFFFFFFFFFFFF DUP2 GT ISZERO PUSH3 0x59F JUMPI PUSH3 0x59E PUSH3 0x3AE JUMP JUMPDEST JUMPDEST PUSH3 0x5AD DUP6 DUP3 DUP7 ADD PUSH3 0x4FF JUMP JUMPDEST SWAP2 POP POP SWAP3 POP SWAP3 SWAP1 POP JUMP JUMPDEST PUSH1 0x0 DUP2 MLOAD SWAP1 POP SWAP2 SWAP1 POP JUMP JUMPDEST PUSH32 0x4E487B7100000000000000000000000000000000000000000000000000000000 PUSH1 0x0 MSTORE PUSH1 0x22 PUSH1 0x4 MSTORE PUSH1 0x24 PUSH1 0x0 REVERT JUMPDEST PUSH1 0x0 PUSH1 0x2 DUP3 DIV SWAP1 POP PUSH1 0x1 DUP3 AND DUP1 PUSH3 0x60A JUMPI PUSH1 0x7F DUP3 AND SWAP2 POP JUMPDEST PUSH1 0x20 DUP3 LT DUP2 SUB PUSH3 0x620 JUMPI PUSH3 0x61F PUSH3 0x5C2 JUMP JUMPDEST JUMPDEST POP SWAP2 SWAP1 POP JUMP JUMPDEST PUSH1 0x0 DUP2 SWAP1 POP DUP2 PUSH1 0x0 MSTORE PUSH1 0x20 PUSH1 0x0 KECCAK256 SWAP1 POP SWAP2 SWAP1 POP JUMP JUMPDEST PUSH1 0x0 PUSH1 0x20 PUSH1 0x1F DUP4 ADD DIV SWAP1 POP SWAP2 SWAP1 POP JUMP JUMPDEST PUSH1 0x0 DUP3 DUP3 SHL SWAP1 POP SWAP3 SWAP2 POP POP JUMP JUMPDEST PUSH1 0x0 PUSH1 0x8 DUP4 MUL PUSH3 0x68A PUSH32 0xFFFFFFFFFFFFFFFFFFFFFFFFFFFFFFFFFFFFFFFFFFFFFFFFFFFFFFFFFFFFFFFF DUP3 PUSH3 0x64B JUMP JUMPDEST PUSH3 0x696 DUP7 DUP4 PUSH3 0x64B JUMP JUMPDEST SWAP6 POP DUP1 NOT DUP5 AND SWAP4 POP DUP1 DUP7 AND DUP5 OR SWAP3 POP POP POP SWAP4 SWAP3 POP POP POP JUMP JUMPDEST PUSH1 0x0 DUP2 SWAP1 POP SWAP2 SWAP1 POP JUMP JUMPDEST PUSH1 0x0 DUP2 SWAP1 POP SWAP2 SWAP1 POP JUMP JUMPDEST PUSH1 0x0 PUSH3 0x6E3 PUSH3 0x6DD PUSH3 0x6D7 DUP5 PUSH3 0x6AE JUMP JUMPDEST PUSH3 0x6B8 JUMP JUMPDEST PUSH3 0x6AE JUMP JUMPDEST SWAP1 POP SWAP2 SWAP1 POP JUMP JUMPDEST PUSH1 0x0 DUP2 SWAP1 POP SWAP2 SWAP1 POP JUMP JUMPDEST PUSH3 0x6FF DUP4 PUSH3 0x6C2 JUMP JUMPDEST PUSH3 0x717 PUSH3 0x70E DUP3 PUSH3 0x6EA JUMP JUMPDEST DUP5 DUP5 SLOAD PUSH3 0x658 JUMP JUMPDEST DUP3 SSTORE POP POP POP POP JUMP JUMPDEST PUSH1 0x0 SWAP1 JUMP JUMPDEST PUSH3 0x72E PUSH3 0x71F JUMP JUMPDEST PUSH3 0x73B DUP2 DUP5 DUP5 PUSH3 0x6F4 JUMP JUMPDEST POP POP POP JUMP JUMPDEST JUMPDEST DUP2 DUP2 LT ISZERO PUSH3 0x763 JUMPI PUSH3 0x757 PUSH1 0x0 DUP3 PUSH3 0x724 JUMP JUMPDEST PUSH1 0x1 DUP2 ADD SWAP1 POP PUSH3 0x741 JUMP JUMPDEST POP POP JUMP JUMPDEST PUSH1 0x1F DUP3 GT ISZERO PUSH3 0x7B2 JUMPI PUSH3 0x77C DUP2 PUSH3 0x626 JUMP JUMPDEST PUSH3 0x787 DUP5 PUSH3 0x63B JUMP JUMPDEST DUP2 ADD PUSH1 0x20 DUP6 LT ISZERO PUSH3 0x797 JUMPI DUP2 SWAP1 POP JUMPDEST PUSH3 0x7AF PUSH3 0x7A6 DUP6 PUSH3 0x63B JUMP JUMPDEST DUP4 ADD DUP3 PUSH3 0x740 JUMP JUMPDEST POP POP JUMPDEST POP POP POP JUMP JUMPDEST PUSH1 0x0 DUP3 DUP3 SHR SWAP1 POP SWAP3 SWAP2 POP POP JUMP JUMPDEST PUSH1 0x0 PUSH3 0x7D7 PUSH1 0x0 NOT DUP5 PUSH1 0x8 MUL PUSH3 0x7B7 JUMP JUMPDEST NOT DUP1 DUP4 AND SWAP2 POP POP SWAP3 SWAP2 POP POP JUMP JUMPDEST PUSH1 0x0 PUSH3 0x7F2 DUP4 DUP4 PUSH3 0x7C4 JUMP JUMPDEST SWAP2 POP DUP3 PUSH1 0x2 MUL DUP3 OR SWAP1 POP SWAP3 SWAP2 POP POP JUMP JUMPDEST PUSH3 0x80D DUP3 PUSH3 0x5B7 JUMP JUMPDEST PUSH8 0xFFFFFFFFFFFFFFFF DUP2 GT ISZERO PUSH3 0x829 JUMPI PUSH3 0x828 PUSH3 0x3CE JUMP JUMPDEST JUMPDEST PUSH3 0x835 DUP3 SLOAD PUSH3 0x5F1 JUMP JUMPDEST PUSH3 0x842 DUP3 DUP3 DUP6 PUSH3 0x767 JUMP JUMPDEST PUSH1 0x0 PUSH1 0x20 SWAP1 POP PUSH1 0x1F DUP4 GT PUSH1 0x1 DUP2 EQ PUSH3 0x87A JUMPI PUSH1 0x0 DUP5 ISZERO PUSH3 0x865 JUMPI DUP3 DUP8 ADD MLOAD SWAP1 POP JUMPDEST PUSH3 0x871 DUP6 DUP3 PUSH3 0x7E4 JUMP JUMPDEST DUP7 SSTORE POP PUSH3 0x8E1 JUMP JUMPDEST PUSH1 0x1F NOT DUP5 AND PUSH3 0x88A DUP7 PUSH3 0x626 JUMP JUMPDEST PUSH1 0x0 JUMPDEST DUP3 DUP2 LT ISZERO PUSH3 0x8B4 JUMPI DUP5 DUP10 ADD MLOAD DUP3 SSTORE PUSH1 0x1 DUP3 ADD SWAP2 POP PUSH1 0x20 DUP6 ADD SWAP5 POP PUSH1 0x20 DUP2 ADD SWAP1 POP PUSH3 0x88D JUMP JUMPDEST DUP7 DUP4 LT ISZERO PUSH3 0x8D4 JUMPI DUP5 DUP10 ADD MLOAD PUSH3 0x8D0 PUSH1 0x1F DUP10 AND DUP3 PUSH3 0x7C4 JUMP JUMPDEST DUP4 SSTORE POP JUMPDEST PUSH1 0x1 PUSH1 0x2 DUP9 MUL ADD DUP9 SSTORE POP POP POP JUMPDEST POP POP POP POP POP POP JUMP JUMPDEST PUSH1 0x0 DUP3 DUP3 MSTORE PUSH1 0x20 DUP3 ADD SWAP1 POP SWAP3 SWAP2 POP POP JUMP JUMPDEST PUSH32 0x45524332303A206D696E7420746F20746865207A65726F206164647265737300 PUSH1 0x0 DUP3 ADD MSTORE POP JUMP JUMPDEST PUSH1 0x0 PUSH3 0x932 PUSH1 0x1F DUP4 PUSH3 0x8E9 JUMP JUMPDEST SWAP2 POP PUSH3 0x93F DUP3 PUSH3 0x8FA JUMP JUMPDEST PUSH1 0x20 DUP3 ADD SWAP1 POP SWAP2 SWAP1 POP JUMP JUMPDEST PUSH1 0x0 PUSH1 0x20 DUP3 ADD SWAP1 POP DUP2 DUP2 SUB PUSH1 0x0 DUP4 ADD MSTORE PUSH3 0x965 DUP2 PUSH3 0x923 JUMP JUMPDEST SWAP1 POP SWAP2 SWAP1 POP JUMP JUMPDEST PUSH32 0x4E487B7100000000000000000000000000000000000000000000000000000000 PUSH1 0x0 MSTORE PUSH1 0x11 PUSH1 0x4 MSTORE PUSH1 0x24 PUSH1 0x0 REVERT JUMPDEST PUSH1 0x0 PUSH3 0x9A8 DUP3 PUSH3 0x6AE JUMP JUMPDEST SWAP2 POP PUSH3 0x9B5 DUP4 PUSH3 0x6AE JUMP JUMPDEST SWAP3 POP DUP3 DUP3 ADD SWAP1 POP DUP1 DUP3 GT ISZERO PUSH3 0x9D0 JUMPI PUSH3 0x9CF PUSH3 0x96C JUMP JUMPDEST JUMPDEST SWAP3 SWAP2 POP POP JUMP JUMPDEST PUSH3 0x9E1 DUP2 PUSH3 0x6AE JUMP JUMPDEST DUP3 MSTORE POP POP JUMP JUMPDEST PUSH1 0x0 PUSH1 0x20 DUP3 ADD SWAP1 POP PUSH3 0x9FE PUSH1 0x0 DUP4 ADD DUP5 PUSH3 0x9D6 JUMP JUMPDEST SWAP3 SWAP2 POP POP JUMP JUMPDEST PUSH2 0x4170 DUP1 PUSH3 0xA14 PUSH1 0x0 CODECOPY PUSH1 0x0 RETURN INVALID PUSH1 0x80 PUSH1 0x40 MSTORE PUSH1 0x4 CALLDATASIZE LT PUSH2 0x208 JUMPI PUSH1 0x0 CALLDATALOAD PUSH1 0xE0 SHR DUP1 PUSH4 0x5D80CA32 GT PUSH2 0x118 JUMPI DUP1 PUSH4 0xA56CEDB6 GT PUSH2 0xA0 JUMPI DUP1 PUSH4 0xC37DFD6E GT PUSH2 0x6F JUMPI DUP1 PUSH4 0xC37DFD6E EQ PUSH2 0x7AC JUMPI DUP1 PUSH4 0xD547741F EQ PUSH2 0x7E9 JUMPI DUP1 PUSH4 0xDD62ED3E EQ PUSH2 0x812 JUMPI DUP1 PUSH4 0xFC5F18D3 EQ PUSH2 0x84F JUMPI DUP1 PUSH4 0xFE961F61 EQ PUSH2 0x87A JUMPI PUSH2 0x20F JUMP JUMPDEST DUP1 PUSH4 0xA56CEDB6 EQ PUSH2 0x711 JUMPI DUP1 PUSH4 0xA9059CBB EQ PUSH2 0x73A JUMPI DUP1 PUSH4 0xC01D4DFB EQ PUSH2 0x777 JUMPI DUP1 PUSH4 0xC0463711 EQ PUSH2 0x781 JUMPI PUSH2 0x20F JUMP JUMPDEST DUP1 PUSH4 0x76DC7440 GT PUSH2 0xE7 JUMPI DUP1 PUSH4 0x76DC7440 EQ PUSH2 0x616 JUMPI DUP1 PUSH4 0x91D14854 EQ PUSH2 0x641 JUMPI DUP1 PUSH4 0x95D89B41 EQ PUSH2 0x67E JUMPI DUP1 PUSH4 0xA217FDDF EQ PUSH2 0x6A9 JUMPI DUP1 PUSH4 0xA457C2D7 EQ PUSH2 0x6D4 JUMPI PUSH2 0x20F JUMP JUMPDEST DUP1 PUSH4 0x5D80CA32 EQ PUSH2 0x558 JUMPI DUP1 PUSH4 0x5EABF577 EQ PUSH2 0x583 JUMPI DUP1 PUSH4 0x6A019389 EQ PUSH2 0x5AE JUMPI DUP1 PUSH4 0x70A08231 EQ PUSH2 0x5D9 JUMPI PUSH2 0x20F JUMP JUMPDEST DUP1 PUSH4 0x282C51F3 GT PUSH2 0x19B JUMPI DUP1 PUSH4 0x372500AB GT PUSH2 0x16A JUMPI DUP1 PUSH4 0x372500AB EQ PUSH2 0x471 JUMPI DUP1 PUSH4 0x39509351 EQ PUSH2 0x488 JUMPI DUP1 PUSH4 0x3DFA83B3 EQ PUSH2 0x4C5 JUMPI DUP1 PUSH4 0x4DF9AAB1 EQ PUSH2 0x4F0 JUMPI DUP1 PUSH4 0x59C3191F EQ PUSH2 0x52D JUMPI PUSH2 0x20F JUMP JUMPDEST DUP1 PUSH4 0x282C51F3 EQ PUSH2 0x3C9 JUMPI DUP1 PUSH4 0x2F2FF15D EQ PUSH2 0x3F4 JUMPI DUP1 PUSH4 0x313CE567 EQ PUSH2 0x41D JUMPI DUP1 PUSH4 0x36568ABE EQ PUSH2 0x448 JUMPI PUSH2 0x20F JUMP JUMPDEST DUP1 PUSH4 0x1959A002 GT PUSH2 0x1D7 JUMPI DUP1 PUSH4 0x1959A002 EQ PUSH2 0x2E4 JUMPI DUP1 PUSH4 0x1CA8B6CB EQ PUSH2 0x324 JUMPI DUP1 PUSH4 0x23B872DD EQ PUSH2 0x34F JUMPI DUP1 PUSH4 0x248A9CA3 EQ PUSH2 0x38C JUMPI PUSH2 0x20F JUMP JUMPDEST DUP1 PUSH4 0x1FFC9A7 EQ PUSH2 0x214 JUMPI DUP1 PUSH4 0x6FDDE03 EQ PUSH2 0x251 JUMPI DUP1 PUSH4 0x95EA7B3 EQ PUSH2 0x27C JUMPI DUP1 PUSH4 0x18160DDD EQ PUSH2 0x2B9 JUMPI PUSH2 0x20F JUMP JUMPDEST CALLDATASIZE PUSH2 0x20F JUMPI STOP JUMPDEST PUSH1 0x0 DUP1 REVERT JUMPDEST CALLVALUE DUP1 ISZERO PUSH2 0x220 JUMPI PUSH1 0x0 DUP1 REVERT JUMPDEST POP PUSH2 0x23B PUSH1 0x4 DUP1 CALLDATASIZE SUB DUP2 ADD SWAP1 PUSH2 0x236 SWAP2 SWAP1 PUSH2 0x2E91 JUMP JUMPDEST PUSH2 0x8A5 JUMP JUMPDEST PUSH1 0x40 MLOAD PUSH2 0x248 SWAP2 SWAP1 PUSH2 0x2ED9 JUMP JUMPDEST PUSH1 0x40 MLOAD DUP1 SWAP2 SUB SWAP1 RETURN JUMPDEST CALLVALUE DUP1 ISZERO PUSH2 0x25D JUMPI PUSH1 0x0 DUP1 REVERT JUMPDEST POP PUSH2 0x266 PUSH2 0x91F JUMP JUMPDEST PUSH1 0x40 MLOAD PUSH2 0x273 SWAP2 SWAP1 PUSH2 0x2F84 JUMP JUMPDEST PUSH1 0x40 MLOAD DUP1 SWAP2 SUB SWAP1 RETURN JUMPDEST CALLVALUE DUP1 ISZERO PUSH2 0x288 JUMPI PUSH1 0x0 DUP1 REVERT JUMPDEST POP PUSH2 0x2A3 PUSH1 0x4 DUP1 CALLDATASIZE SUB DUP2 ADD SWAP1 PUSH2 0x29E SWAP2 SWAP1 PUSH2 0x303A JUMP JUMPDEST PUSH2 0x9B1 JUMP JUMPDEST PUSH1 0x40 MLOAD PUSH2 0x2B0 SWAP2 SWAP1 PUSH2 0x2ED9 JUMP JUMPDEST PUSH1 0x40 MLOAD DUP1 SWAP2 SUB SWAP1 RETURN JUMPDEST CALLVALUE DUP1 ISZERO PUSH2 0x2C5 JUMPI PUSH1 0x0 DUP1 REVERT JUMPDEST POP PUSH2 0x2CE PUSH2 0x9D4 JUMP JUMPDEST PUSH1 0x40 MLOAD PUSH2 0x2DB SWAP2 SWAP1 PUSH2 0x3089 JUMP JUMPDEST PUSH1 0x40 MLOAD DUP1 SWAP2 SUB SWAP1 RETURN JUMPDEST CALLVALUE DUP1 ISZERO PUSH2 0x2F0 JUMPI PUSH1 0x0 DUP1 REVERT JUMPDEST POP PUSH2 0x30B PUSH1 0x4 DUP1 CALLDATASIZE SUB DUP2 ADD SWAP1 PUSH2 0x306 SWAP2 SWAP1 PUSH2 0x30A4 JUMP JUMPDEST PUSH2 0x9DE JUMP JUMPDEST PUSH1 0x40 MLOAD PUSH2 0x31B SWAP5 SWAP4 SWAP3 SWAP2 SWAP1 PUSH2 0x30D1 JUMP JUMPDEST PUSH1 0x40 MLOAD DUP1 SWAP2 SUB SWAP1 RETURN JUMPDEST CALLVALUE DUP1 ISZERO PUSH2 0x330 JUMPI PUSH1 0x0 DUP1 REVERT JUMPDEST POP PUSH2 0x339 PUSH2 0xA0E JUMP JUMPDEST PUSH1 0x40 MLOAD PUSH2 0x346 SWAP2 SWAP1 PUSH2 0x3089 JUMP JUMPDEST PUSH1 0x40 MLOAD DUP1 SWAP2 SUB SWAP1 RETURN JUMPDEST CALLVALUE DUP1 ISZERO PUSH2 0x35B JUMPI PUSH1 0x0 DUP1 REVERT JUMPDEST POP PUSH2 0x376 PUSH1 0x4 DUP1 CALLDATASIZE SUB DUP2 ADD SWAP1 PUSH2 0x371 SWAP2 SWAP1 PUSH2 0x3116 JUMP JUMPDEST PUSH2 0xA1C JUMP JUMPDEST PUSH1 0x40 MLOAD PUSH2 0x383 SWAP2 SWAP1 PUSH2 0x2ED9 JUMP JUMPDEST PUSH1 0x40 MLOAD DUP1 SWAP2 SUB SWAP1 RETURN JUMPDEST CALLVALUE DUP1 ISZERO PUSH2 0x398 JUMPI PUSH1 0x0 DUP1 REVERT JUMPDEST POP PUSH2 0x3B3 PUSH1 0x4 DUP1 CALLDATASIZE SUB DUP2 ADD SWAP1 PUSH2 0x3AE SWAP2 SWAP1 PUSH2 0x319F JUMP JUMPDEST PUSH2 0xA4B JUMP JUMPDEST PUSH1 0x40 MLOAD PUSH2 0x3C0 SWAP2 SWAP1 PUSH2 0x31DB JUMP JUMPDEST PUSH1 0x40 MLOAD DUP1 SWAP2 SUB SWAP1 RETURN JUMPDEST CALLVALUE DUP1 ISZERO PUSH2 0x3D5 JUMPI PUSH1 0x0 DUP1 REVERT JUMPDEST POP PUSH2 0x3DE PUSH2 0xA6B JUMP JUMPDEST PUSH1 0x40 MLOAD PUSH2 0x3EB SWAP2 SWAP1 PUSH2 0x31DB JUMP JUMPDEST PUSH1 0x40 MLOAD DUP1 SWAP2 SUB SWAP1 RETURN JUMPDEST CALLVALUE DUP1 ISZERO PUSH2 0x400 JUMPI PUSH1 0x0 DUP1 REVERT JUMPDEST POP PUSH2 0x41B PUSH1 0x4 DUP1 CALLDATASIZE SUB DUP2 ADD SWAP1 PUSH2 0x416 SWAP2 SWAP1 PUSH2 0x31F6 JUMP JUMPDEST PUSH2 0xA8F JUMP JUMPDEST STOP JUMPDEST CALLVALUE DUP1 ISZERO PUSH2 0x429 JUMPI PUSH1 0x0 DUP1 REVERT JUMPDEST POP PUSH2 0x432 PUSH2 0xAB0 JUMP JUMPDEST PUSH1 0x40 MLOAD PUSH2 0x43F SWAP2 SWAP1 PUSH2 0x3252 JUMP JUMPDEST PUSH1 0x40 MLOAD DUP1 SWAP2 SUB SWAP1 RETURN JUMPDEST CALLVALUE DUP1 ISZERO PUSH2 0x454 JUMPI PUSH1 0x0 DUP1 REVERT JUMPDEST POP PUSH2 0x46F PUSH1 0x4 DUP1 CALLDATASIZE SUB DUP2 ADD SWAP1 PUSH2 0x46A SWAP2 SWAP1 PUSH2 0x31F6 JUMP JUMPDEST PUSH2 0xAB9 JUMP JUMPDEST STOP JUMPDEST CALLVALUE DUP1 ISZERO PUSH2 0x47D JUMPI PUSH1 0x0 DUP1 REVERT JUMPDEST POP PUSH2 0x486 PUSH2 0xB3C JUMP JUMPDEST STOP JUMPDEST CALLVALUE DUP1 ISZERO PUSH2 0x494 JUMPI PUSH1 0x0 DUP1 REVERT JUMPDEST POP PUSH2 0x4AF PUSH1 0x4 DUP1 CALLDATASIZE SUB DUP2 ADD SWAP1 PUSH2 0x4AA SWAP2 SWAP1 PUSH2 0x303A JUMP JUMPDEST PUSH2 0x1028 JUMP JUMPDEST PUSH1 0x40 MLOAD PUSH2 0x4BC SWAP2 SWAP1 PUSH2 0x2ED9 JUMP JUMPDEST PUSH1 0x40 MLOAD DUP1 SWAP2 SUB SWAP1 RETURN JUMPDEST CALLVALUE DUP1 ISZERO PUSH2 0x4D1 JUMPI PUSH1 0x0 DUP1 REVERT JUMPDEST POP PUSH2 0x4DA PUSH2 0x105F JUMP JUMPDEST PUSH1 0x40 MLOAD PUSH2 0x4E7 SWAP2 SWAP1 PUSH2 0x3089 JUMP JUMPDEST PUSH1 0x40 MLOAD DUP1 SWAP2 SUB SWAP1 RETURN JUMPDEST CALLVALUE DUP1 ISZERO PUSH2 0x4FC JUMPI PUSH1 0x0 DUP1 REVERT JUMPDEST POP PUSH2 0x517 PUSH1 0x4 DUP1 CALLDATASIZE SUB DUP2 ADD SWAP1 PUSH2 0x512 SWAP2 SWAP1 PUSH2 0x30A4 JUMP JUMPDEST PUSH2 0x1156 JUMP JUMPDEST PUSH1 0x40 MLOAD PUSH2 0x524 SWAP2 SWAP1 PUSH2 0x3089 JUMP JUMPDEST PUSH1 0x40 MLOAD DUP1 SWAP2 SUB SWAP1 RETURN JUMPDEST CALLVALUE DUP1 ISZERO PUSH2 0x539 JUMPI PUSH1 0x0 DUP1 REVERT JUMPDEST POP PUSH2 0x542 PUSH2 0x116E JUMP JUMPDEST PUSH1 0x40 MLOAD PUSH2 0x54F SWAP2 SWAP1 PUSH2 0x31DB JUMP JUMPDEST PUSH1 0x40 MLOAD DUP1 SWAP2 SUB SWAP1 RETURN JUMPDEST CALLVALUE DUP1 ISZERO PUSH2 0x564 JUMPI PUSH1 0x0 DUP1 REVERT JUMPDEST POP PUSH2 0x56D PUSH2 0x1192 JUMP JUMPDEST PUSH1 0x40 MLOAD PUSH2 0x57A SWAP2 SWAP1 PUSH2 0x3089 JUMP JUMPDEST PUSH1 0x40 MLOAD DUP1 SWAP2 SUB SWAP1 RETURN JUMPDEST CALLVALUE DUP1 ISZERO PUSH2 0x58F JUMPI PUSH1 0x0 DUP1 REVERT JUMPDEST POP PUSH2 0x598 PUSH2 0x119F JUMP JUMPDEST PUSH1 0x40 MLOAD PUSH2 0x5A5 SWAP2 SWAP1 PUSH2 0x3089 JUMP JUMPDEST PUSH1 0x40 MLOAD DUP1 SWAP2 SUB SWAP1 RETURN JUMPDEST CALLVALUE DUP1 ISZERO PUSH2 0x5BA JUMPI PUSH1 0x0 DUP1 REVERT JUMPDEST POP PUSH2 0x5C3 PUSH2 0x11A5 JUMP JUMPDEST PUSH1 0x40 MLOAD PUSH2 0x5D0 SWAP2 SWAP1 PUSH2 0x3089 JUMP JUMPDEST PUSH1 0x40 MLOAD DUP1 SWAP2 SUB SWAP1 RETURN JUMPDEST CALLVALUE DUP1 ISZERO PUSH2 0x5E5 JUMPI PUSH1 0x0 DUP1 REVERT JUMPDEST POP PUSH2 0x600 PUSH1 0x4 DUP1 CALLDATASIZE SUB DUP2 ADD SWAP1 PUSH2 0x5FB SWAP2 SWAP1 PUSH2 0x30A4 JUMP JUMPDEST PUSH2 0x11AC JUMP JUMPDEST PUSH1 0x40 MLOAD PUSH2 0x60D SWAP2 SWAP1 PUSH2 0x3089 JUMP JUMPDEST PUSH1 0x40 MLOAD DUP1 SWAP2 SUB SWAP1 RETURN JUMPDEST CALLVALUE DUP1 ISZERO PUSH2 0x622 JUMPI PUSH1 0x0 DUP1 REVERT JUMPDEST POP PUSH2 0x62B PUSH2 0x11F4 JUMP JUMPDEST PUSH1 0x40 MLOAD PUSH2 0x638 SWAP2 SWAP1 PUSH2 0x3089 JUMP JUMPDEST PUSH1 0x40 MLOAD DUP1 SWAP2 SUB SWAP1 RETURN JUMPDEST CALLVALUE DUP1 ISZERO PUSH2 0x64D JUMPI PUSH1 0x0 DUP1 REVERT JUMPDEST POP PUSH2 0x668 PUSH1 0x4 DUP1 CALLDATASIZE SUB DUP2 ADD SWAP1 PUSH2 0x663 SWAP2 SWAP1 PUSH2 0x31F6 JUMP JUMPDEST PUSH2 0x1201 JUMP JUMPDEST PUSH1 0x40 MLOAD PUSH2 0x675 SWAP2 SWAP1 PUSH2 0x2ED9 JUMP JUMPDEST PUSH1 0x40 MLOAD DUP1 SWAP2 SUB SWAP1 RETURN JUMPDEST CALLVALUE DUP1 ISZERO PUSH2 0x68A JUMPI PUSH1 0x0 DUP1 REVERT JUMPDEST POP PUSH2 0x693 PUSH2 0x126C JUMP JUMPDEST PUSH1 0x40 MLOAD PUSH2 0x6A0 SWAP2 SWAP1 PUSH2 0x2F84 JUMP JUMPDEST PUSH1 0x40 MLOAD DUP1 SWAP2 SUB SWAP1 RETURN JUMPDEST CALLVALUE DUP1 ISZERO PUSH2 0x6B5 JUMPI PUSH1 0x0 DUP1 REVERT JUMPDEST POP PUSH2 0x6BE PUSH2 0x12FE JUMP JUMPDEST PUSH1 0x40 MLOAD PUSH2 0x6CB SWAP2 SWAP1 PUSH2 0x31DB JUMP JUMPDEST PUSH1 0x40 MLOAD DUP1 SWAP2 SUB SWAP1 RETURN JUMPDEST CALLVALUE DUP1 ISZERO PUSH2 0x6E0 JUMPI PUSH1 0x0 DUP1 REVERT JUMPDEST POP PUSH2 0x6FB PUSH1 0x4 DUP1 CALLDATASIZE SUB DUP2 ADD SWAP1 PUSH2 0x6F6 SWAP2 SWAP1 PUSH2 0x303A JUMP JUMPDEST PUSH2 0x1305 JUMP JUMPDEST PUSH1 0x40 MLOAD PUSH2 0x708 SWAP2 SWAP1 PUSH2 0x2ED9 JUMP JUMPDEST PUSH1 0x40 MLOAD DUP1 SWAP2 SUB SWAP1 RETURN JUMPDEST CALLVALUE DUP1 ISZERO PUSH2 0x71D JUMPI PUSH1 0x0 DUP1 REVERT JUMPDEST POP PUSH2 0x738 PUSH1 0x4 DUP1 CALLDATASIZE SUB DUP2 ADD SWAP1 PUSH2 0x733 SWAP2 SWAP1 PUSH2 0x326D JUMP JUMPDEST PUSH2 0x137C JUMP JUMPDEST STOP JUMPDEST CALLVALUE DUP1 ISZERO PUSH2 0x746 JUMPI PUSH1 0x0 DUP1 REVERT JUMPDEST POP PUSH2 0x761 PUSH1 0x4 DUP1 CALLDATASIZE SUB DUP2 ADD SWAP1 PUSH2 0x75C SWAP2 SWAP1 PUSH2 0x303A JUMP JUMPDEST PUSH2 0x16C7 JUMP JUMPDEST PUSH1 0x40 MLOAD PUSH2 0x76E SWAP2 SWAP1 PUSH2 0x2ED9 JUMP JUMPDEST PUSH1 0x40 MLOAD DUP1 SWAP2 SUB SWAP1 RETURN JUMPDEST PUSH2 0x77F PUSH2 0x16EA JUMP JUMPDEST STOP JUMPDEST CALLVALUE DUP1 ISZERO PUSH2 0x78D JUMPI PUSH1 0x0 DUP1 REVERT JUMPDEST POP PUSH2 0x796 PUSH2 0x1AAD JUMP JUMPDEST PUSH1 0x40 MLOAD PUSH2 0x7A3 SWAP2 SWAP1 PUSH2 0x3089 JUMP JUMPDEST PUSH1 0x40 MLOAD DUP1 SWAP2 SUB SWAP1 RETURN JUMPDEST CALLVALUE DUP1 ISZERO PUSH2 0x7B8 JUMPI PUSH1 0x0 DUP1 REVERT JUMPDEST POP PUSH2 0x7D3 PUSH1 0x4 DUP1 CALLDATASIZE SUB DUP2 ADD SWAP1 PUSH2 0x7CE SWAP2 SWAP1 PUSH2 0x326D JUMP JUMPDEST PUSH2 0x1AB3 JUMP JUMPDEST PUSH1 0x40 MLOAD PUSH2 0x7E0 SWAP2 SWAP1 PUSH2 0x32A9 JUMP JUMPDEST PUSH1 0x40 MLOAD DUP1 SWAP2 SUB SWAP1 RETURN JUMPDEST CALLVALUE DUP1 ISZERO PUSH2 0x7F5 JUMPI PUSH1 0x0 DUP1 REVERT JUMPDEST POP PUSH2 0x810 PUSH1 0x4 DUP1 CALLDATASIZE SUB DUP2 ADD SWAP1 PUSH2 0x80B SWAP2 SWAP1 PUSH2 0x31F6 JUMP JUMPDEST PUSH2 0x1AF2 JUMP JUMPDEST STOP JUMPDEST CALLVALUE DUP1 ISZERO PUSH2 0x81E JUMPI PUSH1 0x0 DUP1 REVERT JUMPDEST POP PUSH2 0x839 PUSH1 0x4 DUP1 CALLDATASIZE SUB DUP2 ADD SWAP1 PUSH2 0x834 SWAP2 SWAP1 PUSH2 0x32C4 JUMP JUMPDEST PUSH2 0x1B13 JUMP JUMPDEST PUSH1 0x40 MLOAD PUSH2 0x846 SWAP2 SWAP1 PUSH2 0x3089 JUMP JUMPDEST PUSH1 0x40 MLOAD DUP1 SWAP2 SUB SWAP1 RETURN JUMPDEST CALLVALUE DUP1 ISZERO PUSH2 0x85B JUMPI PUSH1 0x0 DUP1 REVERT JUMPDEST POP PUSH2 0x864 PUSH2 0x1B9A JUMP JUMPDEST PUSH1 0x40 MLOAD PUSH2 0x871 SWAP2 SWAP1 PUSH2 0x31DB JUMP JUMPDEST PUSH1 0x40 MLOAD DUP1 SWAP2 SUB SWAP1 RETURN JUMPDEST CALLVALUE DUP1 ISZERO PUSH2 0x886 JUMPI PUSH1 0x0 DUP1 REVERT JUMPDEST POP PUSH2 0x88F PUSH2 0x1BBE JUMP JUMPDEST PUSH1 0x40 MLOAD PUSH2 0x89C SWAP2 SWAP1 PUSH2 0x3089 JUMP JUMPDEST PUSH1 0x40 MLOAD DUP1 SWAP2 SUB SWAP1 RETURN JUMPDEST PUSH1 0x0 PUSH32 0x7965DB0B00000000000000000000000000000000000000000000000000000000 PUSH28 0xFFFFFFFFFFFFFFFFFFFFFFFFFFFFFFFFFFFFFFFFFFFFFFFFFFFFFFFF NOT AND DUP3 PUSH28 0xFFFFFFFFFFFFFFFFFFFFFFFFFFFFFFFFFFFFFFFFFFFFFFFFFFFFFFFF NOT AND EQ DUP1 PUSH2 0x918 JUMPI POP PUSH2 0x917 DUP3 PUSH2 0x1BC4 JUMP JUMPDEST JUMPDEST SWAP1 POP SWAP2 SWAP1 POP JUMP JUMPDEST PUSH1 0x60 PUSH1 0x3 DUP1 SLOAD PUSH2 0x92E SWAP1 PUSH2 0x3333 JUMP JUMPDEST DUP1 PUSH1 0x1F ADD PUSH1 0x20 DUP1 SWAP2 DIV MUL PUSH1 0x20 ADD PUSH1 0x40 MLOAD SWAP1 DUP2 ADD PUSH1 0x40 MSTORE DUP1 SWAP3 SWAP2 SWAP1 DUP2 DUP2 MSTORE PUSH1 0x20 ADD DUP3 DUP1 SLOAD PUSH2 0x95A SWAP1 PUSH2 0x3333 JUMP JUMPDEST DUP1 ISZERO PUSH2 0x9A7 JUMPI DUP1 PUSH1 0x1F LT PUSH2 0x97C JUMPI PUSH2 0x100 DUP1 DUP4 SLOAD DIV MUL DUP4 MSTORE SWAP2 PUSH1 0x20 ADD SWAP2 PUSH2 0x9A7 JUMP JUMPDEST DUP3 ADD SWAP2 SWAP1 PUSH1 0x0 MSTORE PUSH1 0x20 PUSH1 0x0 KECCAK256 SWAP1 JUMPDEST DUP2 SLOAD DUP2 MSTORE SWAP1 PUSH1 0x1 ADD SWAP1 PUSH1 0x20 ADD DUP1 DUP4 GT PUSH2 0x98A JUMPI DUP3 SWAP1 SUB PUSH1 0x1F AND DUP3 ADD SWAP2 JUMPDEST POP POP POP POP POP SWAP1 POP SWAP1 JUMP JUMPDEST PUSH1 0x0 DUP1 PUSH2 0x9BC PUSH2 0x1C2E JUMP JUMPDEST SWAP1 POP PUSH2 0x9C9 DUP2 DUP6 DUP6 PUSH2 0x1C36 JUMP JUMPDEST PUSH1 0x1 SWAP2 POP POP SWAP3 SWAP2 POP POP JUMP JUMPDEST PUSH1 0x0 PUSH1 0x2 SLOAD SWAP1 POP SWAP1 JUMP JUMPDEST PUSH1 0xA PUSH1 0x20 MSTORE DUP1 PUSH1 0x0 MSTORE PUSH1 0x40 PUSH1 0x0 KECCAK256 PUSH1 0x0 SWAP2 POP SWAP1 POP DUP1 PUSH1 0x0 ADD SLOAD SWAP1 DUP1 PUSH1 0x1 ADD SLOAD SWAP1 DUP1 PUSH1 0x2 ADD SLOAD SWAP1 DUP1 PUSH1 0x3 ADD SLOAD SWAP1 POP DUP5 JUMP JUMPDEST PUSH10 0xD86ABB23BBEEC2C00000 DUP2 JUMP JUMPDEST PUSH1 0x0 DUP1 PUSH2 0xA27 PUSH2 0x1C2E JUMP JUMPDEST SWAP1 POP PUSH2 0xA34 DUP6 DUP3 DUP6 PUSH2 0x1DFF JUMP JUMPDEST PUSH2 0xA3F DUP6 DUP6 DUP6 PUSH2 0x1E8B JUMP JUMPDEST PUSH1 0x1 SWAP2 POP POP SWAP4 SWAP3 POP POP POP JUMP JUMPDEST PUSH1 0x0 PUSH1 0x5 PUSH1 0x0 DUP4 DUP2 MSTORE PUSH1 0x20 ADD SWAP1 DUP2 MSTORE PUSH1 0x20 ADD PUSH1 0x0 KECCAK256 PUSH1 0x1 ADD SLOAD SWAP1 POP SWAP2 SWAP1 POP JUMP JUMPDEST PUSH32 0x3C11D16CBAFFD01DF69CE1C404F6340EE057498F5F00246190EA54220576A848 DUP2 JUMP JUMPDEST PUSH2 0xA98 DUP3 PUSH2 0xA4B JUMP JUMPDEST PUSH2 0xAA1 DUP2 PUSH2 0x2101 JUMP JUMPDEST PUSH2 0xAAB DUP4 DUP4 PUSH2 0x2115 JUMP JUMPDEST POP POP POP JUMP JUMPDEST PUSH1 0x0 PUSH1 0x12 SWAP1 POP SWAP1 JUMP JUMPDEST PUSH2 0xAC1 PUSH2 0x1C2E JUMP JUMPDEST PUSH20 0xFFFFFFFFFFFFFFFFFFFFFFFFFFFFFFFFFFFFFFFF AND DUP2 PUSH20 0xFFFFFFFFFFFFFFFFFFFFFFFFFFFFFFFFFFFFFFFF AND EQ PUSH2 0xB2E JUMPI PUSH1 0x40 MLOAD PUSH32 0x8C379A000000000000000000000000000000000000000000000000000000000 DUP2 MSTORE PUSH1 0x4 ADD PUSH2 0xB25 SWAP1 PUSH2 0x33D6 JUMP JUMPDEST PUSH1 0x40 MLOAD DUP1 SWAP2 SUB SWAP1 REVERT JUMPDEST PUSH2 0xB38 DUP3 DUP3 PUSH2 0x21F6 JUMP JUMPDEST POP POP JUMP JUMPDEST PUSH2 0xB66 PUSH32 0x11A8CB5A02BD6C42679835E867EF2118BA78F088F8300511420C6603C21D9C78 CALLER PUSH2 0x1201 JUMP JUMPDEST DUP1 PUSH2 0xB97 JUMPI POP PUSH2 0xB96 PUSH32 0x4AA71DE0DA4208DC9EE441C63978E580C4F1B98782158B74CB390E4E6CE7CDBB CALLER PUSH2 0x1201 JUMP JUMPDEST JUMPDEST PUSH2 0xBD6 JUMPI PUSH1 0x40 MLOAD PUSH32 0x8C379A000000000000000000000000000000000000000000000000000000000 DUP2 MSTORE PUSH1 0x4 ADD PUSH2 0xBCD SWAP1 PUSH2 0x3442 JUMP JUMPDEST PUSH1 0x40 MLOAD DUP1 SWAP2 SUB SWAP1 REVERT JUMPDEST PUSH1 0x0 PUSH2 0xC02 PUSH32 0x11A8CB5A02BD6C42679835E867EF2118BA78F088F8300511420C6603C21D9C78 CALLER PUSH2 0x1201 JUMP JUMPDEST ISZERO PUSH2 0xD1E JUMPI ADDRESS PUSH20 0xFFFFFFFFFFFFFFFFFFFFFFFFFFFFFFFFFFFFFFFF AND PUSH4 0xD547741F PUSH32 0x11A8CB5A02BD6C42679835E867EF2118BA78F088F8300511420C6603C21D9C78 CALLER PUSH1 0x40 MLOAD DUP4 PUSH4 0xFFFFFFFF AND PUSH1 0xE0 SHL DUP2 MSTORE PUSH1 0x4 ADD PUSH2 0xC62 SWAP3 SWAP2 SWAP1 PUSH2 0x3462 JUMP JUMPDEST PUSH1 0x0 PUSH1 0x40 MLOAD DUP1 DUP4 SUB DUP2 PUSH1 0x0 DUP8 DUP1 EXTCODESIZE ISZERO DUP1 ISZERO PUSH2 0xC7C JUMPI PUSH1 0x0 DUP1 REVERT JUMPDEST POP GAS CALL ISZERO DUP1 ISZERO PUSH2 0xC90 JUMPI RETURNDATASIZE PUSH1 0x0 DUP1 RETURNDATACOPY RETURNDATASIZE PUSH1 0x0 REVERT JUMPDEST POP POP POP POP PUSH1 0x9 PUSH1 0x0 CALLER PUSH20 0xFFFFFFFFFFFFFFFFFFFFFFFFFFFFFFFFFFFFFFFF AND PUSH20 0xFFFFFFFFFFFFFFFFFFFFFFFFFFFFFFFFFFFFFFFF AND DUP2 MSTORE PUSH1 0x20 ADD SWAP1 DUP2 MSTORE PUSH1 0x20 ADD PUSH1 0x0 KECCAK256 SLOAD SWAP1 POP PUSH1 0x9 PUSH1 0x0 CALLER PUSH20 0xFFFFFFFFFFFFFFFFFFFFFFFFFFFFFFFFFFFFFFFF AND PUSH20 0xFFFFFFFFFFFFFFFFFFFFFFFFFFFFFFFFFFFFFFFF AND DUP2 MSTORE PUSH1 0x20 ADD SWAP1 DUP2 MSTORE PUSH1 0x20 ADD PUSH1 0x0 KECCAK256 PUSH1 0x0 SWAP1 SSTORE PUSH2 0xF26 JUMP JUMPDEST PUSH1 0x8 SLOAD PUSH1 0xA PUSH1 0x0 CALLER PUSH20 0xFFFFFFFFFFFFFFFFFFFFFFFFFFFFFFFFFFFFFFFF AND PUSH20 0xFFFFFFFFFFFFFFFFFFFFFFFFFFFFFFFFFFFFFFFF AND DUP2 MSTORE PUSH1 0x20 ADD SWAP1 DUP2 MSTORE PUSH1 0x20 ADD PUSH1 0x0 KECCAK256 PUSH1 0x3 ADD SLOAD GT ISZERO PUSH2 0xE41 JUMPI PUSH1 0x0 PUSH3 0x15180 PUSH1 0xA PUSH1 0x0 CALLER PUSH20 0xFFFFFFFFFFFFFFFFFFFFFFFFFFFFFFFFFFFFFFFF AND PUSH20 0xFFFFFFFFFFFFFFFFFFFFFFFFFFFFFFFFFFFFFFFF AND DUP2 MSTORE PUSH1 0x20 ADD SWAP1 DUP2 MSTORE PUSH1 0x20 ADD PUSH1 0x0 KECCAK256 PUSH1 0x3 ADD SLOAD TIMESTAMP PUSH2 0xDBE SWAP2 SWAP1 PUSH2 0x34BA JUMP JUMPDEST PUSH2 0xDC8 SWAP2 SWAP1 PUSH2 0x351D JUMP JUMPDEST SWAP1 POP PUSH1 0x7 SLOAD DUP2 PUSH9 0x97C9CE4CF6D5C00000 PUSH1 0xA PUSH1 0x0 CALLER PUSH20 0xFFFFFFFFFFFFFFFFFFFFFFFFFFFFFFFFFFFFFFFF AND PUSH20 0xFFFFFFFFFFFFFFFFFFFFFFFFFFFFFFFFFFFFFFFF AND DUP2 MSTORE PUSH1 0x20 ADD SWAP1 DUP2 MSTORE PUSH1 0x20 ADD PUSH1 0x0 KECCAK256 PUSH1 0x0 ADD SLOAD PUSH2 0xE25 SWAP2 SWAP1 PUSH2 0x354E JUMP JUMPDEST PUSH2 0xE2F SWAP2 SWAP1 PUSH2 0x354E JUMP JUMPDEST PUSH2 0xE39 SWAP2 SWAP1 PUSH2 0x351D JUMP JUMPDEST SWAP2 POP POP PUSH2 0xE9A JUMP JUMPDEST PUSH2 0xE4A CALLER PUSH2 0x22D8 JUMP JUMPDEST PUSH1 0xA PUSH1 0x0 CALLER PUSH20 0xFFFFFFFFFFFFFFFFFFFFFFFFFFFFFFFFFFFFFFFF AND PUSH20 0xFFFFFFFFFFFFFFFFFFFFFFFFFFFFFFFFFFFFFFFF AND DUP2 MSTORE PUSH1 0x20 ADD SWAP1 DUP2 MSTORE PUSH1 0x20 ADD PUSH1 0x0 KECCAK256 PUSH1 0x2 ADD SLOAD PUSH2 0xE97 SWAP2 SWAP1 PUSH2 0x3590 JUMP JUMPDEST SWAP1 POP JUMPDEST PUSH1 0x0 PUSH1 0xA PUSH1 0x0 CALLER PUSH20 0xFFFFFFFFFFFFFFFFFFFFFFFFFFFFFFFFFFFFFFFF AND PUSH20 0xFFFFFFFFFFFFFFFFFFFFFFFFFFFFFFFFFFFFFFFF AND DUP2 MSTORE PUSH1 0x20 ADD SWAP1 DUP2 MSTORE PUSH1 0x20 ADD PUSH1 0x0 KECCAK256 PUSH1 0x2 ADD DUP2 SWAP1 SSTORE POP PUSH1 0x0 DUP2 GT PUSH2 0xF25 JUMPI PUSH1 0x40 MLOAD PUSH32 0x8C379A000000000000000000000000000000000000000000000000000000000 DUP2 MSTORE PUSH1 0x4 ADD PUSH2 0xF1C SWAP1 PUSH2 0x3610 JUMP JUMPDEST PUSH1 0x40 MLOAD DUP1 SWAP2 SUB SWAP1 REVERT JUMPDEST JUMPDEST TIMESTAMP PUSH1 0xA PUSH1 0x0 CALLER PUSH20 0xFFFFFFFFFFFFFFFFFFFFFFFFFFFFFFFFFFFFFFFF AND PUSH20 0xFFFFFFFFFFFFFFFFFFFFFFFFFFFFFFFFFFFFFFFF AND DUP2 MSTORE PUSH1 0x20 ADD SWAP1 DUP2 MSTORE PUSH1 0x20 ADD PUSH1 0x0 KECCAK256 PUSH1 0x3 ADD DUP2 SWAP1 SSTORE POP ADDRESS PUSH20 0xFFFFFFFFFFFFFFFFFFFFFFFFFFFFFFFFFFFFFFFF AND PUSH4 0xA9059CBB CALLER DUP4 PUSH1 0x40 MLOAD DUP4 PUSH4 0xFFFFFFFF AND PUSH1 0xE0 SHL DUP2 MSTORE PUSH1 0x4 ADD PUSH2 0xFA8 SWAP3 SWAP2 SWAP1 PUSH2 0x3630 JUMP JUMPDEST PUSH1 0x20 PUSH1 0x40 MLOAD DUP1 DUP4 SUB DUP2 PUSH1 0x0 DUP8 GAS CALL ISZERO DUP1 ISZERO PUSH2 0xFC7 JUMPI RETURNDATASIZE PUSH1 0x0 DUP1 RETURNDATACOPY RETURNDATASIZE PUSH1 0x0 REVERT JUMPDEST POP POP POP POP PUSH1 0x40 MLOAD RETURNDATASIZE PUSH1 0x1F NOT PUSH1 0x1F DUP3 ADD AND DUP3 ADD DUP1 PUSH1 0x40 MSTORE POP DUP2 ADD SWAP1 PUSH2 0xFEB SWAP2 SWAP1 PUSH2 0x3685 JUMP JUMPDEST POP PUSH32 0xBA56C3AB1F752776EEF60DB959A4E6B643E89595315EDBBD945E104623FA03BA DUP2 CALLER PUSH1 0x40 MLOAD PUSH2 0x101D SWAP3 SWAP2 SWAP1 PUSH2 0x36B2 JUMP JUMPDEST PUSH1 0x40 MLOAD DUP1 SWAP2 SUB SWAP1 LOG1 POP JUMP JUMPDEST PUSH1 0x0 DUP1 PUSH2 0x1033 PUSH2 0x1C2E JUMP JUMPDEST SWAP1 POP PUSH2 0x1054 DUP2 DUP6 DUP6 PUSH2 0x1045 DUP6 DUP10 PUSH2 0x1B13 JUMP JUMPDEST PUSH2 0x104F SWAP2 SWAP1 PUSH2 0x3590 JUMP JUMPDEST PUSH2 0x1C36 JUMP JUMPDEST PUSH1 0x1 SWAP2 POP POP SWAP3 SWAP2 POP POP JUMP JUMPDEST PUSH1 0x0 PUSH2 0x108B PUSH32 0x11A8CB5A02BD6C42679835E867EF2118BA78F088F8300511420C6603C21D9C78 CALLER PUSH2 0x1201 JUMP JUMPDEST DUP1 PUSH2 0x10BC JUMPI POP PUSH2 0x10BB PUSH32 0x4AA71DE0DA4208DC9EE441C63978E580C4F1B98782158B74CB390E4E6CE7CDBB CALLER PUSH2 0x1201 JUMP JUMPDEST JUMPDEST PUSH2 0x10FB JUMPI PUSH1 0x40 MLOAD PUSH32 0x8C379A000000000000000000000000000000000000000000000000000000000 DUP2 MSTORE PUSH1 0x4 ADD PUSH2 0x10F2 SWAP1 PUSH2 0x3727 JUMP JUMPDEST PUSH1 0x40 MLOAD DUP1 SWAP2 SUB SWAP1 REVERT JUMPDEST PUSH2 0x1104 CALLER PUSH2 0x22D8 JUMP JUMPDEST PUSH1 0xA PUSH1 0x0 CALLER PUSH20 0xFFFFFFFFFFFFFFFFFFFFFFFFFFFFFFFFFFFFFFFF AND PUSH20 0xFFFFFFFFFFFFFFFFFFFFFFFFFFFFFFFFFFFFFFFF AND DUP2 MSTORE PUSH1 0x20 ADD SWAP1 DUP2 MSTORE PUSH1 0x20 ADD PUSH1 0x0 KECCAK256 PUSH1 0x2 ADD SLOAD PUSH2 0x1151 SWAP2 SWAP1 PUSH2 0x3590 JUMP JUMPDEST SWAP1 POP SWAP1 JUMP JUMPDEST PUSH1 0x9 PUSH1 0x20 MSTORE DUP1 PUSH1 0x0 MSTORE PUSH1 0x40 PUSH1 0x0 KECCAK256 PUSH1 0x0 SWAP2 POP SWAP1 POP SLOAD DUP2 JUMP JUMPDEST PUSH32 0x4AA71DE0DA4208DC9EE441C63978E580C4F1B98782158B74CB390E4E6CE7CDBB DUP2 JUMP JUMPDEST PUSH9 0x3635C9ADC5DEA00000 DUP2 JUMP JUMPDEST PUSH1 0x6 SLOAD DUP2 JUMP JUMPDEST PUSH3 0x15180 DUP2 JUMP JUMPDEST PUSH1 0x0 DUP1 PUSH1 0x0 DUP4 PUSH20 0xFFFFFFFFFFFFFFFFFFFFFFFFFFFFFFFFFFFFFFFF AND PUSH20 0xFFFFFFFFFFFFFFFFFFFFFFFFFFFFFFFFFFFFFFFF AND DUP2 MSTORE PUSH1 0x20 ADD SWAP1 DUP2 MSTORE PUSH1 0x20 ADD PUSH1 0x0 KECCAK256 SLOAD SWAP1 POP SWAP2 SWAP1 POP JUMP JUMPDEST PUSH9 0x97C9CE4CF6D5C00000 DUP2 JUMP JUMPDEST PUSH1 0x0 PUSH1 0x5 PUSH1 0x0 DUP5 DUP2 MSTORE PUSH1 0x20 ADD SWAP1 DUP2 MSTORE PUSH1 0x20 ADD PUSH1 0x0 KECCAK256 PUSH1 0x0 ADD PUSH1 0x0 DUP4 PUSH20 0xFFFFFFFFFFFFFFFFFFFFFFFFFFFFFFFFFFFFFFFF AND PUSH20 0xFFFFFFFFFFFFFFFFFFFFFFFFFFFFFFFFFFFFFFFF AND DUP2 MSTORE PUSH1 0x20 ADD SWAP1 DUP2 MSTORE PUSH1 0x20 ADD PUSH1 0x0 KECCAK256 PUSH1 0x0 SWAP1 SLOAD SWAP1 PUSH2 0x100 EXP SWAP1 DIV PUSH1 0xFF AND SWAP1 POP SWAP3 SWAP2 POP POP JUMP JUMPDEST PUSH1 0x60 PUSH1 0x4 DUP1 SLOAD PUSH2 0x127B SWAP1 PUSH2 0x3333 JUMP JUMPDEST DUP1 PUSH1 0x1F ADD PUSH1 0x20 DUP1 SWAP2 DIV MUL PUSH1 0x20 ADD PUSH1 0x40 MLOAD SWAP1 DUP2 ADD PUSH1 0x40 MSTORE DUP1 SWAP3 SWAP2 SWAP1 DUP2 DUP2 MSTORE PUSH1 0x20 ADD DUP3 DUP1 SLOAD PUSH2 0x12A7 SWAP1 PUSH2 0x3333 JUMP JUMPDEST DUP1 ISZERO PUSH2 0x12F4 JUMPI DUP1 PUSH1 0x1F LT PUSH2 0x12C9 JUMPI PUSH2 0x100 DUP1 DUP4 SLOAD DIV MUL DUP4 MSTORE SWAP2 PUSH1 0x20 ADD SWAP2 PUSH2 0x12F4 JUMP JUMPDEST DUP3 ADD SWAP2 SWAP1 PUSH1 0x0 MSTORE PUSH1 0x20 PUSH1 0x0 KECCAK256 SWAP1 JUMPDEST DUP2 SLOAD DUP2 MSTORE SWAP1 PUSH1 0x1 ADD SWAP1 PUSH1 0x20 ADD DUP1 DUP4 GT PUSH2 0x12D7 JUMPI DUP3 SWAP1 SUB PUSH1 0x1F AND DUP3 ADD SWAP2 JUMPDEST POP POP POP POP POP SWAP1 POP SWAP1 JUMP JUMPDEST PUSH1 0x0 DUP1 SHL DUP2 JUMP JUMPDEST PUSH1 0x0 DUP1 PUSH2 0x1310 PUSH2 0x1C2E JUMP JUMPDEST SWAP1 POP PUSH1 0x0 PUSH2 0x131E DUP3 DUP7 PUSH2 0x1B13 JUMP JUMPDEST SWAP1 POP DUP4 DUP2 LT ISZERO PUSH2 0x1363 JUMPI PUSH1 0x40 MLOAD PUSH32 0x8C379A000000000000000000000000000000000000000000000000000000000 DUP2 MSTORE PUSH1 0x4 ADD PUSH2 0x135A SWAP1 PUSH2 0x37B9 JUMP JUMPDEST PUSH1 0x40 MLOAD DUP1 SWAP2 SUB SWAP1 REVERT JUMPDEST PUSH2 0x1370 DUP3 DUP7 DUP7 DUP5 SUB PUSH2 0x1C36 JUMP JUMPDEST PUSH1 0x1 SWAP3 POP POP POP SWAP3 SWAP2 POP POP JUMP JUMPDEST PUSH32 0x4AA71DE0DA4208DC9EE441C63978E580C4F1B98782158B74CB390E4E6CE7CDBB PUSH2 0x13A6 DUP2 PUSH2 0x2101 JUMP JUMPDEST PUSH1 0x0 PUSH1 0xA PUSH1 0x0 CALLER PUSH20 0xFFFFFFFFFFFFFFFFFFFFFFFFFFFFFFFFFFFFFFFF AND PUSH20 0xFFFFFFFFFFFFFFFFFFFFFFFFFFFFFFFFFFFFFFFF AND DUP2 MSTORE PUSH1 0x20 ADD SWAP1 DUP2 MSTORE PUSH1 0x20 ADD PUSH1 0x0 KECCAK256 PUSH1 0x40 MLOAD DUP1 PUSH1 0x80 ADD PUSH1 0x40 MSTORE SWAP1 DUP2 PUSH1 0x0 DUP3 ADD SLOAD DUP2 MSTORE PUSH1 0x20 ADD PUSH1 0x1 DUP3 ADD SLOAD DUP2 MSTORE PUSH1 0x20 ADD PUSH1 0x2 DUP3 ADD SLOAD DUP2 MSTORE PUSH1 0x20 ADD PUSH1 0x3 DUP3 ADD SLOAD DUP2 MSTORE POP POP SWAP1 POP DUP3 DUP2 PUSH1 0x0 ADD MLOAD LT ISZERO PUSH2 0x1463 JUMPI PUSH1 0x40 MLOAD PUSH32 0x8C379A000000000000000000000000000000000000000000000000000000000 DUP2 MSTORE PUSH1 0x4 ADD PUSH2 0x145A SWAP1 PUSH2 0x3825 JUMP JUMPDEST PUSH1 0x40 MLOAD DUP1 SWAP2 SUB SWAP1 REVERT JUMPDEST PUSH1 0x0 DUP4 GT PUSH2 0x14A6 JUMPI PUSH1 0x40 MLOAD PUSH32 0x8C379A000000000000000000000000000000000000000000000000000000000 DUP2 MSTORE PUSH1 0x4 ADD PUSH2 0x149D SWAP1 PUSH2 0x3891 JUMP JUMPDEST PUSH1 0x40 MLOAD DUP1 SWAP2 SUB SWAP1 REVERT JUMPDEST PUSH3 0x15180 DUP2 PUSH1 0x20 ADD MLOAD TIMESTAMP PUSH2 0x14BA SWAP2 SWAP1 PUSH2 0x34BA JUMP JUMPDEST GT PUSH2 0x14FA JUMPI PUSH1 0x40 MLOAD PUSH32 0x8C379A000000000000000000000000000000000000000000000000000000000 DUP2 MSTORE PUSH1 0x4 ADD PUSH2 0x14F1 SWAP1 PUSH2 0x3923 JUMP JUMPDEST PUSH1 0x40 MLOAD DUP1 SWAP2 SUB SWAP1 REVERT JUMPDEST PUSH3 0x15180 PUSH1 0x8 SLOAD TIMESTAMP PUSH2 0x150C SWAP2 SWAP1 PUSH2 0x34BA JUMP JUMPDEST LT PUSH2 0x151A JUMPI PUSH2 0x1519 PUSH2 0x2376 JUMP JUMPDEST JUMPDEST DUP3 PUSH1 0x7 PUSH1 0x0 DUP3 DUP3 SLOAD PUSH2 0x152C SWAP2 SWAP1 PUSH2 0x34BA JUMP JUMPDEST SWAP3 POP POP DUP2 SWAP1 SSTORE POP TIMESTAMP DUP2 PUSH1 0x20 ADD DUP2 DUP2 MSTORE POP POP DUP3 DUP2 PUSH1 0x0 ADD DUP2 DUP2 MLOAD PUSH2 0x154F SWAP2 SWAP1 PUSH2 0x34BA JUMP JUMPDEST SWAP2 POP DUP2 DUP2 MSTORE POP POP PUSH1 0x0 DUP2 PUSH1 0x0 ADD MLOAD SUB PUSH2 0x1570 JUMPI PUSH2 0x156B CALLER PUSH2 0x2624 JUMP JUMPDEST PUSH2 0x15DC JUMP JUMPDEST DUP1 PUSH1 0xA PUSH1 0x0 CALLER PUSH20 0xFFFFFFFFFFFFFFFFFFFFFFFFFFFFFFFFFFFFFFFF AND PUSH20 0xFFFFFFFFFFFFFFFFFFFFFFFFFFFFFFFFFFFFFFFF AND DUP2 MSTORE PUSH1 0x20 ADD SWAP1 DUP2 MSTORE PUSH1 0x20 ADD PUSH1 0x0 KECCAK256 PUSH1 0x0 DUP3 ADD MLOAD DUP2 PUSH1 0x0 ADD SSTORE PUSH1 0x20 DUP3 ADD MLOAD DUP2 PUSH1 0x1 ADD SSTORE PUSH1 0x40 DUP3 ADD MLOAD DUP2 PUSH1 0x2 ADD SSTORE PUSH1 0x60 DUP3 ADD MLOAD DUP2 PUSH1 0x3 ADD SSTORE SWAP1 POP POP JUMPDEST PUSH1 0x0 CALLER PUSH20 0xFFFFFFFFFFFFFFFFFFFFFFFFFFFFFFFFFFFFFFFF AND DUP5 PUSH1 0x40 MLOAD PUSH2 0x1602 SWAP1 PUSH2 0x3974 JUMP JUMPDEST PUSH1 0x0 PUSH1 0x40 MLOAD DUP1 DUP4 SUB DUP2 DUP6 DUP8 GAS CALL SWAP3 POP POP POP RETURNDATASIZE DUP1 PUSH1 0x0 DUP2 EQ PUSH2 0x163F JUMPI PUSH1 0x40 MLOAD SWAP2 POP PUSH1 0x1F NOT PUSH1 0x3F RETURNDATASIZE ADD AND DUP3 ADD PUSH1 0x40 MSTORE RETURNDATASIZE DUP3 MSTORE RETURNDATASIZE PUSH1 0x0 PUSH1 0x20 DUP5 ADD RETURNDATACOPY PUSH2 0x1644 JUMP JUMPDEST PUSH1 0x60 SWAP2 POP JUMPDEST POP POP SWAP1 POP DUP1 PUSH2 0x1688 JUMPI PUSH1 0x40 MLOAD PUSH32 0x8C379A000000000000000000000000000000000000000000000000000000000 DUP2 MSTORE PUSH1 0x4 ADD PUSH2 0x167F SWAP1 PUSH2 0x39D5 JUMP JUMPDEST PUSH1 0x40 MLOAD DUP1 SWAP2 SUB SWAP1 REVERT JUMPDEST PUSH32 0xBC2B1ABF173ED55B6A5F40D2D11BFB3FAE4EA9344424E6283A0A51DF4DF0613 DUP5 CALLER PUSH1 0x40 MLOAD PUSH2 0x16B9 SWAP3 SWAP2 SWAP1 PUSH2 0x36B2 JUMP JUMPDEST PUSH1 0x40 MLOAD DUP1 SWAP2 SUB SWAP1 LOG1 POP POP POP POP JUMP JUMPDEST PUSH1 0x0 DUP1 PUSH2 0x16D2 PUSH2 0x1C2E JUMP JUMPDEST SWAP1 POP PUSH2 0x16DF DUP2 DUP6 DUP6 PUSH2 0x1E8B JUMP JUMPDEST PUSH1 0x1 SWAP2 POP POP SWAP3 SWAP2 POP POP JUMP JUMPDEST PUSH1 0x0 CALLVALUE GT PUSH2 0x172D JUMPI PUSH1 0x40 MLOAD PUSH32 0x8C379A000000000000000000000000000000000000000000000000000000000 DUP2 MSTORE PUSH1 0x4 ADD PUSH2 0x1724 SWAP1 PUSH2 0x3A67 JUMP JUMPDEST PUSH1 0x40 MLOAD DUP1 SWAP2 SUB SWAP1 REVERT JUMPDEST PUSH1 0x0 PUSH1 0xA PUSH1 0x0 CALLER PUSH20 0xFFFFFFFFFFFFFFFFFFFFFFFFFFFFFFFFFFFFFFFF AND PUSH20 0xFFFFFFFFFFFFFFFFFFFFFFFFFFFFFFFFFFFFFFFF AND DUP2 MSTORE PUSH1 0x20 ADD SWAP1 DUP2 MSTORE PUSH1 0x20 ADD PUSH1 0x0 KECCAK256 PUSH1 0x40 MLOAD DUP1 PUSH1 0x80 ADD PUSH1 0x40 MSTORE SWAP1 DUP2 PUSH1 0x0 DUP3 ADD SLOAD DUP2 MSTORE PUSH1 0x20 ADD PUSH1 0x1 DUP3 ADD SLOAD DUP2 MSTORE PUSH1 0x20 ADD PUSH1 0x2 DUP3 ADD SLOAD DUP2 MSTORE PUSH1 0x20 ADD PUSH1 0x3 DUP3 ADD SLOAD DUP2 MSTORE POP POP SWAP1 POP PUSH3 0x15180 DUP2 PUSH1 0x20 ADD MLOAD TIMESTAMP PUSH2 0x17B7 SWAP2 SWAP1 PUSH2 0x34BA JUMP JUMPDEST LT ISZERO PUSH2 0x17F8 JUMPI PUSH1 0x40 MLOAD PUSH32 0x8C379A000000000000000000000000000000000000000000000000000000000 DUP2 MSTORE PUSH1 0x4 ADD PUSH2 0x17EF SWAP1 PUSH2 0x3AF9 JUMP JUMPDEST PUSH1 0x40 MLOAD DUP1 SWAP2 SUB SWAP1 REVERT JUMPDEST PUSH9 0x3635C9ADC5DEA00000 CALLVALUE PUSH1 0x7 SLOAD PUSH2 0x1810 SWAP2 SWAP1 PUSH2 0x3590 JUMP JUMPDEST GT ISZERO PUSH2 0x1851 JUMPI PUSH1 0x40 MLOAD PUSH32 0x8C379A000000000000000000000000000000000000000000000000000000000 DUP2 MSTORE PUSH1 0x4 ADD PUSH2 0x1848 SWAP1 PUSH2 0x3B8B JUMP JUMPDEST PUSH1 0x40 MLOAD DUP1 SWAP2 SUB SWAP1 REVERT JUMPDEST PUSH2 0x187B PUSH32 0x4AA71DE0DA4208DC9EE441C63978E580C4F1B98782158B74CB390E4E6CE7CDBB CALLER PUSH2 0x1201 JUMP JUMPDEST PUSH2 0x1988 JUMPI ADDRESS PUSH20 0xFFFFFFFFFFFFFFFFFFFFFFFFFFFFFFFFFFFFFFFF AND PUSH4 0x2F2FF15D PUSH32 0x4AA71DE0DA4208DC9EE441C63978E580C4F1B98782158B74CB390E4E6CE7CDBB CALLER PUSH1 0x40 MLOAD DUP4 PUSH4 0xFFFFFFFF AND PUSH1 0xE0 SHL DUP2 MSTORE PUSH1 0x4 ADD PUSH2 0x18DA SWAP3 SWAP2 SWAP1 PUSH2 0x3462 JUMP JUMPDEST PUSH1 0x0 PUSH1 0x40 MLOAD DUP1 DUP4 SUB DUP2 PUSH1 0x0 DUP8 DUP1 EXTCODESIZE ISZERO DUP1 ISZERO PUSH2 0x18F4 JUMPI PUSH1 0x0 DUP1 REVERT JUMPDEST POP GAS CALL ISZERO DUP1 ISZERO PUSH2 0x1908 JUMPI RETURNDATASIZE PUSH1 0x0 DUP1 RETURNDATACOPY RETURNDATASIZE PUSH1 0x0 REVERT JUMPDEST POP POP POP POP PUSH1 0x6 PUSH1 0x0 DUP2 SLOAD DUP1 SWAP3 SWAP2 SWAP1 PUSH2 0x191F SWAP1 PUSH2 0x3BAB JUMP JUMPDEST SWAP2 SWAP1 POP SSTORE POP PUSH1 0xB CALLER SWAP1 DUP1 PUSH1 0x1 DUP2 SLOAD ADD DUP1 DUP3 SSTORE DUP1 SWAP2 POP POP PUSH1 0x1 SWAP1 SUB SWAP1 PUSH1 0x0 MSTORE PUSH1 0x20 PUSH1 0x0 KECCAK256 ADD PUSH1 0x0 SWAP1 SWAP2 SWAP1 SWAP2 SWAP1 SWAP2 PUSH2 0x100 EXP DUP2 SLOAD DUP2 PUSH20 0xFFFFFFFFFFFFFFFFFFFFFFFFFFFFFFFFFFFFFFFF MUL NOT AND SWAP1 DUP4 PUSH20 0xFFFFFFFFFFFFFFFFFFFFFFFFFFFFFFFFFFFFFFFF AND MUL OR SWAP1 SSTORE POP JUMPDEST CALLVALUE DUP2 PUSH1 0x0 ADD DUP2 DUP2 MLOAD PUSH2 0x199A SWAP2 SWAP1 PUSH2 0x3590 JUMP JUMPDEST SWAP2 POP DUP2 DUP2 MSTORE POP POP PUSH3 0x15180 PUSH1 0x8 SLOAD TIMESTAMP PUSH2 0x19B3 SWAP2 SWAP1 PUSH2 0x34BA JUMP JUMPDEST LT ISZERO DUP1 ISZERO PUSH2 0x19C4 JUMPI POP PUSH1 0x0 PUSH1 0x7 SLOAD EQ ISZERO JUMPDEST ISZERO PUSH2 0x19D2 JUMPI PUSH2 0x19D1 PUSH2 0x2376 JUMP JUMPDEST JUMPDEST CALLVALUE PUSH1 0x7 PUSH1 0x0 DUP3 DUP3 SLOAD PUSH2 0x19E4 SWAP2 SWAP1 PUSH2 0x3590 JUMP JUMPDEST SWAP3 POP POP DUP2 SWAP1 SSTORE POP TIMESTAMP DUP2 PUSH1 0x20 ADD DUP2 DUP2 MSTORE POP POP TIMESTAMP DUP2 PUSH1 0x60 ADD DUP2 DUP2 MSTORE POP POP TIMESTAMP PUSH1 0x8 DUP2 SWAP1 SSTORE POP DUP1 PUSH1 0xA PUSH1 0x0 CALLER PUSH20 0xFFFFFFFFFFFFFFFFFFFFFFFFFFFFFFFFFFFFFFFF AND PUSH20 0xFFFFFFFFFFFFFFFFFFFFFFFFFFFFFFFFFFFFFFFF AND DUP2 MSTORE PUSH1 0x20 ADD SWAP1 DUP2 MSTORE PUSH1 0x20 ADD PUSH1 0x0 KECCAK256 PUSH1 0x0 DUP3 ADD MLOAD DUP2 PUSH1 0x0 ADD SSTORE PUSH1 0x20 DUP3 ADD MLOAD DUP2 PUSH1 0x1 ADD SSTORE PUSH1 0x40 DUP3 ADD MLOAD DUP2 PUSH1 0x2 ADD SSTORE PUSH1 0x60 DUP3 ADD MLOAD DUP2 PUSH1 0x3 ADD SSTORE SWAP1 POP POP PUSH32 0xC326174CEE472D31899B67138306F42D962C29E4877D73A5CE0E6DF8420FF1F0 CALLVALUE CALLER PUSH1 0x40 MLOAD PUSH2 0x1AA2 SWAP3 SWAP2 SWAP1 PUSH2 0x36B2 JUMP JUMPDEST PUSH1 0x40 MLOAD DUP1 SWAP2 SUB SWAP1 LOG1 POP JUMP JUMPDEST PUSH1 0x8 SLOAD DUP2 JUMP JUMPDEST PUSH1 0xB DUP2 DUP2 SLOAD DUP2 LT PUSH2 0x1AC3 JUMPI PUSH1 0x0 DUP1 REVERT JUMPDEST SWAP1 PUSH1 0x0 MSTORE PUSH1 0x20 PUSH1 0x0 KECCAK256 ADD PUSH1 0x0 SWAP2 POP SLOAD SWAP1 PUSH2 0x100 EXP SWAP1 DIV PUSH20 0xFFFFFFFFFFFFFFFFFFFFFFFFFFFFFFFFFFFFFFFF AND DUP2 JUMP JUMPDEST PUSH2 0x1AFB DUP3 PUSH2 0xA4B JUMP JUMPDEST PUSH2 0x1B04 DUP2 PUSH2 0x2101 JUMP JUMPDEST PUSH2 0x1B0E DUP4 DUP4 PUSH2 0x21F6 JUMP JUMPDEST POP POP POP JUMP JUMPDEST PUSH1 0x0 PUSH1 0x1 PUSH1 0x0 DUP5 PUSH20 0xFFFFFFFFFFFFFFFFFFFFFFFFFFFFFFFFFFFFFFFF AND PUSH20 0xFFFFFFFFFFFFFFFFFFFFFFFFFFFFFFFFFFFFFFFF AND DUP2 MSTORE PUSH1 0x20 ADD SWAP1 DUP2 MSTORE PUSH1 0x20 ADD PUSH1 0x0 KECCAK256 PUSH1 0x0 DUP4 PUSH20 0xFFFFFFFFFFFFFFFFFFFFFFFFFFFFFFFFFFFFFFFF AND PUSH20 0xFFFFFFFFFFFFFFFFFFFFFFFFFFFFFFFFFFFFFFFF AND DUP2 MSTORE PUSH1 0x20 ADD SWAP1 DUP2 MSTORE PUSH1 0x20 ADD PUSH1 0x0 KECCAK256 SLOAD SWAP1 POP SWAP3 SWAP2 POP POP JUMP JUMPDEST PUSH32 0x11A8CB5A02BD6C42679835E867EF2118BA78F088F8300511420C6603C21D9C78 DUP2 JUMP JUMPDEST PUSH1 0x7 SLOAD DUP2 JUMP JUMPDEST PUSH1 0x0 PUSH32 0x1FFC9A700000000000000000000000000000000000000000000000000000000 PUSH28 0xFFFFFFFFFFFFFFFFFFFFFFFFFFFFFFFFFFFFFFFFFFFFFFFFFFFFFFFF NOT AND DUP3 PUSH28 0xFFFFFFFFFFFFFFFFFFFFFFFFFFFFFFFFFFFFFFFFFFFFFFFFFFFFFFFF NOT AND EQ SWAP1 POP SWAP2 SWAP1 POP JUMP JUMPDEST PUSH1 0x0 CALLER SWAP1 POP SWAP1 JUMP JUMPDEST PUSH1 0x0 PUSH20 0xFFFFFFFFFFFFFFFFFFFFFFFFFFFFFFFFFFFFFFFF AND DUP4 PUSH20 0xFFFFFFFFFFFFFFFFFFFFFFFFFFFFFFFFFFFFFFFF AND SUB PUSH2 0x1CA5 JUMPI PUSH1 0x40 MLOAD PUSH32 0x8C379A000000000000000000000000000000000000000000000000000000000 DUP2 MSTORE PUSH1 0x4 ADD PUSH2 0x1C9C SWAP1 PUSH2 0x3C65 JUMP JUMPDEST PUSH1 0x40 MLOAD DUP1 SWAP2 SUB SWAP1 REVERT JUMPDEST PUSH1 0x0 PUSH20 0xFFFFFFFFFFFFFFFFFFFFFFFFFFFFFFFFFFFFFFFF AND DUP3 PUSH20 0xFFFFFFFFFFFFFFFFFFFFFFFFFFFFFFFFFFFFFFFF AND SUB PUSH2 0x1D14 JUMPI PUSH1 0x40 MLOAD PUSH32 0x8C379A000000000000000000000000000000000000000000000000000000000 DUP2 MSTORE PUSH1 0x4 ADD PUSH2 0x1D0B SWAP1 PUSH2 0x3CF7 JUMP JUMPDEST PUSH1 0x40 MLOAD DUP1 SWAP2 SUB SWAP1 REVERT JUMPDEST DUP1 PUSH1 0x1 PUSH1 0x0 DUP6 PUSH20 0xFFFFFFFFFFFFFFFFFFFFFFFFFFFFFFFFFFFFFFFF AND PUSH20 0xFFFFFFFFFFFFFFFFFFFFFFFFFFFFFFFFFFFFFFFF AND DUP2 MSTORE PUSH1 0x20 ADD SWAP1 DUP2 MSTORE PUSH1 0x20 ADD PUSH1 0x0 KECCAK256 PUSH1 0x0 DUP5 PUSH20 0xFFFFFFFFFFFFFFFFFFFFFFFFFFFFFFFFFFFFFFFF AND PUSH20 0xFFFFFFFFFFFFFFFFFFFFFFFFFFFFFFFFFFFFFFFF AND DUP2 MSTORE PUSH1 0x20 ADD SWAP1 DUP2 MSTORE PUSH1 0x20 ADD PUSH1 0x0 KECCAK256 DUP2 SWAP1 SSTORE POP DUP2 PUSH20 0xFFFFFFFFFFFFFFFFFFFFFFFFFFFFFFFFFFFFFFFF AND DUP4 PUSH20 0xFFFFFFFFFFFFFFFFFFFFFFFFFFFFFFFFFFFFFFFF AND PUSH32 0x8C5BE1E5EBEC7D5BD14F71427D1E84F3DD0314C0F7B2291E5B200AC8C7C3B925 DUP4 PUSH1 0x40 MLOAD PUSH2 0x1DF2 SWAP2 SWAP1 PUSH2 0x3089 JUMP JUMPDEST PUSH1 0x40 MLOAD DUP1 SWAP2 SUB SWAP1 LOG3 POP POP POP JUMP JUMPDEST PUSH1 0x0 PUSH2 0x1E0B DUP5 DUP5 PUSH2 0x1B13 JUMP JUMPDEST SWAP1 POP PUSH32 0xFFFFFFFFFFFFFFFFFFFFFFFFFFFFFFFFFFFFFFFFFFFFFFFFFFFFFFFFFFFFFFFF DUP2 EQ PUSH2 0x1E85 JUMPI DUP2 DUP2 LT ISZERO PUSH2 0x1E77 JUMPI PUSH1 0x40 MLOAD PUSH32 0x8C379A000000000000000000000000000000000000000000000000000000000 DUP2 MSTORE PUSH1 0x4 ADD PUSH2 0x1E6E SWAP1 PUSH2 0x3D63 JUMP JUMPDEST PUSH1 0x40 MLOAD DUP1 SWAP2 SUB SWAP1 REVERT JUMPDEST PUSH2 0x1E84 DUP5 DUP5 DUP5 DUP5 SUB PUSH2 0x1C36 JUMP JUMPDEST JUMPDEST POP POP POP POP JUMP JUMPDEST PUSH1 0x0 PUSH20 0xFFFFFFFFFFFFFFFFFFFFFFFFFFFFFFFFFFFFFFFF AND DUP4 PUSH20 0xFFFFFFFFFFFFFFFFFFFFFFFFFFFFFFFFFFFFFFFF AND SUB PUSH2 0x1EFA JUMPI PUSH1 0x40 MLOAD PUSH32 0x8C379A000000000000000000000000000000000000000000000000000000000 DUP2 MSTORE PUSH1 0x4 ADD PUSH2 0x1EF1 SWAP1 PUSH2 0x3DF5 JUMP JUMPDEST PUSH1 0x40 MLOAD DUP1 SWAP2 SUB SWAP1 REVERT JUMPDEST PUSH1 0x0 PUSH20 0xFFFFFFFFFFFFFFFFFFFFFFFFFFFFFFFFFFFFFFFF AND DUP3 PUSH20 0xFFFFFFFFFFFFFFFFFFFFFFFFFFFFFFFFFFFFFFFF AND SUB PUSH2 0x1F69 JUMPI PUSH1 0x40 MLOAD PUSH32 0x8C379A000000000000000000000000000000000000000000000000000000000 DUP2 MSTORE PUSH1 0x4 ADD PUSH2 0x1F60 SWAP1 PUSH2 0x3E87 JUMP JUMPDEST PUSH1 0x40 MLOAD DUP1 SWAP2 SUB SWAP1 REVERT JUMPDEST PUSH2 0x1F74 DUP4 DUP4 DUP4 PUSH2 0x2B3C JUMP JUMPDEST PUSH1 0x0 DUP1 PUSH1 0x0 DUP6 PUSH20 0xFFFFFFFFFFFFFFFFFFFFFFFFFFFFFFFFFFFFFFFF AND PUSH20 0xFFFFFFFFFFFFFFFFFFFFFFFFFFFFFFFFFFFFFFFF AND DUP2 MSTORE PUSH1 0x20 ADD SWAP1 DUP2 MSTORE PUSH1 0x20 ADD PUSH1 0x0 KECCAK256 SLOAD SWAP1 POP DUP2 DUP2 LT ISZERO PUSH2 0x1FFA JUMPI PUSH1 0x40 MLOAD PUSH32 0x8C379A000000000000000000000000000000000000000000000000000000000 DUP2 MSTORE PUSH1 0x4 ADD PUSH2 0x1FF1 SWAP1 PUSH2 0x3F19 JUMP JUMPDEST PUSH1 0x40 MLOAD DUP1 SWAP2 SUB SWAP1 REVERT JUMPDEST DUP2 DUP2 SUB PUSH1 0x0 DUP1 DUP7 PUSH20 0xFFFFFFFFFFFFFFFFFFFFFFFFFFFFFFFFFFFFFFFF AND PUSH20 0xFFFFFFFFFFFFFFFFFFFFFFFFFFFFFFFFFFFFFFFF AND DUP2 MSTORE PUSH1 0x20 ADD SWAP1 DUP2 MSTORE PUSH1 0x20 ADD PUSH1 0x0 KECCAK256 DUP2 SWAP1 SSTORE POP DUP2 PUSH1 0x0 DUP1 DUP6 PUSH20 0xFFFFFFFFFFFFFFFFFFFFFFFFFFFFFFFFFFFFFFFF AND PUSH20 0xFFFFFFFFFFFFFFFFFFFFFFFFFFFFFFFFFFFFFFFF AND DUP2 MSTORE PUSH1 0x20 ADD SWAP1 DUP2 MSTORE PUSH1 0x20 ADD PUSH1 0x0 KECCAK256 PUSH1 0x0 DUP3 DUP3 SLOAD ADD SWAP3 POP POP DUP2 SWAP1 SSTORE POP DUP3 PUSH20 0xFFFFFFFFFFFFFFFFFFFFFFFFFFFFFFFFFFFFFFFF AND DUP5 PUSH20 0xFFFFFFFFFFFFFFFFFFFFFFFFFFFFFFFFFFFFFFFF AND PUSH32 0xDDF252AD1BE2C89B69C2B068FC378DAA952BA7F163C4A11628F55A4DF523B3EF DUP5 PUSH1 0x40 MLOAD PUSH2 0x20E8 SWAP2 SWAP1 PUSH2 0x3089 JUMP JUMPDEST PUSH1 0x40 MLOAD DUP1 SWAP2 SUB SWAP1 LOG3 PUSH2 0x20FB DUP5 DUP5 DUP5 PUSH2 0x2B41 JUMP JUMPDEST POP POP POP POP JUMP JUMPDEST PUSH2 0x2112 DUP2 PUSH2 0x210D PUSH2 0x1C2E JUMP JUMPDEST PUSH2 0x2B46 JUMP JUMPDEST POP JUMP JUMPDEST PUSH2 0x211F DUP3 DUP3 PUSH2 0x1201 JUMP JUMPDEST PUSH2 0x21F2 JUMPI PUSH1 0x1 PUSH1 0x5 PUSH1 0x0 DUP5 DUP2 MSTORE PUSH1 0x20 ADD SWAP1 DUP2 MSTORE PUSH1 0x20 ADD PUSH1 0x0 KECCAK256 PUSH1 0x0 ADD PUSH1 0x0 DUP4 PUSH20 0xFFFFFFFFFFFFFFFFFFFFFFFFFFFFFFFFFFFFFFFF AND PUSH20 0xFFFFFFFFFFFFFFFFFFFFFFFFFFFFFFFFFFFFFFFF AND DUP2 MSTORE PUSH1 0x20 ADD SWAP1 DUP2 MSTORE PUSH1 0x20 ADD PUSH1 0x0 KECCAK256 PUSH1 0x0 PUSH2 0x100 EXP DUP2 SLOAD DUP2 PUSH1 0xFF MUL NOT AND SWAP1 DUP4 ISZERO ISZERO MUL OR SWAP1 SSTORE POP PUSH2 0x2197 PUSH2 0x1C2E JUMP JUMPDEST PUSH20 0xFFFFFFFFFFFFFFFFFFFFFFFFFFFFFFFFFFFFFFFF AND DUP2 PUSH20 0xFFFFFFFFFFFFFFFFFFFFFFFFFFFFFFFFFFFFFFFF AND DUP4 PUSH32 0x2F8788117E7EFF1D82E926EC794901D17C78024A50270940304540A733656F0D PUSH1 0x40 MLOAD PUSH1 0x40 MLOAD DUP1 SWAP2 SUB SWAP1 LOG4 JUMPDEST POP POP JUMP JUMPDEST PUSH2 0x2200 DUP3 DUP3 PUSH2 0x1201 JUMP JUMPDEST ISZERO PUSH2 0x22D4 JUMPI PUSH1 0x0 PUSH1 0x5 PUSH1 0x0 DUP5 DUP2 MSTORE PUSH1 0x20 ADD SWAP1 DUP2 MSTORE PUSH1 0x20 ADD PUSH1 0x0 KECCAK256 PUSH1 0x0 ADD PUSH1 0x0 DUP4 PUSH20 0xFFFFFFFFFFFFFFFFFFFFFFFFFFFFFFFFFFFFFFFF AND PUSH20 0xFFFFFFFFFFFFFFFFFFFFFFFFFFFFFFFFFFFFFFFF AND DUP2 MSTORE PUSH1 0x20 ADD SWAP1 DUP2 MSTORE PUSH1 0x20 ADD PUSH1 0x0 KECCAK256 PUSH1 0x0 PUSH2 0x100 EXP DUP2 SLOAD DUP2 PUSH1 0xFF MUL NOT AND SWAP1 DUP4 ISZERO ISZERO MUL OR SWAP1 SSTORE POP PUSH2 0x2279 PUSH2 0x1C2E JUMP JUMPDEST PUSH20 0xFFFFFFFFFFFFFFFFFFFFFFFFFFFFFFFFFFFFFFFF AND DUP2 PUSH20 0xFFFFFFFFFFFFFFFFFFFFFFFFFFFFFFFFFFFFFFFF AND DUP4 PUSH32 0xF6391F5C32D9C69D2A47EA670B442974B53935D1EDC7FD64EB21E047A839171B PUSH1 0x40 MLOAD PUSH1 0x40 MLOAD DUP1 SWAP2 SUB SWAP1 LOG4 JUMPDEST POP POP JUMP JUMPDEST PUSH1 0x0 DUP1 PUSH1 0x0 PUSH3 0x15180 PUSH1 0x8 SLOAD TIMESTAMP PUSH2 0x22EF SWAP2 SWAP1 PUSH2 0x34BA JUMP JUMPDEST PUSH2 0x22F9 SWAP2 SWAP1 PUSH2 0x351D JUMP JUMPDEST SWAP1 POP PUSH1 0x7 SLOAD DUP2 PUSH9 0x97C9CE4CF6D5C00000 PUSH1 0xA PUSH1 0x0 DUP9 PUSH20 0xFFFFFFFFFFFFFFFFFFFFFFFFFFFFFFFFFFFFFFFF AND PUSH20 0xFFFFFFFFFFFFFFFFFFFFFFFFFFFFFFFFFFFFFFFF AND DUP2 MSTORE PUSH1 0x20 ADD SWAP1 DUP2 MSTORE PUSH1 0x20 ADD PUSH1 0x0 KECCAK256 PUSH1 0x0 ADD SLOAD PUSH2 0x2356 SWAP2 SWAP1 PUSH2 0x354E JUMP JUMPDEST PUSH2 0x2360 SWAP2 SWAP1 PUSH2 0x354E JUMP JUMPDEST PUSH2 0x236A SWAP2 SWAP1 PUSH2 0x351D JUMP JUMPDEST SWAP2 POP DUP2 SWAP3 POP POP POP SWAP2 SWAP1 POP JUMP JUMPDEST PUSH1 0x0 PUSH3 0x15180 PUSH1 0x8 SLOAD TIMESTAMP PUSH2 0x238A SWAP2 SWAP1 PUSH2 0x34BA JUMP JUMPDEST PUSH2 0x2394 SWAP2 SWAP1 PUSH2 0x351D JUMP JUMPDEST SWAP1 POP PUSH1 0x0 JUMPDEST PUSH1 0x6 SLOAD DUP2 LT ISZERO PUSH2 0x2620 JUMPI PUSH1 0x8 SLOAD PUSH1 0xA PUSH1 0x0 PUSH1 0xB DUP5 DUP2 SLOAD DUP2 LT PUSH2 0x23BE JUMPI PUSH2 0x23BD PUSH2 0x3F39 JUMP JUMPDEST JUMPDEST SWAP1 PUSH1 0x0 MSTORE PUSH1 0x20 PUSH1 0x0 KECCAK256 ADD PUSH1 0x0 SWAP1 SLOAD SWAP1 PUSH2 0x100 EXP SWAP1 DIV PUSH20 0xFFFFFFFFFFFFFFFFFFFFFFFFFFFFFFFFFFFFFFFF AND PUSH20 0xFFFFFFFFFFFFFFFFFFFFFFFFFFFFFFFFFFFFFFFF AND PUSH20 0xFFFFFFFFFFFFFFFFFFFFFFFFFFFFFFFFFFFFFFFF AND DUP2 MSTORE PUSH1 0x20 ADD SWAP1 DUP2 MSTORE PUSH1 0x20 ADD PUSH1 0x0 KECCAK256 PUSH1 0x3 ADD SLOAD GT ISZERO PUSH2 0x24CA JUMPI PUSH3 0x15180 PUSH1 0xA PUSH1 0x0 PUSH1 0xB DUP5 DUP2 SLOAD DUP2 LT PUSH2 0x2449 JUMPI PUSH2 0x2448 PUSH2 0x3F39 JUMP JUMPDEST JUMPDEST SWAP1 PUSH1 0x0 MSTORE PUSH1 0x20 PUSH1 0x0 KECCAK256 ADD PUSH1 0x0 SWAP1 SLOAD SWAP1 PUSH2 0x100 EXP SWAP1 DIV PUSH20 0xFFFFFFFFFFFFFFFFFFFFFFFFFFFFFFFFFFFFFFFF AND PUSH20 0xFFFFFFFFFFFFFFFFFFFFFFFFFFFFFFFFFFFFFFFF AND PUSH20 0xFFFFFFFFFFFFFFFFFFFFFFFFFFFFFFFFFFFFFFFF AND DUP2 MSTORE PUSH1 0x20 ADD SWAP1 DUP2 MSTORE PUSH1 0x20 ADD PUSH1 0x0 KECCAK256 PUSH1 0x3 ADD SLOAD TIMESTAMP PUSH2 0x24BD SWAP2 SWAP1 PUSH2 0x34BA JUMP JUMPDEST PUSH2 0x24C7 SWAP2 SWAP1 PUSH2 0x351D JUMP JUMPDEST SWAP2 POP JUMPDEST PUSH1 0x7 SLOAD DUP3 PUSH9 0x97C9CE4CF6D5C00000 PUSH1 0xA PUSH1 0x0 PUSH1 0xB DUP7 DUP2 SLOAD DUP2 LT PUSH2 0x24F0 JUMPI PUSH2 0x24EF PUSH2 0x3F39 JUMP JUMPDEST JUMPDEST SWAP1 PUSH1 0x0 MSTORE PUSH1 0x20 PUSH1 0x0 KECCAK256 ADD PUSH1 0x0 SWAP1 SLOAD SWAP1 PUSH2 0x100 EXP SWAP1 DIV PUSH20 0xFFFFFFFFFFFFFFFFFFFFFFFFFFFFFFFFFFFFFFFF AND PUSH20 0xFFFFFFFFFFFFFFFFFFFFFFFFFFFFFFFFFFFFFFFF AND PUSH20 0xFFFFFFFFFFFFFFFFFFFFFFFFFFFFFFFFFFFFFFFF AND DUP2 MSTORE PUSH1 0x20 ADD SWAP1 DUP2 MSTORE PUSH1 0x20 ADD PUSH1 0x0 KECCAK256 PUSH1 0x0 ADD SLOAD PUSH2 0x2563 SWAP2 SWAP1 PUSH2 0x354E JUMP JUMPDEST PUSH2 0x256D SWAP2 SWAP1 PUSH2 0x354E JUMP JUMPDEST PUSH2 0x2577 SWAP2 SWAP1 PUSH2 0x351D JUMP JUMPDEST PUSH1 0xA PUSH1 0x0 PUSH1 0xB DUP5 DUP2 SLOAD DUP2 LT PUSH2 0x258F JUMPI PUSH2 0x258E PUSH2 0x3F39 JUMP JUMPDEST JUMPDEST SWAP1 PUSH1 0x0 MSTORE PUSH1 0x20 PUSH1 0x0 KECCAK256 ADD PUSH1 0x0 SWAP1 SLOAD SWAP1 PUSH2 0x100 EXP SWAP1 DIV PUSH20 0xFFFFFFFFFFFFFFFFFFFFFFFFFFFFFFFFFFFFFFFF AND PUSH20 0xFFFFFFFFFFFFFFFFFFFFFFFFFFFFFFFFFFFFFFFF AND PUSH20 0xFFFFFFFFFFFFFFFFFFFFFFFFFFFFFFFFFFFFFFFF AND DUP2 MSTORE PUSH1 0x20 ADD SWAP1 DUP2 MSTORE PUSH1 0x20 ADD PUSH1 0x0 KECCAK256 PUSH1 0x2 ADD PUSH1 0x0 DUP3 DUP3 SLOAD PUSH2 0x2606 SWAP2 SWAP1 PUSH2 0x3590 JUMP JUMPDEST SWAP3 POP POP DUP2 SWAP1 SSTORE POP DUP1 DUP1 PUSH2 0x2618 SWAP1 PUSH2 0x3BAB JUMP JUMPDEST SWAP2 POP POP PUSH2 0x2399 JUMP JUMPDEST POP POP JUMP JUMPDEST PUSH1 0x0 DUP1 JUMPDEST PUSH1 0x6 SLOAD DUP2 LT ISZERO PUSH2 0x26BE JUMPI DUP3 PUSH20 0xFFFFFFFFFFFFFFFFFFFFFFFFFFFFFFFFFFFFFFFF AND PUSH1 0xB DUP3 DUP2 SLOAD DUP2 LT PUSH2 0x265D JUMPI PUSH2 0x265C PUSH2 0x3F39 JUMP JUMPDEST JUMPDEST SWAP1 PUSH1 0x0 MSTORE PUSH1 0x20 PUSH1 0x0 KECCAK256 ADD PUSH1 0x0 SWAP1 SLOAD SWAP1 PUSH2 0x100 EXP SWAP1 DIV PUSH20 0xFFFFFFFFFFFFFFFFFFFFFFFFFFFFFFFFFFFFFFFF AND PUSH20 0xFFFFFFFFFFFFFFFFFFFFFFFFFFFFFFFFFFFFFFFF AND SUB PUSH2 0x26AB JUMPI DUP1 SWAP2 POP PUSH2 0x26BE JUMP JUMPDEST DUP1 DUP1 PUSH2 0x26B6 SWAP1 PUSH2 0x3BAB JUMP JUMPDEST SWAP2 POP POP PUSH2 0x2628 JUMP JUMPDEST POP ADDRESS PUSH20 0xFFFFFFFFFFFFFFFFFFFFFFFFFFFFFFFFFFFFFFFF AND PUSH4 0xD547741F PUSH32 0x4AA71DE0DA4208DC9EE441C63978E580C4F1B98782158B74CB390E4E6CE7CDBB PUSH1 0xB DUP5 DUP2 SLOAD DUP2 LT PUSH2 0x2710 JUMPI PUSH2 0x270F PUSH2 0x3F39 JUMP JUMPDEST JUMPDEST SWAP1 PUSH1 0x0 MSTORE PUSH1 0x20 PUSH1 0x0 KECCAK256 ADD PUSH1 0x0 SWAP1 SLOAD SWAP1 PUSH2 0x100 EXP SWAP1 DIV PUSH20 0xFFFFFFFFFFFFFFFFFFFFFFFFFFFFFFFFFFFFFFFF AND PUSH1 0x40 MLOAD DUP4 PUSH4 0xFFFFFFFF AND PUSH1 0xE0 SHL DUP2 MSTORE PUSH1 0x4 ADD PUSH2 0x2758 SWAP3 SWAP2 SWAP1 PUSH2 0x3462 JUMP JUMPDEST PUSH1 0x0 PUSH1 0x40 MLOAD DUP1 DUP4 SUB DUP2 PUSH1 0x0 DUP8 DUP1 EXTCODESIZE ISZERO DUP1 ISZERO PUSH2 0x2772 JUMPI PUSH1 0x0 DUP1 REVERT JUMPDEST POP GAS CALL ISZERO DUP1 ISZERO PUSH2 0x2786 JUMPI RETURNDATASIZE PUSH1 0x0 DUP1 RETURNDATACOPY RETURNDATASIZE PUSH1 0x0 REVERT JUMPDEST POP POP POP POP PUSH1 0x0 PUSH1 0xA PUSH1 0x0 PUSH1 0xB DUP5 DUP2 SLOAD DUP2 LT PUSH2 0x27A4 JUMPI PUSH2 0x27A3 PUSH2 0x3F39 JUMP JUMPDEST JUMPDEST SWAP1 PUSH1 0x0 MSTORE PUSH1 0x20 PUSH1 0x0 KECCAK256 ADD PUSH1 0x0 SWAP1 SLOAD SWAP1 PUSH2 0x100 EXP SWAP1 DIV PUSH20 0xFFFFFFFFFFFFFFFFFFFFFFFFFFFFFFFFFFFFFFFF AND PUSH20 0xFFFFFFFFFFFFFFFFFFFFFFFFFFFFFFFFFFFFFFFF AND PUSH20 0xFFFFFFFFFFFFFFFFFFFFFFFFFFFFFFFFFFFFFFFF AND DUP2 MSTORE PUSH1 0x20 ADD SWAP1 DUP2 MSTORE PUSH1 0x20 ADD PUSH1 0x0 KECCAK256 PUSH1 0x2 ADD SLOAD SWAP1 POP PUSH1 0x0 DUP2 GT ISZERO PUSH2 0x2928 JUMPI DUP1 PUSH1 0x9 PUSH1 0x0 PUSH1 0xB DUP6 DUP2 SLOAD DUP2 LT PUSH2 0x2831 JUMPI PUSH2 0x2830 PUSH2 0x3F39 JUMP JUMPDEST JUMPDEST SWAP1 PUSH1 0x0 MSTORE PUSH1 0x20 PUSH1 0x0 KECCAK256 ADD PUSH1 0x0 SWAP1 SLOAD SWAP1 PUSH2 0x100 EXP SWAP1 DIV PUSH20 0xFFFFFFFFFFFFFFFFFFFFFFFFFFFFFFFFFFFFFFFF AND PUSH20 0xFFFFFFFFFFFFFFFFFFFFFFFFFFFFFFFFFFFFFFFF AND PUSH20 0xFFFFFFFFFFFFFFFFFFFFFFFFFFFFFFFFFFFFFFFF AND DUP2 MSTORE PUSH1 0x20 ADD SWAP1 DUP2 MSTORE PUSH1 0x20 ADD PUSH1 0x0 KECCAK256 DUP2 SWAP1 SSTORE POP ADDRESS PUSH20 0xFFFFFFFFFFFFFFFFFFFFFFFFFFFFFFFFFFFFFFFF AND PUSH4 0x2F2FF15D PUSH32 0x11A8CB5A02BD6C42679835E867EF2118BA78F088F8300511420C6603C21D9C78 DUP6 PUSH1 0x40 MLOAD DUP4 PUSH4 0xFFFFFFFF AND PUSH1 0xE0 SHL DUP2 MSTORE PUSH1 0x4 ADD PUSH2 0x28F5 SWAP3 SWAP2 SWAP1 PUSH2 0x3462 JUMP JUMPDEST PUSH1 0x0 PUSH1 0x40 MLOAD DUP1 DUP4 SUB DUP2 PUSH1 0x0 DUP8 DUP1 EXTCODESIZE ISZERO DUP1 ISZERO PUSH2 0x290F JUMPI PUSH1 0x0 DUP1 REVERT JUMPDEST POP GAS CALL ISZERO DUP1 ISZERO PUSH2 0x2923 JUMPI RETURNDATASIZE PUSH1 0x0 DUP1 RETURNDATACOPY RETURNDATASIZE PUSH1 0x0 REVERT JUMPDEST POP POP POP POP JUMPDEST PUSH1 0x1 PUSH1 0x6 SLOAD PUSH2 0x2937 SWAP2 SWAP1 PUSH2 0x34BA JUMP JUMPDEST DUP3 EQ PUSH2 0x2A71 JUMPI PUSH1 0xA PUSH1 0x0 PUSH1 0xB PUSH1 0x1 PUSH1 0x6 SLOAD PUSH2 0x2952 SWAP2 SWAP1 PUSH2 0x34BA JUMP JUMPDEST DUP2 SLOAD DUP2 LT PUSH2 0x2963 JUMPI PUSH2 0x2962 PUSH2 0x3F39 JUMP JUMPDEST JUMPDEST SWAP1 PUSH1 0x0 MSTORE PUSH1 0x20 PUSH1 0x0 KECCAK256 ADD PUSH1 0x0 SWAP1 SLOAD SWAP1 PUSH2 0x100 EXP SWAP1 DIV PUSH20 0xFFFFFFFFFFFFFFFFFFFFFFFFFFFFFFFFFFFFFFFF AND PUSH20 0xFFFFFFFFFFFFFFFFFFFFFFFFFFFFFFFFFFFFFFFF AND PUSH20 0xFFFFFFFFFFFFFFFFFFFFFFFFFFFFFFFFFFFFFFFF AND DUP2 MSTORE PUSH1 0x20 ADD SWAP1 DUP2 MSTORE PUSH1 0x20 ADD PUSH1 0x0 KECCAK256 PUSH1 0xA PUSH1 0x0 PUSH1 0xB DUP6 DUP2 SLOAD DUP2 LT PUSH2 0x29E0 JUMPI PUSH2 0x29DF PUSH2 0x3F39 JUMP JUMPDEST JUMPDEST SWAP1 PUSH1 0x0 MSTORE PUSH1 0x20 PUSH1 0x0 KECCAK256 ADD PUSH1 0x0 SWAP1 SLOAD SWAP1 PUSH2 0x100 EXP SWAP1 DIV PUSH20 0xFFFFFFFFFFFFFFFFFFFFFFFFFFFFFFFFFFFFFFFF AND PUSH20 0xFFFFFFFFFFFFFFFFFFFFFFFFFFFFFFFFFFFFFFFF AND PUSH20 0xFFFFFFFFFFFFFFFFFFFFFFFFFFFFFFFFFFFFFFFF AND DUP2 MSTORE PUSH1 0x20 ADD SWAP1 DUP2 MSTORE PUSH1 0x20 ADD PUSH1 0x0 KECCAK256 PUSH1 0x0 DUP3 ADD SLOAD DUP2 PUSH1 0x0 ADD SSTORE PUSH1 0x1 DUP3 ADD SLOAD DUP2 PUSH1 0x1 ADD SSTORE PUSH1 0x2 DUP3 ADD SLOAD DUP2 PUSH1 0x2 ADD SSTORE PUSH1 0x3 DUP3 ADD SLOAD DUP2 PUSH1 0x3 ADD SSTORE SWAP1 POP POP JUMPDEST PUSH1 0xA PUSH1 0x0 PUSH1 0xB PUSH1 0x1 PUSH1 0x6 SLOAD PUSH2 0x2A86 SWAP2 SWAP1 PUSH2 0x34BA JUMP JUMPDEST DUP2 SLOAD DUP2 LT PUSH2 0x2A97 JUMPI PUSH2 0x2A96 PUSH2 0x3F39 JUMP JUMPDEST JUMPDEST SWAP1 PUSH1 0x0 MSTORE PUSH1 0x20 PUSH1 0x0 KECCAK256 ADD PUSH1 0x0 SWAP1 SLOAD SWAP1 PUSH2 0x100 EXP SWAP1 DIV PUSH20 0xFFFFFFFFFFFFFFFFFFFFFFFFFFFFFFFFFFFFFFFF AND PUSH20 0xFFFFFFFFFFFFFFFFFFFFFFFFFFFFFFFFFFFFFFFF AND PUSH20 0xFFFFFFFFFFFFFFFFFFFFFFFFFFFFFFFFFFFFFFFF AND DUP2 MSTORE PUSH1 0x20 ADD SWAP1 DUP2 MSTORE PUSH1 0x20 ADD PUSH1 0x0 KECCAK256 PUSH1 0x0 DUP1 DUP3 ADD PUSH1 0x0 SWAP1 SSTORE PUSH1 0x1 DUP3 ADD PUSH1 0x0 SWAP1 SSTORE PUSH1 0x2 DUP3 ADD PUSH1 0x0 SWAP1 SSTORE PUSH1 0x3 DUP3 ADD PUSH1 0x0 SWAP1 SSTORE POP POP PUSH1 0x6 PUSH1 0x0 DUP2 SLOAD DUP1 SWAP3 SWAP2 SWAP1 PUSH2 0x2B32 SWAP1 PUSH2 0x3F68 JUMP JUMPDEST SWAP2 SWAP1 POP SSTORE POP POP POP POP JUMP JUMPDEST POP POP POP JUMP JUMPDEST POP POP POP JUMP JUMPDEST PUSH2 0x2B50 DUP3 DUP3 PUSH2 0x1201 JUMP JUMPDEST PUSH2 0x2BC7 JUMPI PUSH2 0x2B5D DUP2 PUSH2 0x2BCB JUMP JUMPDEST PUSH2 0x2B6B DUP4 PUSH1 0x0 SHR PUSH1 0x20 PUSH2 0x2BF8 JUMP JUMPDEST PUSH1 0x40 MLOAD PUSH1 0x20 ADD PUSH2 0x2B7C SWAP3 SWAP2 SWAP1 PUSH2 0x4065 JUMP JUMPDEST PUSH1 0x40 MLOAD PUSH1 0x20 DUP2 DUP4 SUB SUB DUP2 MSTORE SWAP1 PUSH1 0x40 MSTORE PUSH1 0x40 MLOAD PUSH32 0x8C379A000000000000000000000000000000000000000000000000000000000 DUP2 MSTORE PUSH1 0x4 ADD PUSH2 0x2BBE SWAP2 SWAP1 PUSH2 0x2F84 JUMP JUMPDEST PUSH1 0x40 MLOAD DUP1 SWAP2 SUB SWAP1 REVERT JUMPDEST POP POP JUMP JUMPDEST PUSH1 0x60 PUSH2 0x2BF1 DUP3 PUSH20 0xFFFFFFFFFFFFFFFFFFFFFFFFFFFFFFFFFFFFFFFF AND PUSH1 0x14 PUSH1 0xFF AND PUSH2 0x2BF8 JUMP JUMPDEST SWAP1 POP SWAP2 SWAP1 POP JUMP JUMPDEST PUSH1 0x60 PUSH1 0x0 PUSH1 0x2 DUP4 PUSH1 0x2 PUSH2 0x2C0B SWAP2 SWAP1 PUSH2 0x354E JUMP JUMPDEST PUSH2 0x2C15 SWAP2 SWAP1 PUSH2 0x3590 JUMP JUMPDEST PUSH8 0xFFFFFFFFFFFFFFFF DUP2 GT ISZERO PUSH2 0x2C2E JUMPI PUSH2 0x2C2D PUSH2 0x409F JUMP JUMPDEST JUMPDEST PUSH1 0x40 MLOAD SWAP1 DUP1 DUP3 MSTORE DUP1 PUSH1 0x1F ADD PUSH1 0x1F NOT AND PUSH1 0x20 ADD DUP3 ADD PUSH1 0x40 MSTORE DUP1 ISZERO PUSH2 0x2C60 JUMPI DUP2 PUSH1 0x20 ADD PUSH1 0x1 DUP3 MUL DUP1 CALLDATASIZE DUP4 CALLDATACOPY DUP1 DUP3 ADD SWAP2 POP POP SWAP1 POP JUMPDEST POP SWAP1 POP PUSH32 0x3000000000000000000000000000000000000000000000000000000000000000 DUP2 PUSH1 0x0 DUP2 MLOAD DUP2 LT PUSH2 0x2C98 JUMPI PUSH2 0x2C97 PUSH2 0x3F39 JUMP JUMPDEST JUMPDEST PUSH1 0x20 ADD ADD SWAP1 PUSH31 0xFFFFFFFFFFFFFFFFFFFFFFFFFFFFFFFFFFFFFFFFFFFFFFFFFFFFFFFFFFFFFF NOT AND SWAP1 DUP2 PUSH1 0x0 BYTE SWAP1 MSTORE8 POP PUSH32 0x7800000000000000000000000000000000000000000000000000000000000000 DUP2 PUSH1 0x1 DUP2 MLOAD DUP2 LT PUSH2 0x2CFC JUMPI PUSH2 0x2CFB PUSH2 0x3F39 JUMP JUMPDEST JUMPDEST PUSH1 0x20 ADD ADD SWAP1 PUSH31 0xFFFFFFFFFFFFFFFFFFFFFFFFFFFFFFFFFFFFFFFFFFFFFFFFFFFFFFFFFFFFFF NOT AND SWAP1 DUP2 PUSH1 0x0 BYTE SWAP1 MSTORE8 POP PUSH1 0x0 PUSH1 0x1 DUP5 PUSH1 0x2 PUSH2 0x2D3C SWAP2 SWAP1 PUSH2 0x354E JUMP JUMPDEST PUSH2 0x2D46 SWAP2 SWAP1 PUSH2 0x3590 JUMP JUMPDEST SWAP1 POP JUMPDEST PUSH1 0x1 DUP2 GT ISZERO PUSH2 0x2DE6 JUMPI PUSH32 0x3031323334353637383961626364656600000000000000000000000000000000 PUSH1 0xF DUP7 AND PUSH1 0x10 DUP2 LT PUSH2 0x2D88 JUMPI PUSH2 0x2D87 PUSH2 0x3F39 JUMP JUMPDEST JUMPDEST BYTE PUSH1 0xF8 SHL DUP3 DUP3 DUP2 MLOAD DUP2 LT PUSH2 0x2D9F JUMPI PUSH2 0x2D9E PUSH2 0x3F39 JUMP JUMPDEST JUMPDEST PUSH1 0x20 ADD ADD SWAP1 PUSH31 0xFFFFFFFFFFFFFFFFFFFFFFFFFFFFFFFFFFFFFFFFFFFFFFFFFFFFFFFFFFFFFF NOT AND SWAP1 DUP2 PUSH1 0x0 BYTE SWAP1 MSTORE8 POP PUSH1 0x4 DUP6 SWAP1 SHR SWAP5 POP DUP1 PUSH2 0x2DDF SWAP1 PUSH2 0x3F68 JUMP JUMPDEST SWAP1 POP PUSH2 0x2D49 JUMP JUMPDEST POP PUSH1 0x0 DUP5 EQ PUSH2 0x2E2A JUMPI PUSH1 0x40 MLOAD PUSH32 0x8C379A000000000000000000000000000000000000000000000000000000000 DUP2 MSTORE PUSH1 0x4 ADD PUSH2 0x2E21 SWAP1 PUSH2 0x411A JUMP JUMPDEST PUSH1 0x40 MLOAD DUP1 SWAP2 SUB SWAP1 REVERT JUMPDEST DUP1 SWAP2 POP POP SWAP3 SWAP2 POP POP JUMP JUMPDEST PUSH1 0x0 DUP1 REVERT JUMPDEST PUSH1 0x0 PUSH32 0xFFFFFFFF00000000000000000000000000000000000000000000000000000000 DUP3 AND SWAP1 POP SWAP2 SWAP1 POP JUMP JUMPDEST PUSH2 0x2E6E DUP2 PUSH2 0x2E39 JUMP JUMPDEST DUP2 EQ PUSH2 0x2E79 JUMPI PUSH1 0x0 DUP1 REVERT JUMPDEST POP JUMP JUMPDEST PUSH1 0x0 DUP2 CALLDATALOAD SWAP1 POP PUSH2 0x2E8B DUP2 PUSH2 0x2E65 JUMP JUMPDEST SWAP3 SWAP2 POP POP JUMP JUMPDEST PUSH1 0x0 PUSH1 0x20 DUP3 DUP5 SUB SLT ISZERO PUSH2 0x2EA7 JUMPI PUSH2 0x2EA6 PUSH2 0x2E34 JUMP JUMPDEST JUMPDEST PUSH1 0x0 PUSH2 0x2EB5 DUP5 DUP3 DUP6 ADD PUSH2 0x2E7C JUMP JUMPDEST SWAP2 POP POP SWAP3 SWAP2 POP POP JUMP JUMPDEST PUSH1 0x0 DUP2 ISZERO ISZERO SWAP1 POP SWAP2 SWAP1 POP JUMP JUMPDEST PUSH2 0x2ED3 DUP2 PUSH2 0x2EBE JUMP JUMPDEST DUP3 MSTORE POP POP JUMP JUMPDEST PUSH1 0x0 PUSH1 0x20 DUP3 ADD SWAP1 POP PUSH2 0x2EEE PUSH1 0x0 DUP4 ADD DUP5 PUSH2 0x2ECA JUMP JUMPDEST SWAP3 SWAP2 POP POP JUMP JUMPDEST PUSH1 0x0 DUP2 MLOAD SWAP1 POP SWAP2 SWAP1 POP JUMP JUMPDEST PUSH1 0x0 DUP3 DUP3 MSTORE PUSH1 0x20 DUP3 ADD SWAP1 POP SWAP3 SWAP2 POP POP JUMP JUMPDEST PUSH1 0x0 JUMPDEST DUP4 DUP2 LT ISZERO PUSH2 0x2F2E JUMPI DUP1 DUP3 ADD MLOAD DUP2 DUP5 ADD MSTORE PUSH1 0x20 DUP2 ADD SWAP1 POP PUSH2 0x2F13 JUMP JUMPDEST PUSH1 0x0 DUP5 DUP5 ADD MSTORE POP POP POP POP JUMP JUMPDEST PUSH1 0x0 PUSH1 0x1F NOT PUSH1 0x1F DUP4 ADD AND SWAP1 POP SWAP2 SWAP1 POP JUMP JUMPDEST PUSH1 0x0 PUSH2 0x2F56 DUP3 PUSH2 0x2EF4 JUMP JUMPDEST PUSH2 0x2F60 DUP2 DUP6 PUSH2 0x2EFF JUMP JUMPDEST SWAP4 POP PUSH2 0x2F70 DUP2 DUP6 PUSH1 0x20 DUP7 ADD PUSH2 0x2F10 JUMP JUMPDEST PUSH2 0x2F79 DUP2 PUSH2 0x2F3A JUMP JUMPDEST DUP5 ADD SWAP2 POP POP SWAP3 SWAP2 POP POP JUMP JUMPDEST PUSH1 0x0 PUSH1 0x20 DUP3 ADD SWAP1 POP DUP2 DUP2 SUB PUSH1 0x0 DUP4 ADD MSTORE PUSH2 0x2F9E DUP2 DUP5 PUSH2 0x2F4B JUMP JUMPDEST SWAP1 POP SWAP3 SWAP2 POP POP JUMP JUMPDEST PUSH1 0x0 PUSH20 0xFFFFFFFFFFFFFFFFFFFFFFFFFFFFFFFFFFFFFFFF DUP3 AND SWAP1 POP SWAP2 SWAP1 POP JUMP JUMPDEST PUSH1 0x0 PUSH2 0x2FD1 DUP3 PUSH2 0x2FA6 JUMP JUMPDEST SWAP1 POP SWAP2 SWAP1 POP JUMP JUMPDEST PUSH2 0x2FE1 DUP2 PUSH2 0x2FC6 JUMP JUMPDEST DUP2 EQ PUSH2 0x2FEC JUMPI PUSH1 0x0 DUP1 REVERT JUMPDEST POP JUMP JUMPDEST PUSH1 0x0 DUP2 CALLDATALOAD SWAP1 POP PUSH2 0x2FFE DUP2 PUSH2 0x2FD8 JUMP JUMPDEST SWAP3 SWAP2 POP POP JUMP JUMPDEST PUSH1 0x0 DUP2 SWAP1 POP SWAP2 SWAP1 POP JUMP JUMPDEST PUSH2 0x3017 DUP2 PUSH2 0x3004 JUMP JUMPDEST DUP2 EQ PUSH2 0x3022 JUMPI PUSH1 0x0 DUP1 REVERT JUMPDEST POP JUMP JUMPDEST PUSH1 0x0 DUP2 CALLDATALOAD SWAP1 POP PUSH2 0x3034 DUP2 PUSH2 0x300E JUMP JUMPDEST SWAP3 SWAP2 POP POP JUMP JUMPDEST PUSH1 0x0 DUP1 PUSH1 0x40 DUP4 DUP6 SUB SLT ISZERO PUSH2 0x3051 JUMPI PUSH2 0x3050 PUSH2 0x2E34 JUMP JUMPDEST JUMPDEST PUSH1 0x0 PUSH2 0x305F DUP6 DUP3 DUP7 ADD PUSH2 0x2FEF JUMP JUMPDEST SWAP3 POP POP PUSH1 0x20 PUSH2 0x3070 DUP6 DUP3 DUP7 ADD PUSH2 0x3025 JUMP JUMPDEST SWAP2 POP POP SWAP3 POP SWAP3 SWAP1 POP JUMP JUMPDEST PUSH2 0x3083 DUP2 PUSH2 0x3004 JUMP JUMPDEST DUP3 MSTORE POP POP JUMP JUMPDEST PUSH1 0x0 PUSH1 0x20 DUP3 ADD SWAP1 POP PUSH2 0x309E PUSH1 0x0 DUP4 ADD DUP5 PUSH2 0x307A JUMP JUMPDEST SWAP3 SWAP2 POP POP JUMP JUMPDEST PUSH1 0x0 PUSH1 0x20 DUP3 DUP5 SUB SLT ISZERO PUSH2 0x30BA JUMPI PUSH2 0x30B9 PUSH2 0x2E34 JUMP JUMPDEST JUMPDEST PUSH1 0x0 PUSH2 0x30C8 DUP5 DUP3 DUP6 ADD PUSH2 0x2FEF JUMP JUMPDEST SWAP2 POP POP SWAP3 SWAP2 POP POP JUMP JUMPDEST PUSH1 0x0 PUSH1 0x80 DUP3 ADD SWAP1 POP PUSH2 0x30E6 PUSH1 0x0 DUP4 ADD DUP8 PUSH2 0x307A JUMP JUMPDEST PUSH2 0x30F3 PUSH1 0x20 DUP4 ADD DUP7 PUSH2 0x307A JUMP JUMPDEST PUSH2 0x3100 PUSH1 0x40 DUP4 ADD DUP6 PUSH2 0x307A JUMP JUMPDEST PUSH2 0x310D PUSH1 0x60 DUP4 ADD DUP5 PUSH2 0x307A JUMP JUMPDEST SWAP6 SWAP5 POP POP POP POP POP JUMP JUMPDEST PUSH1 0x0 DUP1 PUSH1 0x0 PUSH1 0x60 DUP5 DUP7 SUB SLT ISZERO PUSH2 0x312F JUMPI PUSH2 0x312E PUSH2 0x2E34 JUMP JUMPDEST JUMPDEST PUSH1 0x0 PUSH2 0x313D DUP7 DUP3 DUP8 ADD PUSH2 0x2FEF JUMP JUMPDEST SWAP4 POP POP PUSH1 0x20 PUSH2 0x314E DUP7 DUP3 DUP8 ADD PUSH2 0x2FEF JUMP JUMPDEST SWAP3 POP POP PUSH1 0x40 PUSH2 0x315F DUP7 DUP3 DUP8 ADD PUSH2 0x3025 JUMP JUMPDEST SWAP2 POP POP SWAP3 POP SWAP3 POP SWAP3 JUMP JUMPDEST PUSH1 0x0 DUP2 SWAP1 POP SWAP2 SWAP1 POP JUMP JUMPDEST PUSH2 0x317C DUP2 PUSH2 0x3169 JUMP JUMPDEST DUP2 EQ PUSH2 0x3187 JUMPI PUSH1 0x0 DUP1 REVERT JUMPDEST POP JUMP JUMPDEST PUSH1 0x0 DUP2 CALLDATALOAD SWAP1 POP PUSH2 0x3199 DUP2 PUSH2 0x3173 JUMP JUMPDEST SWAP3 SWAP2 POP POP JUMP JUMPDEST PUSH1 0x0 PUSH1 0x20 DUP3 DUP5 SUB SLT ISZERO PUSH2 0x31B5 JUMPI PUSH2 0x31B4 PUSH2 0x2E34 JUMP JUMPDEST JUMPDEST PUSH1 0x0 PUSH2 0x31C3 DUP5 DUP3 DUP6 ADD PUSH2 0x318A JUMP JUMPDEST SWAP2 POP POP SWAP3 SWAP2 POP POP JUMP JUMPDEST PUSH2 0x31D5 DUP2 PUSH2 0x3169 JUMP JUMPDEST DUP3 MSTORE POP POP JUMP JUMPDEST PUSH1 0x0 PUSH1 0x20 DUP3 ADD SWAP1 POP PUSH2 0x31F0 PUSH1 0x0 DUP4 ADD DUP5 PUSH2 0x31CC JUMP JUMPDEST SWAP3 SWAP2 POP POP JUMP JUMPDEST PUSH1 0x0 DUP1 PUSH1 0x40 DUP4 DUP6 SUB SLT ISZERO PUSH2 0x320D JUMPI PUSH2 0x320C PUSH2 0x2E34 JUMP JUMPDEST JUMPDEST PUSH1 0x0 PUSH2 0x321B DUP6 DUP3 DUP7 ADD PUSH2 0x318A JUMP JUMPDEST SWAP3 POP POP PUSH1 0x20 PUSH2 0x322C DUP6 DUP3 DUP7 ADD PUSH2 0x2FEF JUMP JUMPDEST SWAP2 POP POP SWAP3 POP SWAP3 SWAP1 POP JUMP JUMPDEST PUSH1 0x0 PUSH1 0xFF DUP3 AND SWAP1 POP SWAP2 SWAP1 POP JUMP JUMPDEST PUSH2 0x324C DUP2 PUSH2 0x3236 JUMP JUMPDEST DUP3 MSTORE POP POP JUMP JUMPDEST PUSH1 0x0 PUSH1 0x20 DUP3 ADD SWAP1 POP PUSH2 0x3267 PUSH1 0x0 DUP4 ADD DUP5 PUSH2 0x3243 JUMP JUMPDEST SWAP3 SWAP2 POP POP JUMP JUMPDEST PUSH1 0x0 PUSH1 0x20 DUP3 DUP5 SUB SLT ISZERO PUSH2 0x3283 JUMPI PUSH2 0x3282 PUSH2 0x2E34 JUMP JUMPDEST JUMPDEST PUSH1 0x0 PUSH2 0x3291 DUP5 DUP3 DUP6 ADD PUSH2 0x3025 JUMP JUMPDEST SWAP2 POP POP SWAP3 SWAP2 POP POP JUMP JUMPDEST PUSH2 0x32A3 DUP2 PUSH2 0x2FC6 JUMP JUMPDEST DUP3 MSTORE POP POP JUMP JUMPDEST PUSH1 0x0 PUSH1 0x20 DUP3 ADD SWAP1 POP PUSH2 0x32BE PUSH1 0x0 DUP4 ADD DUP5 PUSH2 0x329A JUMP JUMPDEST SWAP3 SWAP2 POP POP JUMP JUMPDEST PUSH1 0x0 DUP1 PUSH1 0x40 DUP4 DUP6 SUB SLT ISZERO PUSH2 0x32DB JUMPI PUSH2 0x32DA PUSH2 0x2E34 JUMP JUMPDEST JUMPDEST PUSH1 0x0 PUSH2 0x32E9 DUP6 DUP3 DUP7 ADD PUSH2 0x2FEF JUMP JUMPDEST SWAP3 POP POP PUSH1 0x20 PUSH2 0x32FA DUP6 DUP3 DUP7 ADD PUSH2 0x2FEF JUMP JUMPDEST SWAP2 POP POP SWAP3 POP SWAP3 SWAP1 POP JUMP JUMPDEST PUSH32 0x4E487B7100000000000000000000000000000000000000000000000000000000 PUSH1 0x0 MSTORE PUSH1 0x22 PUSH1 0x4 MSTORE PUSH1 0x24 PUSH1 0x0 REVERT JUMPDEST PUSH1 0x0 PUSH1 0x2 DUP3 DIV SWAP1 POP PUSH1 0x1 DUP3 AND DUP1 PUSH2 0x334B JUMPI PUSH1 0x7F DUP3 AND SWAP2 POP JUMPDEST PUSH1 0x20 DUP3 LT DUP2 SUB PUSH2 0x335E JUMPI PUSH2 0x335D PUSH2 0x3304 JUMP JUMPDEST JUMPDEST POP SWAP2 SWAP1 POP JUMP JUMPDEST PUSH32 0x416363657373436F6E74726F6C3A2063616E206F6E6C792072656E6F756E6365 PUSH1 0x0 DUP3 ADD MSTORE PUSH32 0x20726F6C657320666F722073656C660000000000000000000000000000000000 PUSH1 0x20 DUP3 ADD MSTORE POP JUMP JUMPDEST PUSH1 0x0 PUSH2 0x33C0 PUSH1 0x2F DUP4 PUSH2 0x2EFF JUMP JUMPDEST SWAP2 POP PUSH2 0x33CB DUP3 PUSH2 0x3364 JUMP JUMPDEST PUSH1 0x40 DUP3 ADD SWAP1 POP SWAP2 SWAP1 POP JUMP JUMPDEST PUSH1 0x0 PUSH1 0x20 DUP3 ADD SWAP1 POP DUP2 DUP2 SUB PUSH1 0x0 DUP4 ADD MSTORE PUSH2 0x33EF DUP2 PUSH2 0x33B3 JUMP JUMPDEST SWAP1 POP SWAP2 SWAP1 POP JUMP JUMPDEST PUSH32 0x4E6F7420656C696769626C6520746F20636C61696D2072657761726473210000 PUSH1 0x0 DUP3 ADD MSTORE POP JUMP JUMPDEST PUSH1 0x0 PUSH2 0x342C PUSH1 0x1E DUP4 PUSH2 0x2EFF JUMP JUMPDEST SWAP2 POP PUSH2 0x3437 DUP3 PUSH2 0x33F6 JUMP JUMPDEST PUSH1 0x20 DUP3 ADD SWAP1 POP SWAP2 SWAP1 POP JUMP JUMPDEST PUSH1 0x0 PUSH1 0x20 DUP3 ADD SWAP1 POP DUP2 DUP2 SUB PUSH1 0x0 DUP4 ADD MSTORE PUSH2 0x345B DUP2 PUSH2 0x341F JUMP JUMPDEST SWAP1 POP SWAP2 SWAP1 POP JUMP JUMPDEST PUSH1 0x0 PUSH1 0x40 DUP3 ADD SWAP1 POP PUSH2 0x3477 PUSH1 0x0 DUP4 ADD DUP6 PUSH2 0x31CC JUMP JUMPDEST PUSH2 0x3484 PUSH1 0x20 DUP4 ADD DUP5 PUSH2 0x329A JUMP JUMPDEST SWAP4 SWAP3 POP POP POP JUMP JUMPDEST PUSH32 0x4E487B7100000000000000000000000000000000000000000000000000000000 PUSH1 0x0 MSTORE PUSH1 0x11 PUSH1 0x4 MSTORE PUSH1 0x24 PUSH1 0x0 REVERT JUMPDEST PUSH1 0x0 PUSH2 0x34C5 DUP3 PUSH2 0x3004 JUMP JUMPDEST SWAP2 POP PUSH2 0x34D0 DUP4 PUSH2 0x3004 JUMP JUMPDEST SWAP3 POP DUP3 DUP3 SUB SWAP1 POP DUP2 DUP2 GT ISZERO PUSH2 0x34E8 JUMPI PUSH2 0x34E7 PUSH2 0x348B JUMP JUMPDEST JUMPDEST SWAP3 SWAP2 POP POP JUMP JUMPDEST PUSH32 0x4E487B7100000000000000000000000000000000000000000000000000000000 PUSH1 0x0 MSTORE PUSH1 0x12 PUSH1 0x4 MSTORE PUSH1 0x24 PUSH1 0x0 REVERT JUMPDEST PUSH1 0x0 PUSH2 0x3528 DUP3 PUSH2 0x3004 JUMP JUMPDEST SWAP2 POP PUSH2 0x3533 DUP4 PUSH2 0x3004 JUMP JUMPDEST SWAP3 POP DUP3 PUSH2 0x3543 JUMPI PUSH2 0x3542 PUSH2 0x34EE JUMP JUMPDEST JUMPDEST DUP3 DUP3 DIV SWAP1 POP SWAP3 SWAP2 POP POP JUMP JUMPDEST PUSH1 0x0 PUSH2 0x3559 DUP3 PUSH2 0x3004 JUMP JUMPDEST SWAP2 POP PUSH2 0x3564 DUP4 PUSH2 0x3004 JUMP JUMPDEST SWAP3 POP DUP3 DUP3 MUL PUSH2 0x3572 DUP2 PUSH2 0x3004 JUMP JUMPDEST SWAP2 POP DUP3 DUP3 DIV DUP5 EQ DUP4 ISZERO OR PUSH2 0x3589 JUMPI PUSH2 0x3588 PUSH2 0x348B JUMP JUMPDEST JUMPDEST POP SWAP3 SWAP2 POP POP JUMP JUMPDEST PUSH1 0x0 PUSH2 0x359B DUP3 PUSH2 0x3004 JUMP JUMPDEST SWAP2 POP PUSH2 0x35A6 DUP4 PUSH2 0x3004 JUMP JUMPDEST SWAP3 POP DUP3 DUP3 ADD SWAP1 POP DUP1 DUP3 GT ISZERO PUSH2 0x35BE JUMPI PUSH2 0x35BD PUSH2 0x348B JUMP JUMPDEST JUMPDEST SWAP3 SWAP2 POP POP JUMP JUMPDEST PUSH32 0x4E6F207265776172647320746F20636C61696D21000000000000000000000000 PUSH1 0x0 DUP3 ADD MSTORE POP JUMP JUMPDEST PUSH1 0x0 PUSH2 0x35FA PUSH1 0x14 DUP4 PUSH2 0x2EFF JUMP JUMPDEST SWAP2 POP PUSH2 0x3605 DUP3 PUSH2 0x35C4 JUMP JUMPDEST PUSH1 0x20 DUP3 ADD SWAP1 POP SWAP2 SWAP1 POP JUMP JUMPDEST PUSH1 0x0 PUSH1 0x20 DUP3 ADD SWAP1 POP DUP2 DUP2 SUB PUSH1 0x0 DUP4 ADD MSTORE PUSH2 0x3629 DUP2 PUSH2 0x35ED JUMP JUMPDEST SWAP1 POP SWAP2 SWAP1 POP JUMP JUMPDEST PUSH1 0x0 PUSH1 0x40 DUP3 ADD SWAP1 POP PUSH2 0x3645 PUSH1 0x0 DUP4 ADD DUP6 PUSH2 0x329A JUMP JUMPDEST PUSH2 0x3652 PUSH1 0x20 DUP4 ADD DUP5 PUSH2 0x307A JUMP JUMPDEST SWAP4 SWAP3 POP POP POP JUMP JUMPDEST PUSH2 0x3662 DUP2 PUSH2 0x2EBE JUMP JUMPDEST DUP2 EQ PUSH2 0x366D JUMPI PUSH1 0x0 DUP1 REVERT JUMPDEST POP JUMP JUMPDEST PUSH1 0x0 DUP2 MLOAD SWAP1 POP PUSH2 0x367F DUP2 PUSH2 0x3659 JUMP JUMPDEST SWAP3 SWAP2 POP POP JUMP JUMPDEST PUSH1 0x0 PUSH1 0x20 DUP3 DUP5 SUB SLT ISZERO PUSH2 0x369B JUMPI PUSH2 0x369A PUSH2 0x2E34 JUMP JUMPDEST JUMPDEST PUSH1 0x0 PUSH2 0x36A9 DUP5 DUP3 DUP6 ADD PUSH2 0x3670 JUMP JUMPDEST SWAP2 POP POP SWAP3 SWAP2 POP POP JUMP JUMPDEST PUSH1 0x0 PUSH1 0x40 DUP3 ADD SWAP1 POP PUSH2 0x36C7 PUSH1 0x0 DUP4 ADD DUP6 PUSH2 0x307A JUMP JUMPDEST PUSH2 0x36D4 PUSH1 0x20 DUP4 ADD DUP5 PUSH2 0x329A JUMP JUMPDEST SWAP4 SWAP3 POP POP POP JUMP JUMPDEST PUSH32 0x4E6F7420656C696769626C6520746F2076696577207265776172647321000000 PUSH1 0x0 DUP3 ADD MSTORE POP JUMP JUMPDEST PUSH1 0x0 PUSH2 0x3711 PUSH1 0x1D DUP4 PUSH2 0x2EFF JUMP JUMPDEST SWAP2 POP PUSH2 0x371C DUP3 PUSH2 0x36DB JUMP JUMPDEST PUSH1 0x20 DUP3 ADD SWAP1 POP SWAP2 SWAP1 POP JUMP JUMPDEST PUSH1 0x0 PUSH1 0x20 DUP3 ADD SWAP1 POP DUP2 DUP2 SUB PUSH1 0x0 DUP4 ADD MSTORE PUSH2 0x3740 DUP2 PUSH2 0x3704 JUMP JUMPDEST SWAP1 POP SWAP2 SWAP1 POP JUMP JUMPDEST PUSH32 0x45524332303A2064656372656173656420616C6C6F77616E63652062656C6F77 PUSH1 0x0 DUP3 ADD MSTORE PUSH32 0x207A65726F000000000000000000000000000000000000000000000000000000 PUSH1 0x20 DUP3 ADD MSTORE POP JUMP JUMPDEST PUSH1 0x0 PUSH2 0x37A3 PUSH1 0x25 DUP4 PUSH2 0x2EFF JUMP JUMPDEST SWAP2 POP PUSH2 0x37AE DUP3 PUSH2 0x3747 JUMP JUMPDEST PUSH1 0x40 DUP3 ADD SWAP1 POP SWAP2 SWAP1 POP JUMP JUMPDEST PUSH1 0x0 PUSH1 0x20 DUP3 ADD SWAP1 POP DUP2 DUP2 SUB PUSH1 0x0 DUP4 ADD MSTORE PUSH2 0x37D2 DUP2 PUSH2 0x3796 JUMP JUMPDEST SWAP1 POP SWAP2 SWAP1 POP JUMP JUMPDEST PUSH32 0x496E737566696369656E742062616C616E636521000000000000000000000000 PUSH1 0x0 DUP3 ADD MSTORE POP JUMP JUMPDEST PUSH1 0x0 PUSH2 0x380F PUSH1 0x14 DUP4 PUSH2 0x2EFF JUMP JUMPDEST SWAP2 POP PUSH2 0x381A DUP3 PUSH2 0x37D9 JUMP JUMPDEST PUSH1 0x20 DUP3 ADD SWAP1 POP SWAP2 SWAP1 POP JUMP JUMPDEST PUSH1 0x0 PUSH1 0x20 DUP3 ADD SWAP1 POP DUP2 DUP2 SUB PUSH1 0x0 DUP4 ADD MSTORE PUSH2 0x383E DUP2 PUSH2 0x3802 JUMP JUMPDEST SWAP1 POP SWAP2 SWAP1 POP JUMP JUMPDEST PUSH32 0x4E6F7468696E6720746F20756E7374616B652100000000000000000000000000 PUSH1 0x0 DUP3 ADD MSTORE POP JUMP JUMPDEST PUSH1 0x0 PUSH2 0x387B PUSH1 0x13 DUP4 PUSH2 0x2EFF JUMP JUMPDEST SWAP2 POP PUSH2 0x3886 DUP3 PUSH2 0x3845 JUMP JUMPDEST PUSH1 0x20 DUP3 ADD SWAP1 POP SWAP2 SWAP1 POP JUMP JUMPDEST PUSH1 0x0 PUSH1 0x20 DUP3 ADD SWAP1 POP DUP2 DUP2 SUB PUSH1 0x0 DUP4 ADD MSTORE PUSH2 0x38AA DUP2 PUSH2 0x386E JUMP JUMPDEST SWAP1 POP SWAP2 SWAP1 POP JUMP JUMPDEST PUSH32 0x596F75206861766520746F2077616974203120646179206265666F726520796F PUSH1 0x0 DUP3 ADD MSTORE PUSH32 0x752063616E20756E7374616B6521000000000000000000000000000000000000 PUSH1 0x20 DUP3 ADD MSTORE POP JUMP JUMPDEST PUSH1 0x0 PUSH2 0x390D PUSH1 0x2E DUP4 PUSH2 0x2EFF JUMP JUMPDEST SWAP2 POP PUSH2 0x3918 DUP3 PUSH2 0x38B1 JUMP JUMPDEST PUSH1 0x40 DUP3 ADD SWAP1 POP SWAP2 SWAP1 POP JUMP JUMPDEST PUSH1 0x0 PUSH1 0x20 DUP3 ADD SWAP1 POP DUP2 DUP2 SUB PUSH1 0x0 DUP4 ADD MSTORE PUSH2 0x393C DUP2 PUSH2 0x3900 JUMP JUMPDEST SWAP1 POP SWAP2 SWAP1 POP JUMP JUMPDEST PUSH1 0x0 DUP2 SWAP1 POP SWAP3 SWAP2 POP POP JUMP JUMPDEST POP JUMP JUMPDEST PUSH1 0x0 PUSH2 0x395E PUSH1 0x0 DUP4 PUSH2 0x3943 JUMP JUMPDEST SWAP2 POP PUSH2 0x3969 DUP3 PUSH2 0x394E JUMP JUMPDEST PUSH1 0x0 DUP3 ADD SWAP1 POP SWAP2 SWAP1 POP JUMP JUMPDEST PUSH1 0x0 PUSH2 0x397F DUP3 PUSH2 0x3951 JUMP JUMPDEST SWAP2 POP DUP2 SWAP1 POP SWAP2 SWAP1 POP JUMP JUMPDEST PUSH32 0x5061796D656E74206661696C6564210000000000000000000000000000000000 PUSH1 0x0 DUP3 ADD MSTORE POP JUMP JUMPDEST PUSH1 0x0 PUSH2 0x39BF PUSH1 0xF DUP4 PUSH2 0x2EFF JUMP JUMPDEST SWAP2 POP PUSH2 0x39CA DUP3 PUSH2 0x3989 JUMP JUMPDEST PUSH1 0x20 DUP3 ADD SWAP1 POP SWAP2 SWAP1 POP JUMP JUMPDEST PUSH1 0x0 PUSH1 0x20 DUP3 ADD SWAP1 POP DUP2 DUP2 SUB PUSH1 0x0 DUP4 ADD MSTORE PUSH2 0x39EE DUP2 PUSH2 0x39B2 JUMP JUMPDEST SWAP1 POP SWAP2 SWAP1 POP JUMP JUMPDEST PUSH32 0x5468652076616C7565206D757374206265206120706F736974697665206E756D PUSH1 0x0 DUP3 ADD MSTORE PUSH32 0x6265722100000000000000000000000000000000000000000000000000000000 PUSH1 0x20 DUP3 ADD MSTORE POP JUMP JUMPDEST PUSH1 0x0 PUSH2 0x3A51 PUSH1 0x24 DUP4 PUSH2 0x2EFF JUMP JUMPDEST SWAP2 POP PUSH2 0x3A5C DUP3 PUSH2 0x39F5 JUMP JUMPDEST PUSH1 0x40 DUP3 ADD SWAP1 POP SWAP2 SWAP1 POP JUMP JUMPDEST PUSH1 0x0 PUSH1 0x20 DUP3 ADD SWAP1 POP DUP2 DUP2 SUB PUSH1 0x0 DUP4 ADD MSTORE PUSH2 0x3A80 DUP2 PUSH2 0x3A44 JUMP JUMPDEST SWAP1 POP SWAP2 SWAP1 POP JUMP JUMPDEST PUSH32 0x596F75206861766520746F2077616974203120646179206265666F726520796F PUSH1 0x0 DUP3 ADD MSTORE PUSH32 0x752063616E207374616B65210000000000000000000000000000000000000000 PUSH1 0x20 DUP3 ADD MSTORE POP JUMP JUMPDEST PUSH1 0x0 PUSH2 0x3AE3 PUSH1 0x2C DUP4 PUSH2 0x2EFF JUMP JUMPDEST SWAP2 POP PUSH2 0x3AEE DUP3 PUSH2 0x3A87 JUMP JUMPDEST PUSH1 0x40 DUP3 ADD SWAP1 POP SWAP2 SWAP1 POP JUMP JUMPDEST PUSH1 0x0 PUSH1 0x20 DUP3 ADD SWAP1 POP DUP2 DUP2 SUB PUSH1 0x0 DUP4 ADD MSTORE PUSH2 0x3B12 DUP2 PUSH2 0x3AD6 JUMP JUMPDEST SWAP1 POP SWAP2 SWAP1 POP JUMP JUMPDEST PUSH32 0x546865206D6178696D756D207374616B656420616D6F756E7420686173206265 PUSH1 0x0 DUP3 ADD MSTORE PUSH32 0x656E206578656564656421000000000000000000000000000000000000000000 PUSH1 0x20 DUP3 ADD MSTORE POP JUMP JUMPDEST PUSH1 0x0 PUSH2 0x3B75 PUSH1 0x2B DUP4 PUSH2 0x2EFF JUMP JUMPDEST SWAP2 POP PUSH2 0x3B80 DUP3 PUSH2 0x3B19 JUMP JUMPDEST PUSH1 0x40 DUP3 ADD SWAP1 POP SWAP2 SWAP1 POP JUMP JUMPDEST PUSH1 0x0 PUSH1 0x20 DUP3 ADD SWAP1 POP DUP2 DUP2 SUB PUSH1 0x0 DUP4 ADD MSTORE PUSH2 0x3BA4 DUP2 PUSH2 0x3B68 JUMP JUMPDEST SWAP1 POP SWAP2 SWAP1 POP JUMP JUMPDEST PUSH1 0x0 PUSH2 0x3BB6 DUP3 PUSH2 0x3004 JUMP JUMPDEST SWAP2 POP PUSH32 0xFFFFFFFFFFFFFFFFFFFFFFFFFFFFFFFFFFFFFFFFFFFFFFFFFFFFFFFFFFFFFFFF DUP3 SUB PUSH2 0x3BE8 JUMPI PUSH2 0x3BE7 PUSH2 0x348B JUMP JUMPDEST JUMPDEST PUSH1 0x1 DUP3 ADD SWAP1 POP SWAP2 SWAP1 POP JUMP JUMPDEST PUSH32 0x45524332303A20617070726F76652066726F6D20746865207A65726F20616464 PUSH1 0x0 DUP3 ADD MSTORE PUSH32 0x7265737300000000000000000000000000000000000000000000000000000000 PUSH1 0x20 DUP3 ADD MSTORE POP JUMP JUMPDEST PUSH1 0x0 PUSH2 0x3C4F PUSH1 0x24 DUP4 PUSH2 0x2EFF JUMP JUMPDEST SWAP2 POP PUSH2 0x3C5A DUP3 PUSH2 0x3BF3 JUMP JUMPDEST PUSH1 0x40 DUP3 ADD SWAP1 POP SWAP2 SWAP1 POP JUMP JUMPDEST PUSH1 0x0 PUSH1 0x20 DUP3 ADD SWAP1 POP DUP2 DUP2 SUB PUSH1 0x0 DUP4 ADD MSTORE PUSH2 0x3C7E DUP2 PUSH2 0x3C42 JUMP JUMPDEST SWAP1 POP SWAP2 SWAP1 POP JUMP JUMPDEST PUSH32 0x45524332303A20617070726F766520746F20746865207A65726F206164647265 PUSH1 0x0 DUP3 ADD MSTORE PUSH32 0x7373000000000000000000000000000000000000000000000000000000000000 PUSH1 0x20 DUP3 ADD MSTORE POP JUMP JUMPDEST PUSH1 0x0 PUSH2 0x3CE1 PUSH1 0x22 DUP4 PUSH2 0x2EFF JUMP JUMPDEST SWAP2 POP PUSH2 0x3CEC DUP3 PUSH2 0x3C85 JUMP JUMPDEST PUSH1 0x40 DUP3 ADD SWAP1 POP SWAP2 SWAP1 POP JUMP JUMPDEST PUSH1 0x0 PUSH1 0x20 DUP3 ADD SWAP1 POP DUP2 DUP2 SUB PUSH1 0x0 DUP4 ADD MSTORE PUSH2 0x3D10 DUP2 PUSH2 0x3CD4 JUMP JUMPDEST SWAP1 POP SWAP2 SWAP1 POP JUMP JUMPDEST PUSH32 0x45524332303A20696E73756666696369656E7420616C6C6F77616E6365000000 PUSH1 0x0 DUP3 ADD MSTORE POP JUMP JUMPDEST PUSH1 0x0 PUSH2 0x3D4D PUSH1 0x1D DUP4 PUSH2 0x2EFF JUMP JUMPDEST SWAP2 POP PUSH2 0x3D58 DUP3 PUSH2 0x3D17 JUMP JUMPDEST PUSH1 0x20 DUP3 ADD SWAP1 POP SWAP2 SWAP1 POP JUMP JUMPDEST PUSH1 0x0 PUSH1 0x20 DUP3 ADD SWAP1 POP DUP2 DUP2 SUB PUSH1 0x0 DUP4 ADD MSTORE PUSH2 0x3D7C DUP2 PUSH2 0x3D40 JUMP JUMPDEST SWAP1 POP SWAP2 SWAP1 POP JUMP JUMPDEST PUSH32 0x45524332303A207472616E736665722066726F6D20746865207A65726F206164 PUSH1 0x0 DUP3 ADD MSTORE PUSH32 0x6472657373000000000000000000000000000000000000000000000000000000 PUSH1 0x20 DUP3 ADD MSTORE POP JUMP JUMPDEST PUSH1 0x0 PUSH2 0x3DDF PUSH1 0x25 DUP4 PUSH2 0x2EFF JUMP JUMPDEST SWAP2 POP PUSH2 0x3DEA DUP3 PUSH2 0x3D83 JUMP JUMPDEST PUSH1 0x40 DUP3 ADD SWAP1 POP SWAP2 SWAP1 POP JUMP JUMPDEST PUSH1 0x0 PUSH1 0x20 DUP3 ADD SWAP1 POP DUP2 DUP2 SUB PUSH1 0x0 DUP4 ADD MSTORE PUSH2 0x3E0E DUP2 PUSH2 0x3DD2 JUMP JUMPDEST SWAP1 POP SWAP2 SWAP1 POP JUMP JUMPDEST PUSH32 0x45524332303A207472616E7366657220746F20746865207A65726F2061646472 PUSH1 0x0 DUP3 ADD MSTORE PUSH32 0x6573730000000000000000000000000000000000000000000000000000000000 PUSH1 0x20 DUP3 ADD MSTORE POP JUMP JUMPDEST PUSH1 0x0 PUSH2 0x3E71 PUSH1 0x23 DUP4 PUSH2 0x2EFF JUMP JUMPDEST SWAP2 POP PUSH2 0x3E7C DUP3 PUSH2 0x3E15 JUMP JUMPDEST PUSH1 0x40 DUP3 ADD SWAP1 POP SWAP2 SWAP1 POP JUMP JUMPDEST PUSH1 0x0 PUSH1 0x20 DUP3 ADD SWAP1 POP DUP2 DUP2 SUB PUSH1 0x0 DUP4 ADD MSTORE PUSH2 0x3EA0 DUP2 PUSH2 0x3E64 JUMP JUMPDEST SWAP1 POP SWAP2 SWAP1 POP JUMP JUMPDEST PUSH32 0x45524332303A207472616E7366657220616D6F756E7420657863656564732062 PUSH1 0x0 DUP3 ADD MSTORE PUSH32 0x616C616E63650000000000000000000000000000000000000000000000000000 PUSH1 0x20 DUP3 ADD MSTORE POP JUMP JUMPDEST PUSH1 0x0 PUSH2 0x3F03 PUSH1 0x26 DUP4 PUSH2 0x2EFF JUMP JUMPDEST SWAP2 POP PUSH2 0x3F0E DUP3 PUSH2 0x3EA7 JUMP JUMPDEST PUSH1 0x40 DUP3 ADD SWAP1 POP SWAP2 SWAP1 POP JUMP JUMPDEST PUSH1 0x0 PUSH1 0x20 DUP3 ADD SWAP1 POP DUP2 DUP2 SUB PUSH1 0x0 DUP4 ADD MSTORE PUSH2 0x3F32 DUP2 PUSH2 0x3EF6 JUMP JUMPDEST SWAP1 POP SWAP2 SWAP1 POP JUMP JUMPDEST PUSH32 0x4E487B7100000000000000000000000000000000000000000000000000000000 PUSH1 0x0 MSTORE PUSH1 0x32 PUSH1 0x4 MSTORE PUSH1 0x24 PUSH1 0x0 REVERT JUMPDEST PUSH1 0x0 PUSH2 0x3F73 DUP3 PUSH2 0x3004 JUMP JUMPDEST SWAP2 POP PUSH1 0x0 DUP3 SUB PUSH2 0x3F86 JUMPI PUSH2 0x3F85 PUSH2 0x348B JUMP JUMPDEST JUMPDEST PUSH1 0x1 DUP3 SUB SWAP1 POP SWAP2 SWAP1 POP JUMP JUMPDEST PUSH1 0x0 DUP2 SWAP1 POP SWAP3 SWAP2 POP POP JUMP JUMPDEST PUSH32 0x416363657373436F6E74726F6C3A206163636F756E7420000000000000000000 PUSH1 0x0 DUP3 ADD MSTORE POP JUMP JUMPDEST PUSH1 0x0 PUSH2 0x3FD2 PUSH1 0x17 DUP4 PUSH2 0x3F91 JUMP JUMPDEST SWAP2 POP PUSH2 0x3FDD DUP3 PUSH2 0x3F9C JUMP JUMPDEST PUSH1 0x17 DUP3 ADD SWAP1 POP SWAP2 SWAP1 POP JUMP JUMPDEST PUSH1 0x0 PUSH2 0x3FF3 DUP3 PUSH2 0x2EF4 JUMP JUMPDEST PUSH2 0x3FFD DUP2 DUP6 PUSH2 0x3F91 JUMP JUMPDEST SWAP4 POP PUSH2 0x400D DUP2 DUP6 PUSH1 0x20 DUP7 ADD PUSH2 0x2F10 JUMP JUMPDEST DUP1 DUP5 ADD SWAP2 POP POP SWAP3 SWAP2 POP POP JUMP JUMPDEST PUSH32 0x206973206D697373696E6720726F6C6520000000000000000000000000000000 PUSH1 0x0 DUP3 ADD MSTORE POP JUMP JUMPDEST PUSH1 0x0 PUSH2 0x404F PUSH1 0x11 DUP4 PUSH2 0x3F91 JUMP JUMPDEST SWAP2 POP PUSH2 0x405A DUP3 PUSH2 0x4019 JUMP JUMPDEST PUSH1 0x11 DUP3 ADD SWAP1 POP SWAP2 SWAP1 POP JUMP JUMPDEST PUSH1 0x0 PUSH2 0x4070 DUP3 PUSH2 0x3FC5 JUMP JUMPDEST SWAP2 POP PUSH2 0x407C DUP3 DUP6 PUSH2 0x3FE8 JUMP JUMPDEST SWAP2 POP PUSH2 0x4087 DUP3 PUSH2 0x4042 JUMP JUMPDEST SWAP2 POP PUSH2 0x4093 DUP3 DUP5 PUSH2 0x3FE8 JUMP JUMPDEST SWAP2 POP DUP2 SWAP1 POP SWAP4 SWAP3 POP POP POP JUMP JUMPDEST PUSH32 0x4E487B7100000000000000000000000000000000000000000000000000000000 PUSH1 0x0 MSTORE PUSH1 0x41 PUSH1 0x4 MSTORE PUSH1 0x24 PUSH1 0x0 REVERT JUMPDEST PUSH32 0x537472696E67733A20686578206C656E67746820696E73756666696369656E74 PUSH1 0x0 DUP3 ADD MSTORE POP JUMP JUMPDEST PUSH1 0x0 PUSH2 0x4104 PUSH1 0x20 DUP4 PUSH2 0x2EFF JUMP JUMPDEST SWAP2 POP PUSH2 0x410F DUP3 PUSH2 0x40CE JUMP JUMPDEST PUSH1 0x20 DUP3 ADD SWAP1 POP SWAP2 SWAP1 POP JUMP JUMPDEST PUSH1 0x0 PUSH1 0x20 DUP3 ADD SWAP1 POP DUP2 DUP2 SUB PUSH1 0x0 DUP4 ADD MSTORE PUSH2 0x4133 DUP2 PUSH2 0x40F7 JUMP JUMPDEST SWAP1 POP SWAP2 SWAP1 POP JUMP INVALID LOG2 PUSH5 0x6970667358 0x22 SLT KECCAK256 0xC 0xC7 0xBF 0x21 0xD5 EXTCODECOPY 0xF9 0xE1 0x25 SWAP6 PUSH17 0xBA3B154C78A8A4FE72B6A1CD05F6B55696 0x2F POP 0xEC 0xE2 PUSH5 0x736F6C6343 STOP ADDMOD SLT STOP CALLER "},"methodIdentifiers":{"BURNER_ROLE()":"282c51f3","CLAIMER_ROLE()":"fc5f18d3","DEFAULT_ADMIN_ROLE()":"a217fddf","MATIC_STAKER_ROLE()":"59c3191f","allowance(address,address)":"dd62ed3e","approve(address,uint256)":"095ea7b3","balanceOf(address)":"70a08231","claimRewards()":"372500ab","daylyBatch()":"76dc7440","decimals()":"313ce567","decreaseAllowance(address,uint256)":"a457c2d7","deletedUserRewards(address)":"4df9aab1","getRoleAdmin(bytes32)":"248a9ca3","grantRole(bytes32,address)":"2f2ff15d","hasRole(bytes32,address)":"91d14854","increaseAllowance(address,uint256)":"39509351","lastUpdate()":"c0463711","maxStakeAmount()":"5d80ca32","name()":"06fdde03","numberOfStakers()":"5eabf577","renounceRole(bytes32,address)":"36568abe","revokeRole(bytes32,address)":"d547741f","secondsInADay()":"6a019389","stakeMatic()":"c01d4dfb","supportsInterface(bytes4)":"01ffc9a7","symbol()":"95d89b41","totalAmountStaked()":"fe961f61","totalSupply()":"18160ddd","totalTokenSupply()":"1ca8b6cb","transfer(address,uint256)":"a9059cbb","transferFrom(address,address,uint256)":"23b872dd","unstakeMatic(uint256)":"a56cedb6","userIndex(uint256)":"c37dfd6e","userInfo(address)":"1959a002","viewRewards()":"3dfa83b3"}}}}}