{
  "_format": "hh-sol-artifact-1",
  "contractName": "TokenStakingContract",
  "sourceName": "contracts/TokenStakingContract.sol",
  "abi": [
    {
      "inputs": [
        {
          "internalType": "string",
          "name": "_name",
          "type": "string"
        },
        {
          "internalType": "string",
          "name": "_symbol",
          "type": "string"
        }
      ],
      "stateMutability": "nonpayable",
      "type": "constructor"
    },
    {
      "anonymous": false,
      "inputs": [
        {
          "indexed": true,
          "internalType": "address",
          "name": "owner",
          "type": "address"
        },
        {
          "indexed": true,
          "internalType": "address",
          "name": "spender",
          "type": "address"
        },
        {
          "indexed": false,
          "internalType": "uint256",
          "name": "value",
          "type": "uint256"
        }
      ],
      "name": "Approval",
      "type": "event"
    },
    {
      "anonymous": false,
      "inputs": [
        {
          "indexed": true,
          "internalType": "bytes32",
          "name": "role",
          "type": "bytes32"
        },
        {
          "indexed": true,
          "internalType": "bytes32",
          "name": "previousAdminRole",
          "type": "bytes32"
        },
        {
          "indexed": true,
          "internalType": "bytes32",
          "name": "newAdminRole",
          "type": "bytes32"
        }
      ],
      "name": "RoleAdminChanged",
      "type": "event"
    },
    {
      "anonymous": false,
      "inputs": [
        {
          "indexed": true,
          "internalType": "bytes32",
          "name": "role",
          "type": "bytes32"
        },
        {
          "indexed": true,
          "internalType": "address",
          "name": "account",
          "type": "address"
        },
        {
          "indexed": true,
          "internalType": "address",
          "name": "sender",
          "type": "address"
        }
      ],
      "name": "RoleGranted",
      "type": "event"
    },
    {
      "anonymous": false,
      "inputs": [
        {
          "indexed": true,
          "internalType": "bytes32",
          "name": "role",
          "type": "bytes32"
        },
        {
          "indexed": true,
          "internalType": "address",
          "name": "account",
          "type": "address"
        },
        {
          "indexed": true,
          "internalType": "address",
          "name": "sender",
          "type": "address"
        }
      ],
      "name": "RoleRevoked",
      "type": "event"
    },
    {
      "anonymous": false,
      "inputs": [
        {
          "indexed": false,
          "internalType": "uint256",
          "name": "_amount",
          "type": "uint256"
        },
        {
          "indexed": false,
          "internalType": "address",
          "name": "_user",
          "type": "address"
        }
      ],
      "name": "Stake",
      "type": "event"
    },
    {
      "anonymous": false,
      "inputs": [
        {
          "indexed": true,
          "internalType": "address",
          "name": "from",
          "type": "address"
        },
        {
          "indexed": true,
          "internalType": "address",
          "name": "to",
          "type": "address"
        },
        {
          "indexed": false,
          "internalType": "uint256",
          "name": "value",
          "type": "uint256"
        }
      ],
      "name": "Transfer",
      "type": "event"
    },
    {
      "anonymous": false,
      "inputs": [
        {
          "indexed": false,
          "internalType": "uint256",
          "name": "_amount",
          "type": "uint256"
        },
        {
          "indexed": false,
          "internalType": "address",
          "name": "_user",
          "type": "address"
        }
      ],
      "name": "Unstake",
      "type": "event"
    },
    {
      "inputs": [],
      "name": "BURNER_ROLE",
      "outputs": [
        {
          "internalType": "bytes32",
          "name": "",
          "type": "bytes32"
        }
      ],
      "stateMutability": "view",
      "type": "function"
    },
    {
      "inputs": [],
      "name": "DEFAULT_ADMIN_ROLE",
      "outputs": [
        {
          "internalType": "bytes32",
          "name": "",
          "type": "bytes32"
        }
      ],
      "stateMutability": "view",
      "type": "function"
    },
    {
      "inputs": [],
      "name": "STAKER_ROLE",
      "outputs": [
        {
          "internalType": "bytes32",
          "name": "",
          "type": "bytes32"
        }
      ],
      "stateMutability": "view",
      "type": "function"
    },
    {
      "inputs": [
        {
          "internalType": "address",
          "name": "owner",
          "type": "address"
        },
        {
          "internalType": "address",
          "name": "spender",
          "type": "address"
        }
      ],
      "name": "allowance",
      "outputs": [
        {
          "internalType": "uint256",
          "name": "",
          "type": "uint256"
        }
      ],
      "stateMutability": "view",
      "type": "function"
    },
    {
      "inputs": [
        {
          "internalType": "address",
          "name": "spender",
          "type": "address"
        },
        {
          "internalType": "uint256",
          "name": "amount",
          "type": "uint256"
        }
      ],
      "name": "approve",
      "outputs": [
        {
          "internalType": "bool",
          "name": "",
          "type": "bool"
        }
      ],
      "stateMutability": "nonpayable",
      "type": "function"
    },
    {
      "inputs": [
        {
          "internalType": "address",
          "name": "account",
          "type": "address"
        }
      ],
      "name": "balanceOf",
      "outputs": [
        {
          "internalType": "uint256",
          "name": "",
          "type": "uint256"
        }
      ],
      "stateMutability": "view",
      "type": "function"
    },
    {
      "inputs": [],
      "name": "claimRewards",
      "outputs": [],
      "stateMutability": "nonpayable",
      "type": "function"
    },
    {
      "inputs": [],
      "name": "daylyBatch",
      "outputs": [
        {
          "internalType": "uint256",
          "name": "",
          "type": "uint256"
        }
      ],
      "stateMutability": "view",
      "type": "function"
    },
    {
      "inputs": [],
      "name": "decimals",
      "outputs": [
        {
          "internalType": "uint8",
          "name": "",
          "type": "uint8"
        }
      ],
      "stateMutability": "view",
      "type": "function"
    },
    {
      "inputs": [
        {
          "internalType": "address",
          "name": "spender",
          "type": "address"
        },
        {
          "internalType": "uint256",
          "name": "subtractedValue",
          "type": "uint256"
        }
      ],
      "name": "decreaseAllowance",
      "outputs": [
        {
          "internalType": "bool",
          "name": "",
          "type": "bool"
        }
      ],
      "stateMutability": "nonpayable",
      "type": "function"
    },
    {
      "inputs": [
        {
          "internalType": "bytes32",
          "name": "role",
          "type": "bytes32"
        }
      ],
      "name": "getRoleAdmin",
      "outputs": [
        {
          "internalType": "bytes32",
          "name": "",
          "type": "bytes32"
        }
      ],
      "stateMutability": "view",
      "type": "function"
    },
    {
      "inputs": [
        {
          "internalType": "bytes32",
          "name": "role",
          "type": "bytes32"
        },
        {
          "internalType": "address",
          "name": "account",
          "type": "address"
        }
      ],
      "name": "grantRole",
      "outputs": [],
      "stateMutability": "nonpayable",
      "type": "function"
    },
    {
      "inputs": [
        {
          "internalType": "bytes32",
          "name": "role",
          "type": "bytes32"
        },
        {
          "internalType": "address",
          "name": "account",
          "type": "address"
        }
      ],
      "name": "hasRole",
      "outputs": [
        {
          "internalType": "bool",
          "name": "",
          "type": "bool"
        }
      ],
      "stateMutability": "view",
      "type": "function"
    },
    {
      "inputs": [
        {
          "internalType": "address",
          "name": "spender",
          "type": "address"
        },
        {
          "internalType": "uint256",
          "name": "addedValue",
          "type": "uint256"
        }
      ],
      "name": "increaseAllowance",
      "outputs": [
        {
          "internalType": "bool",
          "name": "",
          "type": "bool"
        }
      ],
      "stateMutability": "nonpayable",
      "type": "function"
    },
    {
      "inputs": [],
      "name": "name",
      "outputs": [
        {
          "internalType": "string",
          "name": "",
          "type": "string"
        }
      ],
      "stateMutability": "view",
      "type": "function"
    },
    {
      "inputs": [],
      "name": "numberOfStakers",
      "outputs": [
        {
          "internalType": "uint256",
          "name": "",
          "type": "uint256"
        }
      ],
      "stateMutability": "view",
      "type": "function"
    },
    {
      "inputs": [
        {
          "internalType": "bytes32",
          "name": "role",
          "type": "bytes32"
        },
        {
          "internalType": "address",
          "name": "account",
          "type": "address"
        }
      ],
      "name": "renounceRole",
      "outputs": [],
      "stateMutability": "nonpayable",
      "type": "function"
    },
    {
      "inputs": [],
      "name": "restake",
      "outputs": [],
      "stateMutability": "nonpayable",
      "type": "function"
    },
    {
      "inputs": [
        {
          "internalType": "bytes32",
          "name": "role",
          "type": "bytes32"
        },
        {
          "internalType": "address",
          "name": "account",
          "type": "address"
        }
      ],
      "name": "revokeRole",
      "outputs": [],
      "stateMutability": "nonpayable",
      "type": "function"
    },
    {
      "inputs": [],
      "name": "stake",
      "outputs": [],
      "stateMutability": "payable",
      "type": "function"
    },
    {
      "inputs": [
        {
          "internalType": "bytes4",
          "name": "interfaceId",
          "type": "bytes4"
        }
      ],
      "name": "supportsInterface",
      "outputs": [
        {
          "internalType": "bool",
          "name": "",
          "type": "bool"
        }
      ],
      "stateMutability": "view",
      "type": "function"
    },
    {
      "inputs": [],
      "name": "symbol",
      "outputs": [
        {
          "internalType": "string",
          "name": "",
          "type": "string"
        }
      ],
      "stateMutability": "view",
      "type": "function"
    },
    {
      "inputs": [],
      "name": "totalAmountStaked",
      "outputs": [
        {
          "internalType": "uint256",
          "name": "",
          "type": "uint256"
        }
      ],
      "stateMutability": "view",
      "type": "function"
    },
    {
      "inputs": [],
      "name": "totalSupply",
      "outputs": [
        {
          "internalType": "uint256",
          "name": "",
          "type": "uint256"
        }
      ],
      "stateMutability": "view",
      "type": "function"
    },
    {
      "inputs": [],
      "name": "totalTokenSupply",
      "outputs": [
        {
          "internalType": "uint256",
          "name": "",
          "type": "uint256"
        }
      ],
      "stateMutability": "view",
      "type": "function"
    },
    {
      "inputs": [
        {
          "internalType": "address",
          "name": "to",
          "type": "address"
        },
        {
          "internalType": "uint256",
          "name": "amount",
          "type": "uint256"
        }
      ],
      "name": "transfer",
      "outputs": [
        {
          "internalType": "bool",
          "name": "",
          "type": "bool"
        }
      ],
      "stateMutability": "nonpayable",
      "type": "function"
    },
    {
      "inputs": [
        {
          "internalType": "address",
          "name": "from",
          "type": "address"
        },
        {
          "internalType": "address",
          "name": "to",
          "type": "address"
        },
        {
          "internalType": "uint256",
          "name": "amount",
          "type": "uint256"
        }
      ],
      "name": "transferFrom",
      "outputs": [
        {
          "internalType": "bool",
          "name": "",
          "type": "bool"
        }
      ],
      "stateMutability": "nonpayable",
      "type": "function"
    },
    {
      "inputs": [
        {
          "internalType": "uint256",
          "name": "_amount",
          "type": "uint256"
        }
      ],
      "name": "unstake",
      "outputs": [],
      "stateMutability": "nonpayable",
      "type": "function"
    },
    {
      "inputs": [
        {
          "internalType": "address",
          "name": "",
          "type": "address"
        }
      ],
      "name": "userInfo",
      "outputs": [
        {
          "internalType": "uint256",
          "name": "amountStaked",
          "type": "uint256"
        },
        {
          "internalType": "uint256",
          "name": "lastStakeDate",
          "type": "uint256"
        },
        {
          "internalType": "uint256",
          "name": "rewards",
          "type": "uint256"
        }
      ],
      "stateMutability": "view",
      "type": "function"
    },
    {
      "inputs": [],
      "name": "viewRewards",
      "outputs": [
        {
          "internalType": "uint256",
          "name": "",
          "type": "uint256"
        }
      ],
      "stateMutability": "view",
      "type": "function"
    },
    {
      "stateMutability": "payable",
      "type": "receive"
    }
  ],
  "bytecode": "0x60806040523480156200001157600080fd5b50604051620037b7380380620037b783398181016040528101906200003791906200051d565b818181600390816200004a9190620007ed565b5080600490816200005c9190620007ed565b505050620000746000801b336200009860201b60201c565b620000903369d86abb23bbeec2c00000620000ae60201b60201c565b5050620009ef565b620000aa82826200021b60201b60201c565b5050565b600073ffffffffffffffffffffffffffffffffffffffff168273ffffffffffffffffffffffffffffffffffffffff160362000120576040517f08c379a0000000000000000000000000000000000000000000000000000000008152600401620001179062000935565b60405180910390fd5b62000134600083836200030d60201b60201c565b806002600082825462000148919062000986565b92505081905550806000808473ffffffffffffffffffffffffffffffffffffffff1673ffffffffffffffffffffffffffffffffffffffff168152602001908152602001600020600082825401925050819055508173ffffffffffffffffffffffffffffffffffffffff16600073ffffffffffffffffffffffffffffffffffffffff167fddf252ad1be2c89b69c2b068fc378daa952ba7f163c4a11628f55a4df523b3ef83604051620001fb9190620009d2565b60405180910390a362000217600083836200031260201b60201c565b5050565b6200022d82826200031760201b60201c565b620003095760016005600084815260200190815260200160002060000160008373ffffffffffffffffffffffffffffffffffffffff1673ffffffffffffffffffffffffffffffffffffffff16815260200190815260200160002060006101000a81548160ff021916908315150217905550620002ae6200038260201b60201c565b73ffffffffffffffffffffffffffffffffffffffff168173ffffffffffffffffffffffffffffffffffffffff16837f2f8788117e7eff1d82e926ec794901d17c78024a50270940304540a733656f0d60405160405180910390a45b5050565b505050565b505050565b60006005600084815260200190815260200160002060000160008373ffffffffffffffffffffffffffffffffffffffff1673ffffffffffffffffffffffffffffffffffffffff16815260200190815260200160002060009054906101000a900460ff16905092915050565b600033905090565b6000604051905090565b600080fd5b600080fd5b600080fd5b600080fd5b6000601f19601f8301169050919050565b7f4e487b7100000000000000000000000000000000000000000000000000000000600052604160045260246000fd5b620003f382620003a8565b810181811067ffffffffffffffff82111715620004155762000414620003b9565b5b80604052505050565b60006200042a6200038a565b9050620004388282620003e8565b919050565b600067ffffffffffffffff8211156200045b576200045a620003b9565b5b6200046682620003a8565b9050602081019050919050565b60005b838110156200049357808201518184015260208101905062000476565b60008484015250505050565b6000620004b6620004b0846200043d565b6200041e565b905082815260208101848484011115620004d557620004d4620003a3565b5b620004e284828562000473565b509392505050565b600082601f8301126200050257620005016200039e565b5b8151620005148482602086016200049f565b91505092915050565b6000806040838503121562000537576200053662000394565b5b600083015167ffffffffffffffff81111562000558576200055762000399565b5b6200056685828601620004ea565b925050602083015167ffffffffffffffff8111156200058a576200058962000399565b5b6200059885828601620004ea565b9150509250929050565b600081519050919050565b7f4e487b7100000000000000000000000000000000000000000000000000000000600052602260045260246000fd5b60006002820490506001821680620005f557607f821691505b6020821081036200060b576200060a620005ad565b5b50919050565b60008190508160005260206000209050919050565b60006020601f8301049050919050565b600082821b905092915050565b600060088302620006757fffffffffffffffffffffffffffffffffffffffffffffffffffffffffffffffff8262000636565b62000681868362000636565b95508019841693508086168417925050509392505050565b6000819050919050565b6000819050919050565b6000620006ce620006c8620006c28462000699565b620006a3565b62000699565b9050919050565b6000819050919050565b620006ea83620006ad565b62000702620006f982620006d5565b84845462000643565b825550505050565b600090565b620007196200070a565b62000726818484620006df565b505050565b5b818110156200074e57620007426000826200070f565b6001810190506200072c565b5050565b601f8211156200079d57620007678162000611565b620007728462000626565b8101602085101562000782578190505b6200079a620007918562000626565b8301826200072b565b50505b505050565b600082821c905092915050565b6000620007c260001984600802620007a2565b1980831691505092915050565b6000620007dd8383620007af565b9150826002028217905092915050565b620007f882620005a2565b67ffffffffffffffff811115620008145762000813620003b9565b5b620008208254620005dc565b6200082d82828562000752565b600060209050601f83116001811462000865576000841562000850578287015190505b6200085c8582620007cf565b865550620008cc565b601f198416620008758662000611565b60005b828110156200089f5784890151825560018201915060208501945060208101905062000878565b86831015620008bf5784890151620008bb601f891682620007af565b8355505b6001600288020188555050505b505050505050565b600082825260208201905092915050565b7f45524332303a206d696e7420746f20746865207a65726f206164647265737300600082015250565b60006200091d601f83620008d4565b91506200092a82620008e5565b602082019050919050565b6000602082019050818103600083015262000950816200090e565b9050919050565b7f4e487b7100000000000000000000000000000000000000000000000000000000600052601160045260246000fd5b6000620009938262000699565b9150620009a08362000699565b9250828201905080821115620009bb57620009ba62000957565b5b92915050565b620009cc8162000699565b82525050565b6000602082019050620009e96000830184620009c1565b92915050565b612db880620009ff6000396000f3fe6080604052600436106101d15760003560e01c806339509351116100f757806391d1485411610095578063a9059cbb11610064578063a9059cbb14610690578063d547741f146106cd578063dd62ed3e146106f6578063fe961f6114610733576101d8565b806391d14854146105c057806395d89b41146105fd578063a217fddf14610628578063a457c2d714610653576101d8565b80634f91440d116100d15780634f91440d146105165780635eabf5771461052d57806370a082311461055857806376dc744014610595576101d8565b806339509351146104a45780633a4b66f1146104e15780633dfa83b3146104eb576101d8565b8063248a9ca31161016f578063313ce5671161013e578063313ce5671461040e57806336568abe14610439578063372500ab146104625780633780b3ed14610479576101d8565b8063248a9ca314610354578063282c51f3146103915780632e17de78146103bc5780632f2ff15d146103e5576101d8565b806318160ddd116101ab57806318160ddd146102825780631959a002146102ad5780631ca8b6cb146102ec57806323b872dd14610317576101d8565b806301ffc9a7146101dd57806306fdde031461021a578063095ea7b314610245576101d8565b366101d857005b600080fd5b3480156101e957600080fd5b5061020460048036038101906101ff9190611e3b565b61075e565b6040516102119190611e83565b60405180910390f35b34801561022657600080fd5b5061022f6107d8565b60405161023c9190611f2e565b60405180910390f35b34801561025157600080fd5b5061026c60048036038101906102679190611fe4565b61086a565b6040516102799190611e83565b60405180910390f35b34801561028e57600080fd5b5061029761088d565b6040516102a49190612033565b60405180910390f35b3480156102b957600080fd5b506102d460048036038101906102cf919061204e565b610897565b6040516102e39392919061207b565b60405180910390f35b3480156102f857600080fd5b506103016108c1565b60405161030e9190612033565b60405180910390f35b34801561032357600080fd5b5061033e600480360381019061033991906120b2565b6108cf565b60405161034b9190611e83565b60405180910390f35b34801561036057600080fd5b5061037b6004803603810190610376919061213b565b6108fe565b6040516103889190612177565b60405180910390f35b34801561039d57600080fd5b506103a661091e565b6040516103b39190612177565b60405180910390f35b3480156103c857600080fd5b506103e360048036038101906103de9190612192565b610942565b005b3480156103f157600080fd5b5061040c600480360381019061040791906121bf565b610c51565b005b34801561041a57600080fd5b50610423610c72565b604051610430919061221b565b60405180910390f35b34801561044557600080fd5b50610460600480360381019061045b91906121bf565b610c7b565b005b34801561046e57600080fd5b50610477610cfe565b005b34801561048557600080fd5b5061048e610d2b565b60405161049b9190612177565b60405180910390f35b3480156104b057600080fd5b506104cb60048036038101906104c69190611fe4565b610d4f565b6040516104d89190611e83565b60405180910390f35b6104e9610d86565b005b3480156104f757600080fd5b50610500610fa6565b60405161050d9190612033565b60405180910390f35b34801561052257600080fd5b5061052b61102e565b005b34801561053957600080fd5b5061054261105b565b60405161054f9190612033565b60405180910390f35b34801561056457600080fd5b5061057f600480360381019061057a919061204e565b611061565b60405161058c9190612033565b60405180910390f35b3480156105a157600080fd5b506105aa6110a9565b6040516105b79190612033565b60405180910390f35b3480156105cc57600080fd5b506105e760048036038101906105e291906121bf565b6110b6565b6040516105f49190611e83565b60405180910390f35b34801561060957600080fd5b50610612611121565b60405161061f9190611f2e565b60405180910390f35b34801561063457600080fd5b5061063d6111b3565b60405161064a9190612177565b60405180910390f35b34801561065f57600080fd5b5061067a60048036038101906106759190611fe4565b6111ba565b6040516106879190611e83565b60405180910390f35b34801561069c57600080fd5b506106b760048036038101906106b29190611fe4565b611231565b6040516106c49190611e83565b60405180910390f35b3480156106d957600080fd5b506106f460048036038101906106ef91906121bf565b611254565b005b34801561070257600080fd5b5061071d60048036038101906107189190612236565b611275565b60405161072a9190612033565b60405180910390f35b34801561073f57600080fd5b506107486112fc565b6040516107559190612033565b60405180910390f35b60007f7965db0b000000000000000000000000000000000000000000000000000000007bffffffffffffffffffffffffffffffffffffffffffffffffffffffff1916827bffffffffffffffffffffffffffffffffffffffffffffffffffffffff191614806107d157506107d082611302565b5b9050919050565b6060600380546107e7906122a5565b80601f0160208091040260200160405190810160405280929190818152602001828054610813906122a5565b80156108605780601f1061083557610100808354040283529160200191610860565b820191906000526020600020905b81548152906001019060200180831161084357829003601f168201915b5050505050905090565b60008061087561136c565b9050610882818585611374565b600191505092915050565b6000600254905090565b60086020528060005260406000206000915090508060000154908060010154908060020154905083565b69d86abb23bbeec2c0000081565b6000806108da61136c565b90506108e785828561153d565b6108f28585856115c9565b60019150509392505050565b600060056000838152602001908152602001600020600101549050919050565b7f3c11d16cbaffd01df69ce1c404f6340ee057498f5f00246190ea54220576a84881565b7fb9e206fa2af7ee1331b72ce58b6d938ac810ce9b5cdb65d35ab723fd67badf9e61096c8161183f565b6000600860003373ffffffffffffffffffffffffffffffffffffffff1673ffffffffffffffffffffffffffffffffffffffff1681526020019081526020016000206040518060600160405290816000820154815260200160018201548152602001600282015481525050905082816000015111610a1e576040517f08c379a0000000000000000000000000000000000000000000000000000000008152600401610a1590612322565b60405180910390fd5b6000816000015111610a65576040517f08c379a0000000000000000000000000000000000000000000000000000000008152600401610a5c9061238e565b60405180910390fd5b60008311610aa8576040517f08c379a0000000000000000000000000000000000000000000000000000000008152600401610a9f906123fa565b60405180910390fd5b8260076000828254610aba9190612449565b92505081905550610aca33611853565b81604001818151610adb919061247d565b91508181525050428160200181815250508281600001818151610afe9190612449565b9150818152505080600860003373ffffffffffffffffffffffffffffffffffffffff1673ffffffffffffffffffffffffffffffffffffffff16815260200190815260200160002060008201518160000155602082015181600101556040820151816002015590505060003373ffffffffffffffffffffffffffffffffffffffff1684604051610b8c906124e2565b60006040518083038185875af1925050503d8060008114610bc9576040519150601f19603f3d011682016040523d82523d6000602084013e610bce565b606091505b5050905080610c12576040517f08c379a0000000000000000000000000000000000000000000000000000000008152600401610c0990612543565b60405180910390fd5b7f4ac743692c9ced0a3f0052fb9917c0856b6b12671016afe41b649643a89b1ad58433604051610c43929190612572565b60405180910390a150505050565b610c5a826108fe565b610c638161183f565b610c6d8383611923565b505050565b60006012905090565b610c8361136c565b73ffffffffffffffffffffffffffffffffffffffff168173ffffffffffffffffffffffffffffffffffffffff1614610cf0576040517f08c379a0000000000000000000000000000000000000000000000000000000008152600401610ce79061260d565b60405180910390fd5b610cfa8282611a04565b5050565b7fb9e206fa2af7ee1331b72ce58b6d938ac810ce9b5cdb65d35ab723fd67badf9e610d288161183f565b50565b7fb9e206fa2af7ee1331b72ce58b6d938ac810ce9b5cdb65d35ab723fd67badf9e81565b600080610d5a61136c565b9050610d7b818585610d6c8589611275565b610d76919061247d565b611374565b600191505092915050565b60003411610dc9576040517f08c379a0000000000000000000000000000000000000000000000000000000008152600401610dc09061269f565b60405180910390fd5b6000600860003373ffffffffffffffffffffffffffffffffffffffff1673ffffffffffffffffffffffffffffffffffffffff16815260200190815260200160002060405180606001604052908160008201548152602001600182015481526020016002820154815250509050610e5f7fb9e206fa2af7ee1331b72ce58b6d938ac810ce9b5cdb65d35ab723fd67badf9e336110b6565b15610e8a57610e6d33611853565b81604001818151610e7e919061247d565b91508181525050610ecd565b610eb47fb9e206fa2af7ee1331b72ce58b6d938ac810ce9b5cdb65d35ab723fd67badf9e33610c51565b60066000815480929190610ec7906126bf565b91905055505b3481600001818151610edf919061247d565b91508181525050428160200181815250503460076000828254610f02919061247d565b9250508190555080600860003373ffffffffffffffffffffffffffffffffffffffff1673ffffffffffffffffffffffffffffffffffffffff1681526020019081526020016000206000820151816000015560208201518160010155604082015181600201559050507f2bccdce62e5aec7ee273161a374088a6da4311d0e688784bde3c1cec8a3c003a3433604051610f9b929190612572565b60405180910390a150565b60007fb9e206fa2af7ee1331b72ce58b6d938ac810ce9b5cdb65d35ab723fd67badf9e610fd28161183f565b610fdb33611853565b600860003373ffffffffffffffffffffffffffffffffffffffff1673ffffffffffffffffffffffffffffffffffffffff16815260200190815260200160002060020154611028919061247d565b91505090565b7fb9e206fa2af7ee1331b72ce58b6d938ac810ce9b5cdb65d35ab723fd67badf9e6110588161183f565b50565b60065481565b60008060008373ffffffffffffffffffffffffffffffffffffffff1673ffffffffffffffffffffffffffffffffffffffff168152602001908152602001600020549050919050565b6897c9ce4cf6d5c0000081565b60006005600084815260200190815260200160002060000160008373ffffffffffffffffffffffffffffffffffffffff1673ffffffffffffffffffffffffffffffffffffffff16815260200190815260200160002060009054906101000a900460ff16905092915050565b606060048054611130906122a5565b80601f016020809104026020016040519081016040528092919081815260200182805461115c906122a5565b80156111a95780601f1061117e576101008083540402835291602001916111a9565b820191906000526020600020905b81548152906001019060200180831161118c57829003601f168201915b5050505050905090565b6000801b81565b6000806111c561136c565b905060006111d38286611275565b905083811015611218576040517f08c379a000000000000000000000000000000000000000000000000000000000815260040161120f90612779565b60405180910390fd5b6112258286868403611374565b60019250505092915050565b60008061123c61136c565b90506112498185856115c9565b600191505092915050565b61125d826108fe565b6112668161183f565b6112708383611a04565b505050565b6000600160008473ffffffffffffffffffffffffffffffffffffffff1673ffffffffffffffffffffffffffffffffffffffff16815260200190815260200160002060008373ffffffffffffffffffffffffffffffffffffffff1673ffffffffffffffffffffffffffffffffffffffff16815260200190815260200160002054905092915050565b60075481565b60007f01ffc9a7000000000000000000000000000000000000000000000000000000007bffffffffffffffffffffffffffffffffffffffffffffffffffffffff1916827bffffffffffffffffffffffffffffffffffffffffffffffffffffffff1916149050919050565b600033905090565b600073ffffffffffffffffffffffffffffffffffffffff168373ffffffffffffffffffffffffffffffffffffffff16036113e3576040517f08c379a00000000000000000000000000000000000000000000000000000000081526004016113da9061280b565b60405180910390fd5b600073ffffffffffffffffffffffffffffffffffffffff168273ffffffffffffffffffffffffffffffffffffffff1603611452576040517f08c379a00000000000000000000000000000000000000000000000000000000081526004016114499061289d565b60405180910390fd5b80600160008573ffffffffffffffffffffffffffffffffffffffff1673ffffffffffffffffffffffffffffffffffffffff16815260200190815260200160002060008473ffffffffffffffffffffffffffffffffffffffff1673ffffffffffffffffffffffffffffffffffffffff168152602001908152602001600020819055508173ffffffffffffffffffffffffffffffffffffffff168373ffffffffffffffffffffffffffffffffffffffff167f8c5be1e5ebec7d5bd14f71427d1e84f3dd0314c0f7b2291e5b200ac8c7c3b925836040516115309190612033565b60405180910390a3505050565b60006115498484611275565b90507fffffffffffffffffffffffffffffffffffffffffffffffffffffffffffffffff81146115c357818110156115b5576040517f08c379a00000000000000000000000000000000000000000000000000000000081526004016115ac90612909565b60405180910390fd5b6115c28484848403611374565b5b50505050565b600073ffffffffffffffffffffffffffffffffffffffff168373ffffffffffffffffffffffffffffffffffffffff1603611638576040517f08c379a000000000000000000000000000000000000000000000000000000000815260040161162f9061299b565b60405180910390fd5b600073ffffffffffffffffffffffffffffffffffffffff168273ffffffffffffffffffffffffffffffffffffffff16036116a7576040517f08c379a000000000000000000000000000000000000000000000000000000000815260040161169e90612a2d565b60405180910390fd5b6116b2838383611ae6565b60008060008573ffffffffffffffffffffffffffffffffffffffff1673ffffffffffffffffffffffffffffffffffffffff16815260200190815260200160002054905081811015611738576040517f08c379a000000000000000000000000000000000000000000000000000000000815260040161172f90612abf565b60405180910390fd5b8181036000808673ffffffffffffffffffffffffffffffffffffffff1673ffffffffffffffffffffffffffffffffffffffff16815260200190815260200160002081905550816000808573ffffffffffffffffffffffffffffffffffffffff1673ffffffffffffffffffffffffffffffffffffffff168152602001908152602001600020600082825401925050819055508273ffffffffffffffffffffffffffffffffffffffff168473ffffffffffffffffffffffffffffffffffffffff167fddf252ad1be2c89b69c2b068fc378daa952ba7f163c4a11628f55a4df523b3ef846040516118269190612033565b60405180910390a3611839848484611aeb565b50505050565b6118508161184b61136c565b611af0565b50565b6000806000600860008573ffffffffffffffffffffffffffffffffffffffff1673ffffffffffffffffffffffffffffffffffffffff16815260200190815260200160002060010154426118a69190612449565b9050806897c9ce4cf6d5c00000600754600860008873ffffffffffffffffffffffffffffffffffffffff1673ffffffffffffffffffffffffffffffffffffffff168152602001908152602001600020600001546119039190612b0e565b61190d9190612b3f565b6119179190612b3f565b91508192505050919050565b61192d82826110b6565b611a005760016005600084815260200190815260200160002060000160008373ffffffffffffffffffffffffffffffffffffffff1673ffffffffffffffffffffffffffffffffffffffff16815260200190815260200160002060006101000a81548160ff0219169083151502179055506119a561136c565b73ffffffffffffffffffffffffffffffffffffffff168173ffffffffffffffffffffffffffffffffffffffff16837f2f8788117e7eff1d82e926ec794901d17c78024a50270940304540a733656f0d60405160405180910390a45b5050565b611a0e82826110b6565b15611ae25760006005600084815260200190815260200160002060000160008373ffffffffffffffffffffffffffffffffffffffff1673ffffffffffffffffffffffffffffffffffffffff16815260200190815260200160002060006101000a81548160ff021916908315150217905550611a8761136c565b73ffffffffffffffffffffffffffffffffffffffff168173ffffffffffffffffffffffffffffffffffffffff16837ff6391f5c32d9c69d2a47ea670b442974b53935d1edc7fd64eb21e047a839171b60405160405180910390a45b5050565b505050565b505050565b611afa82826110b6565b611b7157611b0781611b75565b611b158360001c6020611ba2565b604051602001611b26929190612c55565b6040516020818303038152906040526040517f08c379a0000000000000000000000000000000000000000000000000000000008152600401611b689190611f2e565b60405180910390fd5b5050565b6060611b9b8273ffffffffffffffffffffffffffffffffffffffff16601460ff16611ba2565b9050919050565b606060006002836002611bb59190612b3f565b611bbf919061247d565b67ffffffffffffffff811115611bd857611bd7612c8f565b5b6040519080825280601f01601f191660200182016040528015611c0a5781602001600182028036833780820191505090505b5090507f300000000000000000000000000000000000000000000000000000000000000081600081518110611c4257611c41612cbe565b5b60200101907effffffffffffffffffffffffffffffffffffffffffffffffffffffffffffff1916908160001a9053507f780000000000000000000000000000000000000000000000000000000000000081600181518110611ca657611ca5612cbe565b5b60200101907effffffffffffffffffffffffffffffffffffffffffffffffffffffffffffff1916908160001a90535060006001846002611ce69190612b3f565b611cf0919061247d565b90505b6001811115611d90577f3031323334353637383961626364656600000000000000000000000000000000600f861660108110611d3257611d31612cbe565b5b1a60f81b828281518110611d4957611d48612cbe565b5b60200101907effffffffffffffffffffffffffffffffffffffffffffffffffffffffffffff1916908160001a905350600485901c945080611d8990612ced565b9050611cf3565b5060008414611dd4576040517f08c379a0000000000000000000000000000000000000000000000000000000008152600401611dcb90612d62565b60405180910390fd5b8091505092915050565b600080fd5b60007fffffffff0000000000000000000000000000000000000000000000000000000082169050919050565b611e1881611de3565b8114611e2357600080fd5b50565b600081359050611e3581611e0f565b92915050565b600060208284031215611e5157611e50611dde565b5b6000611e5f84828501611e26565b91505092915050565b60008115159050919050565b611e7d81611e68565b82525050565b6000602082019050611e986000830184611e74565b92915050565b600081519050919050565b600082825260208201905092915050565b60005b83811015611ed8578082015181840152602081019050611ebd565b60008484015250505050565b6000601f19601f8301169050919050565b6000611f0082611e9e565b611f0a8185611ea9565b9350611f1a818560208601611eba565b611f2381611ee4565b840191505092915050565b60006020820190508181036000830152611f488184611ef5565b905092915050565b600073ffffffffffffffffffffffffffffffffffffffff82169050919050565b6000611f7b82611f50565b9050919050565b611f8b81611f70565b8114611f9657600080fd5b50565b600081359050611fa881611f82565b92915050565b6000819050919050565b611fc181611fae565b8114611fcc57600080fd5b50565b600081359050611fde81611fb8565b92915050565b60008060408385031215611ffb57611ffa611dde565b5b600061200985828601611f99565b925050602061201a85828601611fcf565b9150509250929050565b61202d81611fae565b82525050565b60006020820190506120486000830184612024565b92915050565b60006020828403121561206457612063611dde565b5b600061207284828501611f99565b91505092915050565b60006060820190506120906000830186612024565b61209d6020830185612024565b6120aa6040830184612024565b949350505050565b6000806000606084860312156120cb576120ca611dde565b5b60006120d986828701611f99565b93505060206120ea86828701611f99565b92505060406120fb86828701611fcf565b9150509250925092565b6000819050919050565b61211881612105565b811461212357600080fd5b50565b6000813590506121358161210f565b92915050565b60006020828403121561215157612150611dde565b5b600061215f84828501612126565b91505092915050565b61217181612105565b82525050565b600060208201905061218c6000830184612168565b92915050565b6000602082840312156121a8576121a7611dde565b5b60006121b684828501611fcf565b91505092915050565b600080604083850312156121d6576121d5611dde565b5b60006121e485828601612126565b92505060206121f585828601611f99565b9150509250929050565b600060ff82169050919050565b612215816121ff565b82525050565b6000602082019050612230600083018461220c565b92915050565b6000806040838503121561224d5761224c611dde565b5b600061225b85828601611f99565b925050602061226c85828601611f99565b9150509250929050565b7f4e487b7100000000000000000000000000000000000000000000000000000000600052602260045260246000fd5b600060028204905060018216806122bd57607f821691505b6020821081036122d0576122cf612276565b5b50919050565b7f496e737566696369656e742062616c616e636521000000000000000000000000600082015250565b600061230c601483611ea9565b9150612317826122d6565b602082019050919050565b6000602082019050818103600083015261233b816122ff565b9050919050565b7f4e6f20746f6b656e207374616b65642100000000000000000000000000000000600082015250565b6000612378601083611ea9565b915061238382612342565b602082019050919050565b600060208201905081810360008301526123a78161236b565b9050919050565b7f4e6f7468696e6720746f20756e7374616b652100000000000000000000000000600082015250565b60006123e4601383611ea9565b91506123ef826123ae565b602082019050919050565b60006020820190508181036000830152612413816123d7565b9050919050565b7f4e487b7100000000000000000000000000000000000000000000000000000000600052601160045260246000fd5b600061245482611fae565b915061245f83611fae565b92508282039050818111156124775761247661241a565b5b92915050565b600061248882611fae565b915061249383611fae565b92508282019050808211156124ab576124aa61241a565b5b92915050565b600081905092915050565b50565b60006124cc6000836124b1565b91506124d7826124bc565b600082019050919050565b60006124ed826124bf565b9150819050919050565b7f5061796d656e74206661696c6564210000000000000000000000000000000000600082015250565b600061252d600f83611ea9565b9150612538826124f7565b602082019050919050565b6000602082019050818103600083015261255c81612520565b9050919050565b61256c81611f70565b82525050565b60006040820190506125876000830185612024565b6125946020830184612563565b9392505050565b7f416363657373436f6e74726f6c3a2063616e206f6e6c792072656e6f756e636560008201527f20726f6c657320666f722073656c660000000000000000000000000000000000602082015250565b60006125f7602f83611ea9565b91506126028261259b565b604082019050919050565b60006020820190508181036000830152612626816125ea565b9050919050565b7f5468652076616c7565206d757374206265206120706f736974697665206e756d60008201527f6265722100000000000000000000000000000000000000000000000000000000602082015250565b6000612689602483611ea9565b91506126948261262d565b604082019050919050565b600060208201905081810360008301526126b88161267c565b9050919050565b60006126ca82611fae565b91507fffffffffffffffffffffffffffffffffffffffffffffffffffffffffffffffff82036126fc576126fb61241a565b5b600182019050919050565b7f45524332303a2064656372656173656420616c6c6f77616e63652062656c6f7760008201527f207a65726f000000000000000000000000000000000000000000000000000000602082015250565b6000612763602583611ea9565b915061276e82612707565b604082019050919050565b6000602082019050818103600083015261279281612756565b9050919050565b7f45524332303a20617070726f76652066726f6d20746865207a65726f2061646460008201527f7265737300000000000000000000000000000000000000000000000000000000602082015250565b60006127f5602483611ea9565b915061280082612799565b604082019050919050565b60006020820190508181036000830152612824816127e8565b9050919050565b7f45524332303a20617070726f766520746f20746865207a65726f20616464726560008201527f7373000000000000000000000000000000000000000000000000000000000000602082015250565b6000612887602283611ea9565b91506128928261282b565b604082019050919050565b600060208201905081810360008301526128b68161287a565b9050919050565b7f45524332303a20696e73756666696369656e7420616c6c6f77616e6365000000600082015250565b60006128f3601d83611ea9565b91506128fe826128bd565b602082019050919050565b60006020820190508181036000830152612922816128e6565b9050919050565b7f45524332303a207472616e736665722066726f6d20746865207a65726f20616460008201527f6472657373000000000000000000000000000000000000000000000000000000602082015250565b6000612985602583611ea9565b915061299082612929565b604082019050919050565b600060208201905081810360008301526129b481612978565b9050919050565b7f45524332303a207472616e7366657220746f20746865207a65726f206164647260008201527f6573730000000000000000000000000000000000000000000000000000000000602082015250565b6000612a17602383611ea9565b9150612a22826129bb565b604082019050919050565b60006020820190508181036000830152612a4681612a0a565b9050919050565b7f45524332303a207472616e7366657220616d6f756e742065786365656473206260008201527f616c616e63650000000000000000000000000000000000000000000000000000602082015250565b6000612aa9602683611ea9565b9150612ab482612a4d565b604082019050919050565b60006020820190508181036000830152612ad881612a9c565b9050919050565b7f4e487b7100000000000000000000000000000000000000000000000000000000600052601260045260246000fd5b6000612b1982611fae565b9150612b2483611fae565b925082612b3457612b33612adf565b5b828204905092915050565b6000612b4a82611fae565b9150612b5583611fae565b9250828202612b6381611fae565b91508282048414831517612b7a57612b7961241a565b5b5092915050565b600081905092915050565b7f416363657373436f6e74726f6c3a206163636f756e7420000000000000000000600082015250565b6000612bc2601783612b81565b9150612bcd82612b8c565b601782019050919050565b6000612be382611e9e565b612bed8185612b81565b9350612bfd818560208601611eba565b80840191505092915050565b7f206973206d697373696e6720726f6c6520000000000000000000000000000000600082015250565b6000612c3f601183612b81565b9150612c4a82612c09565b601182019050919050565b6000612c6082612bb5565b9150612c6c8285612bd8565b9150612c7782612c32565b9150612c838284612bd8565b91508190509392505050565b7f4e487b7100000000000000000000000000000000000000000000000000000000600052604160045260246000fd5b7f4e487b7100000000000000000000000000000000000000000000000000000000600052603260045260246000fd5b6000612cf882611fae565b915060008203612d0b57612d0a61241a565b5b600182039050919050565b7f537472696e67733a20686578206c656e67746820696e73756666696369656e74600082015250565b6000612d4c602083611ea9565b9150612d5782612d16565b602082019050919050565b60006020820190508181036000830152612d7b81612d3f565b905091905056fea2646970667358221220a314bd2820e5593273bdcc26c38a513a8a635d0898793f8e1c4026813970db7664736f6c63430008120033",
  "linkReferences": {},
  "deployedLinkReferences": {}
}