{
  "_format": "hh-sol-artifact-1",
  "contractName": "TokenStakingContract",
  "sourceName": "contracts/TokenStakingContract.sol",
  "abi": [
    {
      "inputs": [
        {
          "internalType": "string",
          "name": "_name",
          "type": "string"
        },
        {
          "internalType": "string",
          "name": "_symbol",
          "type": "string"
        }
      ],
      "stateMutability": "nonpayable",
      "type": "constructor"
    },
    {
      "anonymous": false,
      "inputs": [
        {
          "indexed": true,
          "internalType": "address",
          "name": "owner",
          "type": "address"
        },
        {
          "indexed": true,
          "internalType": "address",
          "name": "spender",
          "type": "address"
        },
        {
          "indexed": false,
          "internalType": "uint256",
          "name": "value",
          "type": "uint256"
        }
      ],
      "name": "Approval",
      "type": "event"
    },
    {
      "anonymous": false,
      "inputs": [
        {
          "indexed": true,
          "internalType": "bytes32",
          "name": "role",
          "type": "bytes32"
        },
        {
          "indexed": true,
          "internalType": "bytes32",
          "name": "previousAdminRole",
          "type": "bytes32"
        },
        {
          "indexed": true,
          "internalType": "bytes32",
          "name": "newAdminRole",
          "type": "bytes32"
        }
      ],
      "name": "RoleAdminChanged",
      "type": "event"
    },
    {
      "anonymous": false,
      "inputs": [
        {
          "indexed": true,
          "internalType": "bytes32",
          "name": "role",
          "type": "bytes32"
        },
        {
          "indexed": true,
          "internalType": "address",
          "name": "account",
          "type": "address"
        },
        {
          "indexed": true,
          "internalType": "address",
          "name": "sender",
          "type": "address"
        }
      ],
      "name": "RoleGranted",
      "type": "event"
    },
    {
      "anonymous": false,
      "inputs": [
        {
          "indexed": true,
          "internalType": "bytes32",
          "name": "role",
          "type": "bytes32"
        },
        {
          "indexed": true,
          "internalType": "address",
          "name": "account",
          "type": "address"
        },
        {
          "indexed": true,
          "internalType": "address",
          "name": "sender",
          "type": "address"
        }
      ],
      "name": "RoleRevoked",
      "type": "event"
    },
    {
      "anonymous": false,
      "inputs": [
        {
          "indexed": true,
          "internalType": "address",
          "name": "from",
          "type": "address"
        },
        {
          "indexed": true,
          "internalType": "address",
          "name": "to",
          "type": "address"
        },
        {
          "indexed": false,
          "internalType": "uint256",
          "name": "value",
          "type": "uint256"
        }
      ],
      "name": "Transfer",
      "type": "event"
    },
    {
      "inputs": [],
      "name": "BURNER_ROLE",
      "outputs": [
        {
          "internalType": "bytes32",
          "name": "",
          "type": "bytes32"
        }
      ],
      "stateMutability": "view",
      "type": "function"
    },
    {
      "inputs": [],
      "name": "ClaimRewards",
      "outputs": [],
      "stateMutability": "nonpayable",
      "type": "function"
    },
    {
      "inputs": [],
      "name": "DEFAULT_ADMIN_ROLE",
      "outputs": [
        {
          "internalType": "bytes32",
          "name": "",
          "type": "bytes32"
        }
      ],
      "stateMutability": "view",
      "type": "function"
    },
    {
      "inputs": [],
      "name": "STAKER_ROLE",
      "outputs": [
        {
          "internalType": "bytes32",
          "name": "",
          "type": "bytes32"
        }
      ],
      "stateMutability": "view",
      "type": "function"
    },
    {
      "inputs": [
        {
          "internalType": "uint256",
          "name": "_amount",
          "type": "uint256"
        }
      ],
      "name": "Stake",
      "outputs": [],
      "stateMutability": "payable",
      "type": "function"
    },
    {
      "inputs": [],
      "name": "Unstake",
      "outputs": [],
      "stateMutability": "nonpayable",
      "type": "function"
    },
    {
      "inputs": [],
      "name": "ViewRewards",
      "outputs": [
        {
          "internalType": "uint256",
          "name": "",
          "type": "uint256"
        }
      ],
      "stateMutability": "view",
      "type": "function"
    },
    {
      "inputs": [
        {
          "internalType": "uint256",
          "name": "_amount",
          "type": "uint256"
        }
      ],
      "name": "ViewRewardsPerAmountStaked",
      "outputs": [],
      "stateMutability": "view",
      "type": "function"
    },
    {
      "inputs": [
        {
          "internalType": "address",
          "name": "owner",
          "type": "address"
        },
        {
          "internalType": "address",
          "name": "spender",
          "type": "address"
        }
      ],
      "name": "allowance",
      "outputs": [
        {
          "internalType": "uint256",
          "name": "",
          "type": "uint256"
        }
      ],
      "stateMutability": "view",
      "type": "function"
    },
    {
      "inputs": [
        {
          "internalType": "address",
          "name": "spender",
          "type": "address"
        },
        {
          "internalType": "uint256",
          "name": "amount",
          "type": "uint256"
        }
      ],
      "name": "approve",
      "outputs": [
        {
          "internalType": "bool",
          "name": "",
          "type": "bool"
        }
      ],
      "stateMutability": "nonpayable",
      "type": "function"
    },
    {
      "inputs": [
        {
          "internalType": "address",
          "name": "account",
          "type": "address"
        }
      ],
      "name": "balanceOf",
      "outputs": [
        {
          "internalType": "uint256",
          "name": "",
          "type": "uint256"
        }
      ],
      "stateMutability": "view",
      "type": "function"
    },
    {
      "inputs": [],
      "name": "daylyBatch",
      "outputs": [
        {
          "internalType": "uint256",
          "name": "",
          "type": "uint256"
        }
      ],
      "stateMutability": "view",
      "type": "function"
    },
    {
      "inputs": [],
      "name": "decimals",
      "outputs": [
        {
          "internalType": "uint8",
          "name": "",
          "type": "uint8"
        }
      ],
      "stateMutability": "view",
      "type": "function"
    },
    {
      "inputs": [
        {
          "internalType": "address",
          "name": "spender",
          "type": "address"
        },
        {
          "internalType": "uint256",
          "name": "subtractedValue",
          "type": "uint256"
        }
      ],
      "name": "decreaseAllowance",
      "outputs": [
        {
          "internalType": "bool",
          "name": "",
          "type": "bool"
        }
      ],
      "stateMutability": "nonpayable",
      "type": "function"
    },
    {
      "inputs": [
        {
          "internalType": "bytes32",
          "name": "role",
          "type": "bytes32"
        }
      ],
      "name": "getRoleAdmin",
      "outputs": [
        {
          "internalType": "bytes32",
          "name": "",
          "type": "bytes32"
        }
      ],
      "stateMutability": "view",
      "type": "function"
    },
    {
      "inputs": [
        {
          "internalType": "bytes32",
          "name": "role",
          "type": "bytes32"
        },
        {
          "internalType": "address",
          "name": "account",
          "type": "address"
        }
      ],
      "name": "grantRole",
      "outputs": [],
      "stateMutability": "nonpayable",
      "type": "function"
    },
    {
      "inputs": [
        {
          "internalType": "bytes32",
          "name": "role",
          "type": "bytes32"
        },
        {
          "internalType": "address",
          "name": "account",
          "type": "address"
        }
      ],
      "name": "hasRole",
      "outputs": [
        {
          "internalType": "bool",
          "name": "",
          "type": "bool"
        }
      ],
      "stateMutability": "view",
      "type": "function"
    },
    {
      "inputs": [
        {
          "internalType": "address",
          "name": "spender",
          "type": "address"
        },
        {
          "internalType": "uint256",
          "name": "addedValue",
          "type": "uint256"
        }
      ],
      "name": "increaseAllowance",
      "outputs": [
        {
          "internalType": "bool",
          "name": "",
          "type": "bool"
        }
      ],
      "stateMutability": "nonpayable",
      "type": "function"
    },
    {
      "inputs": [],
      "name": "name",
      "outputs": [
        {
          "internalType": "string",
          "name": "",
          "type": "string"
        }
      ],
      "stateMutability": "view",
      "type": "function"
    },
    {
      "inputs": [],
      "name": "numberOfStakers",
      "outputs": [
        {
          "internalType": "uint256",
          "name": "",
          "type": "uint256"
        }
      ],
      "stateMutability": "view",
      "type": "function"
    },
    {
      "inputs": [
        {
          "internalType": "bytes32",
          "name": "role",
          "type": "bytes32"
        },
        {
          "internalType": "address",
          "name": "account",
          "type": "address"
        }
      ],
      "name": "renounceRole",
      "outputs": [],
      "stateMutability": "nonpayable",
      "type": "function"
    },
    {
      "inputs": [
        {
          "internalType": "bytes32",
          "name": "role",
          "type": "bytes32"
        },
        {
          "internalType": "address",
          "name": "account",
          "type": "address"
        }
      ],
      "name": "revokeRole",
      "outputs": [],
      "stateMutability": "nonpayable",
      "type": "function"
    },
    {
      "inputs": [
        {
          "internalType": "bytes4",
          "name": "interfaceId",
          "type": "bytes4"
        }
      ],
      "name": "supportsInterface",
      "outputs": [
        {
          "internalType": "bool",
          "name": "",
          "type": "bool"
        }
      ],
      "stateMutability": "view",
      "type": "function"
    },
    {
      "inputs": [],
      "name": "symbol",
      "outputs": [
        {
          "internalType": "string",
          "name": "",
          "type": "string"
        }
      ],
      "stateMutability": "view",
      "type": "function"
    },
    {
      "inputs": [],
      "name": "totalAmountStaked",
      "outputs": [
        {
          "internalType": "uint256",
          "name": "",
          "type": "uint256"
        }
      ],
      "stateMutability": "view",
      "type": "function"
    },
    {
      "inputs": [],
      "name": "totalSupply",
      "outputs": [
        {
          "internalType": "uint256",
          "name": "",
          "type": "uint256"
        }
      ],
      "stateMutability": "view",
      "type": "function"
    },
    {
      "inputs": [],
      "name": "totalTokenSupply",
      "outputs": [
        {
          "internalType": "uint256",
          "name": "",
          "type": "uint256"
        }
      ],
      "stateMutability": "view",
      "type": "function"
    },
    {
      "inputs": [
        {
          "internalType": "address",
          "name": "to",
          "type": "address"
        },
        {
          "internalType": "uint256",
          "name": "amount",
          "type": "uint256"
        }
      ],
      "name": "transfer",
      "outputs": [
        {
          "internalType": "bool",
          "name": "",
          "type": "bool"
        }
      ],
      "stateMutability": "nonpayable",
      "type": "function"
    },
    {
      "inputs": [
        {
          "internalType": "address",
          "name": "from",
          "type": "address"
        },
        {
          "internalType": "address",
          "name": "to",
          "type": "address"
        },
        {
          "internalType": "uint256",
          "name": "amount",
          "type": "uint256"
        }
      ],
      "name": "transferFrom",
      "outputs": [
        {
          "internalType": "bool",
          "name": "",
          "type": "bool"
        }
      ],
      "stateMutability": "nonpayable",
      "type": "function"
    },
    {
      "inputs": [
        {
          "internalType": "address",
          "name": "",
          "type": "address"
        }
      ],
      "name": "userInfo",
      "outputs": [
        {
          "internalType": "uint256",
          "name": "amountStaked",
          "type": "uint256"
        },
        {
          "internalType": "uint256",
          "name": "stakeDate",
          "type": "uint256"
        },
        {
          "internalType": "uint256",
          "name": "lastClaimedRewardsDate",
          "type": "uint256"
        }
      ],
      "stateMutability": "view",
      "type": "function"
    }
  ],
  "bytecode": "0x60806040523480156200001157600080fd5b5060405162002ebf38038062002ebf83398181016040528101906200003791906200051d565b818181600390816200004a9190620007ed565b5080600490816200005c9190620007ed565b505050620000746000801b336200009860201b60201c565b620000903369d86abb23bbeec2c00000620000ae60201b60201c565b5050620009ef565b620000aa82826200021b60201b60201c565b5050565b600073ffffffffffffffffffffffffffffffffffffffff168273ffffffffffffffffffffffffffffffffffffffff160362000120576040517f08c379a0000000000000000000000000000000000000000000000000000000008152600401620001179062000935565b60405180910390fd5b62000134600083836200030d60201b60201c565b806002600082825462000148919062000986565b92505081905550806000808473ffffffffffffffffffffffffffffffffffffffff1673ffffffffffffffffffffffffffffffffffffffff168152602001908152602001600020600082825401925050819055508173ffffffffffffffffffffffffffffffffffffffff16600073ffffffffffffffffffffffffffffffffffffffff167fddf252ad1be2c89b69c2b068fc378daa952ba7f163c4a11628f55a4df523b3ef83604051620001fb9190620009d2565b60405180910390a362000217600083836200031260201b60201c565b5050565b6200022d82826200031760201b60201c565b620003095760016005600084815260200190815260200160002060000160008373ffffffffffffffffffffffffffffffffffffffff1673ffffffffffffffffffffffffffffffffffffffff16815260200190815260200160002060006101000a81548160ff021916908315150217905550620002ae6200038260201b60201c565b73ffffffffffffffffffffffffffffffffffffffff168173ffffffffffffffffffffffffffffffffffffffff16837f2f8788117e7eff1d82e926ec794901d17c78024a50270940304540a733656f0d60405160405180910390a45b5050565b505050565b505050565b60006005600084815260200190815260200160002060000160008373ffffffffffffffffffffffffffffffffffffffff1673ffffffffffffffffffffffffffffffffffffffff16815260200190815260200160002060009054906101000a900460ff16905092915050565b600033905090565b6000604051905090565b600080fd5b600080fd5b600080fd5b600080fd5b6000601f19601f8301169050919050565b7f4e487b7100000000000000000000000000000000000000000000000000000000600052604160045260246000fd5b620003f382620003a8565b810181811067ffffffffffffffff82111715620004155762000414620003b9565b5b80604052505050565b60006200042a6200038a565b9050620004388282620003e8565b919050565b600067ffffffffffffffff8211156200045b576200045a620003b9565b5b6200046682620003a8565b9050602081019050919050565b60005b838110156200049357808201518184015260208101905062000476565b60008484015250505050565b6000620004b6620004b0846200043d565b6200041e565b905082815260208101848484011115620004d557620004d4620003a3565b5b620004e284828562000473565b509392505050565b600082601f8301126200050257620005016200039e565b5b8151620005148482602086016200049f565b91505092915050565b6000806040838503121562000537576200053662000394565b5b600083015167ffffffffffffffff81111562000558576200055762000399565b5b6200056685828601620004ea565b925050602083015167ffffffffffffffff8111156200058a576200058962000399565b5b6200059885828601620004ea565b9150509250929050565b600081519050919050565b7f4e487b7100000000000000000000000000000000000000000000000000000000600052602260045260246000fd5b60006002820490506001821680620005f557607f821691505b6020821081036200060b576200060a620005ad565b5b50919050565b60008190508160005260206000209050919050565b60006020601f8301049050919050565b600082821b905092915050565b600060088302620006757fffffffffffffffffffffffffffffffffffffffffffffffffffffffffffffffff8262000636565b62000681868362000636565b95508019841693508086168417925050509392505050565b6000819050919050565b6000819050919050565b6000620006ce620006c8620006c28462000699565b620006a3565b62000699565b9050919050565b6000819050919050565b620006ea83620006ad565b62000702620006f982620006d5565b84845462000643565b825550505050565b600090565b620007196200070a565b62000726818484620006df565b505050565b5b818110156200074e57620007426000826200070f565b6001810190506200072c565b5050565b601f8211156200079d57620007678162000611565b620007728462000626565b8101602085101562000782578190505b6200079a620007918562000626565b8301826200072b565b50505b505050565b600082821c905092915050565b6000620007c260001984600802620007a2565b1980831691505092915050565b6000620007dd8383620007af565b9150826002028217905092915050565b620007f882620005a2565b67ffffffffffffffff811115620008145762000813620003b9565b5b620008208254620005dc565b6200082d82828562000752565b600060209050601f83116001811462000865576000841562000850578287015190505b6200085c8582620007cf565b865550620008cc565b601f198416620008758662000611565b60005b828110156200089f5784890151825560018201915060208501945060208101905062000878565b86831015620008bf5784890151620008bb601f891682620007af565b8355505b6001600288020188555050505b505050505050565b600082825260208201905092915050565b7f45524332303a206d696e7420746f20746865207a65726f206164647265737300600082015250565b60006200091d601f83620008d4565b91506200092a82620008e5565b602082019050919050565b6000602082019050818103600083015262000950816200090e565b9050919050565b7f4e487b7100000000000000000000000000000000000000000000000000000000600052601160045260246000fd5b6000620009938262000699565b9150620009a08362000699565b9250828201905080821115620009bb57620009ba62000957565b5b92915050565b620009cc8162000699565b82525050565b6000602082019050620009e96000830184620009c1565b92915050565b6124c080620009ff6000396000f3fe6080604052600436106101cd5760003560e01c80633780b3ed116100f757806395d89b4111610095578063d547741f11610064578063d547741f146106a9578063dd62ed3e146106d2578063f64b7f7e1461070f578063fe961f611461073a576101cd565b806395d89b41146105d9578063a217fddf14610604578063a457c2d71461062f578063a9059cbb1461066c576101cd565b806370a08231116100d157806370a082311461051d5780637538eecf1461055a57806376dc74401461057157806391d148541461059c576101cd565b80633780b3ed1461048a57806339509351146104b55780635eabf577146104f2576101cd565b8063227a473b1161016f5780632a03745b1161013e5780632a03745b146103e45780632f2ff15d1461040d578063313ce5671461043657806336568abe14610461576101cd565b8063227a473b1461032357806323b872dd1461033f578063248a9ca31461037c578063282c51f3146103b9576101cd565b806312798972116101ab578063127989721461027757806318160ddd1461028e5780631959a002146102b95780631ca8b6cb146102f8576101cd565b806301ffc9a7146101d257806306fdde031461020f578063095ea7b31461023a575b600080fd5b3480156101de57600080fd5b506101f960048036038101906101f4919061184b565b610765565b6040516102069190611893565b60405180910390f35b34801561021b57600080fd5b506102246107df565b604051610231919061193e565b60405180910390f35b34801561024657600080fd5b50610261600480360381019061025c91906119f4565b610871565b60405161026e9190611893565b60405180910390f35b34801561028357600080fd5b5061028c610894565b005b34801561029a57600080fd5b506102a3610896565b6040516102b09190611a43565b60405180910390f35b3480156102c557600080fd5b506102e060048036038101906102db9190611a5e565b6108a0565b6040516102ef93929190611a8b565b60405180910390f35b34801561030457600080fd5b5061030d6108ca565b60405161031a9190611a43565b60405180910390f35b61033d60048036038101906103389190611ac2565b6108d8565b005b34801561034b57600080fd5b5061036660048036038101906103619190611aef565b6108db565b6040516103739190611893565b60405180910390f35b34801561038857600080fd5b506103a3600480360381019061039e9190611b78565b61090a565b6040516103b09190611bb4565b60405180910390f35b3480156103c557600080fd5b506103ce61092a565b6040516103db9190611bb4565b60405180910390f35b3480156103f057600080fd5b5061040b60048036038101906104069190611ac2565b61094e565b005b34801561041957600080fd5b50610434600480360381019061042f9190611bcf565b610951565b005b34801561044257600080fd5b5061044b610972565b6040516104589190611c2b565b60405180910390f35b34801561046d57600080fd5b5061048860048036038101906104839190611bcf565b61097b565b005b34801561049657600080fd5b5061049f6109fe565b6040516104ac9190611bb4565b60405180910390f35b3480156104c157600080fd5b506104dc60048036038101906104d791906119f4565b610a22565b6040516104e99190611893565b60405180910390f35b3480156104fe57600080fd5b50610507610a59565b6040516105149190611a43565b60405180910390f35b34801561052957600080fd5b50610544600480360381019061053f9190611a5e565b610a5f565b6040516105519190611a43565b60405180910390f35b34801561056657600080fd5b5061056f610aa7565b005b34801561057d57600080fd5b50610586610aa9565b6040516105939190611a43565b60405180910390f35b3480156105a857600080fd5b506105c360048036038101906105be9190611bcf565b610ab6565b6040516105d09190611893565b60405180910390f35b3480156105e557600080fd5b506105ee610b21565b6040516105fb919061193e565b60405180910390f35b34801561061057600080fd5b50610619610bb3565b6040516106269190611bb4565b60405180910390f35b34801561063b57600080fd5b50610656600480360381019061065191906119f4565b610bba565b6040516106639190611893565b60405180910390f35b34801561067857600080fd5b50610693600480360381019061068e91906119f4565b610c31565b6040516106a09190611893565b60405180910390f35b3480156106b557600080fd5b506106d060048036038101906106cb9190611bcf565b610c54565b005b3480156106de57600080fd5b506106f960048036038101906106f49190611c46565b610c75565b6040516107069190611a43565b60405180910390f35b34801561071b57600080fd5b50610724610cfc565b6040516107319190611a43565b60405180910390f35b34801561074657600080fd5b5061074f610d0c565b60405161075c9190611a43565b60405180910390f35b60007f7965db0b000000000000000000000000000000000000000000000000000000007bffffffffffffffffffffffffffffffffffffffffffffffffffffffff1916827bffffffffffffffffffffffffffffffffffffffffffffffffffffffff191614806107d857506107d782610d12565b5b9050919050565b6060600380546107ee90611cb5565b80601f016020809104026020016040519081016040528092919081815260200182805461081a90611cb5565b80156108675780601f1061083c57610100808354040283529160200191610867565b820191906000526020600020905b81548152906001019060200180831161084a57829003601f168201915b5050505050905090565b60008061087c610d7c565b9050610889818585610d84565b600191505092915050565b565b6000600254905090565b60086020528060005260406000206000915090508060000154908060010154908060020154905083565b69d86abb23bbeec2c0000081565b50565b6000806108e6610d7c565b90506108f3858285610f4d565b6108fe858585610fd9565b60019150509392505050565b600060056000838152602001908152602001600020600101549050919050565b7f3c11d16cbaffd01df69ce1c404f6340ee057498f5f00246190ea54220576a84881565b50565b61095a8261090a565b6109638161124f565b61096d8383611263565b505050565b60006012905090565b610983610d7c565b73ffffffffffffffffffffffffffffffffffffffff168173ffffffffffffffffffffffffffffffffffffffff16146109f0576040517f08c379a00000000000000000000000000000000000000000000000000000000081526004016109e790611d58565b60405180910390fd5b6109fa8282611344565b5050565b7fb9e206fa2af7ee1331b72ce58b6d938ac810ce9b5cdb65d35ab723fd67badf9e81565b600080610a2d610d7c565b9050610a4e818585610a3f8589610c75565b610a499190611da7565b610d84565b600191505092915050565b60065481565b60008060008373ffffffffffffffffffffffffffffffffffffffff1673ffffffffffffffffffffffffffffffffffffffff168152602001908152602001600020549050919050565b565b6897c9ce4cf6d5c0000081565b60006005600084815260200190815260200160002060000160008373ffffffffffffffffffffffffffffffffffffffff1673ffffffffffffffffffffffffffffffffffffffff16815260200190815260200160002060009054906101000a900460ff16905092915050565b606060048054610b3090611cb5565b80601f0160208091040260200160405190810160405280929190818152602001828054610b5c90611cb5565b8015610ba95780601f10610b7e57610100808354040283529160200191610ba9565b820191906000526020600020905b815481529060010190602001808311610b8c57829003601f168201915b5050505050905090565b6000801b81565b600080610bc5610d7c565b90506000610bd38286610c75565b905083811015610c18576040517f08c379a0000000000000000000000000000000000000000000000000000000008152600401610c0f90611e4d565b60405180910390fd5b610c258286868403610d84565b60019250505092915050565b600080610c3c610d7c565b9050610c49818585610fd9565b600191505092915050565b610c5d8261090a565b610c668161124f565b610c708383611344565b505050565b6000600160008473ffffffffffffffffffffffffffffffffffffffff1673ffffffffffffffffffffffffffffffffffffffff16815260200190815260200160002060008373ffffffffffffffffffffffffffffffffffffffff1673ffffffffffffffffffffffffffffffffffffffff16815260200190815260200160002054905092915050565b6000610d0733611426565b905090565b60075481565b60007f01ffc9a7000000000000000000000000000000000000000000000000000000007bffffffffffffffffffffffffffffffffffffffffffffffffffffffff1916827bffffffffffffffffffffffffffffffffffffffffffffffffffffffff1916149050919050565b600033905090565b600073ffffffffffffffffffffffffffffffffffffffff168373ffffffffffffffffffffffffffffffffffffffff1603610df3576040517f08c379a0000000000000000000000000000000000000000000000000000000008152600401610dea90611edf565b60405180910390fd5b600073ffffffffffffffffffffffffffffffffffffffff168273ffffffffffffffffffffffffffffffffffffffff1603610e62576040517f08c379a0000000000000000000000000000000000000000000000000000000008152600401610e5990611f71565b60405180910390fd5b80600160008573ffffffffffffffffffffffffffffffffffffffff1673ffffffffffffffffffffffffffffffffffffffff16815260200190815260200160002060008473ffffffffffffffffffffffffffffffffffffffff1673ffffffffffffffffffffffffffffffffffffffff168152602001908152602001600020819055508173ffffffffffffffffffffffffffffffffffffffff168373ffffffffffffffffffffffffffffffffffffffff167f8c5be1e5ebec7d5bd14f71427d1e84f3dd0314c0f7b2291e5b200ac8c7c3b92583604051610f409190611a43565b60405180910390a3505050565b6000610f598484610c75565b90507fffffffffffffffffffffffffffffffffffffffffffffffffffffffffffffffff8114610fd35781811015610fc5576040517f08c379a0000000000000000000000000000000000000000000000000000000008152600401610fbc90611fdd565b60405180910390fd5b610fd28484848403610d84565b5b50505050565b600073ffffffffffffffffffffffffffffffffffffffff168373ffffffffffffffffffffffffffffffffffffffff1603611048576040517f08c379a000000000000000000000000000000000000000000000000000000000815260040161103f9061206f565b60405180910390fd5b600073ffffffffffffffffffffffffffffffffffffffff168273ffffffffffffffffffffffffffffffffffffffff16036110b7576040517f08c379a00000000000000000000000000000000000000000000000000000000081526004016110ae90612101565b60405180910390fd5b6110c28383836114f6565b60008060008573ffffffffffffffffffffffffffffffffffffffff1673ffffffffffffffffffffffffffffffffffffffff16815260200190815260200160002054905081811015611148576040517f08c379a000000000000000000000000000000000000000000000000000000000815260040161113f90612193565b60405180910390fd5b8181036000808673ffffffffffffffffffffffffffffffffffffffff1673ffffffffffffffffffffffffffffffffffffffff16815260200190815260200160002081905550816000808573ffffffffffffffffffffffffffffffffffffffff1673ffffffffffffffffffffffffffffffffffffffff168152602001908152602001600020600082825401925050819055508273ffffffffffffffffffffffffffffffffffffffff168473ffffffffffffffffffffffffffffffffffffffff167fddf252ad1be2c89b69c2b068fc378daa952ba7f163c4a11628f55a4df523b3ef846040516112369190611a43565b60405180910390a36112498484846114fb565b50505050565b6112608161125b610d7c565b611500565b50565b61126d8282610ab6565b6113405760016005600084815260200190815260200160002060000160008373ffffffffffffffffffffffffffffffffffffffff1673ffffffffffffffffffffffffffffffffffffffff16815260200190815260200160002060006101000a81548160ff0219169083151502179055506112e5610d7c565b73ffffffffffffffffffffffffffffffffffffffff168173ffffffffffffffffffffffffffffffffffffffff16837f2f8788117e7eff1d82e926ec794901d17c78024a50270940304540a733656f0d60405160405180910390a45b5050565b61134e8282610ab6565b156114225760006005600084815260200190815260200160002060000160008373ffffffffffffffffffffffffffffffffffffffff1673ffffffffffffffffffffffffffffffffffffffff16815260200190815260200160002060006101000a81548160ff0219169083151502179055506113c7610d7c565b73ffffffffffffffffffffffffffffffffffffffff168173ffffffffffffffffffffffffffffffffffffffff16837ff6391f5c32d9c69d2a47ea670b442974b53935d1edc7fd64eb21e047a839171b60405160405180910390a45b5050565b6000806000600860008573ffffffffffffffffffffffffffffffffffffffff1673ffffffffffffffffffffffffffffffffffffffff168152602001908152602001600020600201544261147991906121b3565b9050806897c9ce4cf6d5c00000600754600860008873ffffffffffffffffffffffffffffffffffffffff1673ffffffffffffffffffffffffffffffffffffffff168152602001908152602001600020600001546114d69190612216565b6114e09190612247565b6114ea9190612247565b91508192505050919050565b505050565b505050565b61150a8282610ab6565b6115815761151781611585565b6115258360001c60206115b2565b60405160200161153692919061235d565b6040516020818303038152906040526040517f08c379a0000000000000000000000000000000000000000000000000000000008152600401611578919061193e565b60405180910390fd5b5050565b60606115ab8273ffffffffffffffffffffffffffffffffffffffff16601460ff166115b2565b9050919050565b6060600060028360026115c59190612247565b6115cf9190611da7565b67ffffffffffffffff8111156115e8576115e7612397565b5b6040519080825280601f01601f19166020018201604052801561161a5781602001600182028036833780820191505090505b5090507f300000000000000000000000000000000000000000000000000000000000000081600081518110611652576116516123c6565b5b60200101907effffffffffffffffffffffffffffffffffffffffffffffffffffffffffffff1916908160001a9053507f7800000000000000000000000000000000000000000000000000000000000000816001815181106116b6576116b56123c6565b5b60200101907effffffffffffffffffffffffffffffffffffffffffffffffffffffffffffff1916908160001a905350600060018460026116f69190612247565b6117009190611da7565b90505b60018111156117a0577f3031323334353637383961626364656600000000000000000000000000000000600f861660108110611742576117416123c6565b5b1a60f81b828281518110611759576117586123c6565b5b60200101907effffffffffffffffffffffffffffffffffffffffffffffffffffffffffffff1916908160001a905350600485901c945080611799906123f5565b9050611703565b50600084146117e4576040517f08c379a00000000000000000000000000000000000000000000000000000000081526004016117db9061246a565b60405180910390fd5b8091505092915050565b600080fd5b60007fffffffff0000000000000000000000000000000000000000000000000000000082169050919050565b611828816117f3565b811461183357600080fd5b50565b6000813590506118458161181f565b92915050565b600060208284031215611861576118606117ee565b5b600061186f84828501611836565b91505092915050565b60008115159050919050565b61188d81611878565b82525050565b60006020820190506118a86000830184611884565b92915050565b600081519050919050565b600082825260208201905092915050565b60005b838110156118e85780820151818401526020810190506118cd565b60008484015250505050565b6000601f19601f8301169050919050565b6000611910826118ae565b61191a81856118b9565b935061192a8185602086016118ca565b611933816118f4565b840191505092915050565b600060208201905081810360008301526119588184611905565b905092915050565b600073ffffffffffffffffffffffffffffffffffffffff82169050919050565b600061198b82611960565b9050919050565b61199b81611980565b81146119a657600080fd5b50565b6000813590506119b881611992565b92915050565b6000819050919050565b6119d1816119be565b81146119dc57600080fd5b50565b6000813590506119ee816119c8565b92915050565b60008060408385031215611a0b57611a0a6117ee565b5b6000611a19858286016119a9565b9250506020611a2a858286016119df565b9150509250929050565b611a3d816119be565b82525050565b6000602082019050611a586000830184611a34565b92915050565b600060208284031215611a7457611a736117ee565b5b6000611a82848285016119a9565b91505092915050565b6000606082019050611aa06000830186611a34565b611aad6020830185611a34565b611aba6040830184611a34565b949350505050565b600060208284031215611ad857611ad76117ee565b5b6000611ae6848285016119df565b91505092915050565b600080600060608486031215611b0857611b076117ee565b5b6000611b16868287016119a9565b9350506020611b27868287016119a9565b9250506040611b38868287016119df565b9150509250925092565b6000819050919050565b611b5581611b42565b8114611b6057600080fd5b50565b600081359050611b7281611b4c565b92915050565b600060208284031215611b8e57611b8d6117ee565b5b6000611b9c84828501611b63565b91505092915050565b611bae81611b42565b82525050565b6000602082019050611bc96000830184611ba5565b92915050565b60008060408385031215611be657611be56117ee565b5b6000611bf485828601611b63565b9250506020611c05858286016119a9565b9150509250929050565b600060ff82169050919050565b611c2581611c0f565b82525050565b6000602082019050611c406000830184611c1c565b92915050565b60008060408385031215611c5d57611c5c6117ee565b5b6000611c6b858286016119a9565b9250506020611c7c858286016119a9565b9150509250929050565b7f4e487b7100000000000000000000000000000000000000000000000000000000600052602260045260246000fd5b60006002820490506001821680611ccd57607f821691505b602082108103611ce057611cdf611c86565b5b50919050565b7f416363657373436f6e74726f6c3a2063616e206f6e6c792072656e6f756e636560008201527f20726f6c657320666f722073656c660000000000000000000000000000000000602082015250565b6000611d42602f836118b9565b9150611d4d82611ce6565b604082019050919050565b60006020820190508181036000830152611d7181611d35565b9050919050565b7f4e487b7100000000000000000000000000000000000000000000000000000000600052601160045260246000fd5b6000611db2826119be565b9150611dbd836119be565b9250828201905080821115611dd557611dd4611d78565b5b92915050565b7f45524332303a2064656372656173656420616c6c6f77616e63652062656c6f7760008201527f207a65726f000000000000000000000000000000000000000000000000000000602082015250565b6000611e376025836118b9565b9150611e4282611ddb565b604082019050919050565b60006020820190508181036000830152611e6681611e2a565b9050919050565b7f45524332303a20617070726f76652066726f6d20746865207a65726f2061646460008201527f7265737300000000000000000000000000000000000000000000000000000000602082015250565b6000611ec96024836118b9565b9150611ed482611e6d565b604082019050919050565b60006020820190508181036000830152611ef881611ebc565b9050919050565b7f45524332303a20617070726f766520746f20746865207a65726f20616464726560008201527f7373000000000000000000000000000000000000000000000000000000000000602082015250565b6000611f5b6022836118b9565b9150611f6682611eff565b604082019050919050565b60006020820190508181036000830152611f8a81611f4e565b9050919050565b7f45524332303a20696e73756666696369656e7420616c6c6f77616e6365000000600082015250565b6000611fc7601d836118b9565b9150611fd282611f91565b602082019050919050565b60006020820190508181036000830152611ff681611fba565b9050919050565b7f45524332303a207472616e736665722066726f6d20746865207a65726f20616460008201527f6472657373000000000000000000000000000000000000000000000000000000602082015250565b60006120596025836118b9565b915061206482611ffd565b604082019050919050565b600060208201905081810360008301526120888161204c565b9050919050565b7f45524332303a207472616e7366657220746f20746865207a65726f206164647260008201527f6573730000000000000000000000000000000000000000000000000000000000602082015250565b60006120eb6023836118b9565b91506120f68261208f565b604082019050919050565b6000602082019050818103600083015261211a816120de565b9050919050565b7f45524332303a207472616e7366657220616d6f756e742065786365656473206260008201527f616c616e63650000000000000000000000000000000000000000000000000000602082015250565b600061217d6026836118b9565b915061218882612121565b604082019050919050565b600060208201905081810360008301526121ac81612170565b9050919050565b60006121be826119be565b91506121c9836119be565b92508282039050818111156121e1576121e0611d78565b5b92915050565b7f4e487b7100000000000000000000000000000000000000000000000000000000600052601260045260246000fd5b6000612221826119be565b915061222c836119be565b92508261223c5761223b6121e7565b5b828204905092915050565b6000612252826119be565b915061225d836119be565b925082820261226b816119be565b9150828204841483151761228257612281611d78565b5b5092915050565b600081905092915050565b7f416363657373436f6e74726f6c3a206163636f756e7420000000000000000000600082015250565b60006122ca601783612289565b91506122d582612294565b601782019050919050565b60006122eb826118ae565b6122f58185612289565b93506123058185602086016118ca565b80840191505092915050565b7f206973206d697373696e6720726f6c6520000000000000000000000000000000600082015250565b6000612347601183612289565b915061235282612311565b601182019050919050565b6000612368826122bd565b915061237482856122e0565b915061237f8261233a565b915061238b82846122e0565b91508190509392505050565b7f4e487b7100000000000000000000000000000000000000000000000000000000600052604160045260246000fd5b7f4e487b7100000000000000000000000000000000000000000000000000000000600052603260045260246000fd5b6000612400826119be565b91506000820361241357612412611d78565b5b600182039050919050565b7f537472696e67733a20686578206c656e67746820696e73756666696369656e74600082015250565b60006124546020836118b9565b915061245f8261241e565b602082019050919050565b6000602082019050818103600083015261248381612447565b905091905056fea2646970667358221220a875820c2f7101f20cdb9ad7dd2fadca731db4339781640ca53242f6e06fe58164736f6c63430008120033",
  "linkReferences": {},
  "deployedLinkReferences": {}
}